{
  "contractName": "Marketplace",
  "abi": [
    {
      "anonymous": false,
      "inputs": [
        {
          "indexed": false,
          "internalType": "uint256",
          "name": "offerId",
          "type": "uint256"
        }
      ],
      "name": "ItemBought",
      "type": "event"
    },
    {
      "anonymous": false,
      "inputs": [
        {
          "indexed": false,
          "internalType": "uint256",
          "name": "offerId",
          "type": "uint256"
        }
      ],
      "name": "NewOffer",
      "type": "event"
    },
    {
      "anonymous": false,
      "inputs": [
        {
          "indexed": true,
          "internalType": "address",
          "name": "previousOwner",
          "type": "address"
        },
        {
          "indexed": true,
          "internalType": "address",
          "name": "newOwner",
          "type": "address"
        }
      ],
      "name": "OwnershipTransferred",
      "type": "event"
    },
    {
      "constant": true,
      "inputs": [],
      "name": "bitfilxNFTContractAddress",
      "outputs": [
        {
          "internalType": "address",
          "name": "",
          "type": "address"
        }
      ],
      "payable": false,
      "stateMutability": "view",
      "type": "function"
    },
    {
      "constant": true,
      "inputs": [],
      "name": "isMarketPlaceOpen",
      "outputs": [
        {
          "internalType": "bool",
          "name": "",
          "type": "bool"
        }
      ],
      "payable": false,
      "stateMutability": "view",
      "type": "function"
    },
    {
      "constant": true,
      "inputs": [],
      "name": "isOwner",
      "outputs": [
        {
          "internalType": "bool",
          "name": "",
          "type": "bool"
        }
      ],
      "payable": false,
      "stateMutability": "view",
      "type": "function"
    },
    {
      "constant": true,
      "inputs": [],
      "name": "marketplaceFee",
      "outputs": [
        {
          "internalType": "uint256",
          "name": "",
          "type": "uint256"
        }
      ],
      "payable": false,
      "stateMutability": "view",
      "type": "function"
    },
    {
      "constant": true,
      "inputs": [],
      "name": "minPrice",
      "outputs": [
        {
          "internalType": "uint256",
          "name": "",
          "type": "uint256"
        }
      ],
      "payable": false,
      "stateMutability": "view",
      "type": "function"
    },
    {
      "constant": true,
      "inputs": [
        {
          "internalType": "uint256",
          "name": "",
          "type": "uint256"
        }
      ],
      "name": "offers",
      "outputs": [
        {
          "internalType": "uint256",
          "name": "itemId",
          "type": "uint256"
        },
        {
          "internalType": "uint256",
          "name": "price",
          "type": "uint256"
        },
        {
          "internalType": "address payable",
          "name": "seller",
          "type": "address"
        },
        {
          "internalType": "address payable",
          "name": "buyer",
          "type": "address"
        },
        {
          "internalType": "bool",
          "name": "isOpen",
          "type": "bool"
        }
      ],
      "payable": false,
      "stateMutability": "view",
      "type": "function"
    },
    {
      "constant": true,
      "inputs": [],
      "name": "owner",
      "outputs": [
        {
          "internalType": "address",
          "name": "",
          "type": "address"
        }
      ],
      "payable": false,
      "stateMutability": "view",
      "type": "function"
    },
    {
      "constant": true,
      "inputs": [],
      "name": "payCoinContractAddress",
      "outputs": [
        {
          "internalType": "address",
          "name": "",
          "type": "address"
        }
      ],
      "payable": false,
      "stateMutability": "view",
      "type": "function"
    },
    {
      "constant": true,
      "inputs": [],
      "name": "payCoinSymbol",
      "outputs": [
        {
          "internalType": "string",
          "name": "",
          "type": "string"
        }
      ],
      "payable": false,
      "stateMutability": "view",
      "type": "function"
    },
    {
      "constant": true,
      "inputs": [],
      "name": "pointContractAddress",
      "outputs": [
        {
          "internalType": "address",
          "name": "",
          "type": "address"
        }
      ],
      "payable": false,
      "stateMutability": "view",
      "type": "function"
    },
    {
      "constant": false,
      "inputs": [],
      "name": "renounceOwnership",
      "outputs": [],
      "payable": false,
      "stateMutability": "nonpayable",
      "type": "function"
    },
    {
      "constant": false,
      "inputs": [
        {
          "internalType": "address",
          "name": "newOwner",
          "type": "address"
        }
      ],
      "name": "transferOwnership",
      "outputs": [],
      "payable": false,
      "stateMutability": "nonpayable",
      "type": "function"
    },
    {
      "constant": true,
      "inputs": [
        {
          "internalType": "address",
          "name": "",
          "type": "address"
        },
        {
          "internalType": "uint256",
          "name": "",
          "type": "uint256"
        }
      ],
      "name": "usersToOffersId",
      "outputs": [
        {
          "internalType": "uint256",
          "name": "",
          "type": "uint256"
        }
      ],
      "payable": false,
      "stateMutability": "view",
      "type": "function"
    },
    {
      "constant": false,
      "inputs": [
        {
          "internalType": "uint256",
          "name": "itemId",
          "type": "uint256"
        },
        {
          "internalType": "uint256",
          "name": "price",
          "type": "uint256"
        }
      ],
      "name": "createOffer",
      "outputs": [],
      "payable": false,
      "stateMutability": "nonpayable",
      "type": "function"
    },
    {
      "constant": false,
      "inputs": [
        {
          "internalType": "uint256",
          "name": "offerId",
          "type": "uint256"
        }
      ],
      "name": "buyItem",
      "outputs": [],
      "payable": false,
      "stateMutability": "nonpayable",
      "type": "function"
    },
    {
      "constant": false,
      "inputs": [
        {
          "internalType": "address",
          "name": "newBitflixNFTContractAddress",
          "type": "address"
        }
      ],
      "name": "setBitflixNFTContractAddress",
      "outputs": [],
      "payable": false,
      "stateMutability": "nonpayable",
      "type": "function"
    },
    {
      "constant": false,
      "inputs": [
        {
          "internalType": "string",
          "name": "newpayCoinSymbol",
          "type": "string"
        },
        {
          "internalType": "address",
          "name": "newPayCoinContractAddress",
          "type": "address"
        }
      ],
      "name": "setPayCoinContractAddress",
      "outputs": [],
      "payable": false,
      "stateMutability": "nonpayable",
      "type": "function"
    },
    {
      "constant": false,
      "inputs": [
        {
          "internalType": "address",
          "name": "newPointContractAddress",
          "type": "address"
        }
      ],
      "name": "setPointContractAddress",
      "outputs": [],
      "payable": false,
      "stateMutability": "nonpayable",
      "type": "function"
    },
    {
      "constant": false,
      "inputs": [],
      "name": "openMarketplace",
      "outputs": [],
      "payable": false,
      "stateMutability": "nonpayable",
      "type": "function"
    },
    {
      "constant": false,
      "inputs": [],
      "name": "closeMarketplace",
      "outputs": [],
      "payable": false,
      "stateMutability": "nonpayable",
      "type": "function"
    },
    {
      "constant": false,
      "inputs": [],
      "name": "withdrawFunds",
      "outputs": [],
      "payable": false,
      "stateMutability": "nonpayable",
      "type": "function"
    },
    {
      "constant": false,
      "inputs": [],
      "name": "withdrawCoins",
      "outputs": [],
      "payable": false,
      "stateMutability": "nonpayable",
      "type": "function"
    },
    {
      "constant": true,
      "inputs": [],
      "name": "getOffersTotal",
      "outputs": [
        {
          "internalType": "uint256",
          "name": "",
          "type": "uint256"
        }
      ],
      "payable": false,
      "stateMutability": "view",
      "type": "function"
    },
    {
      "constant": true,
      "inputs": [
        {
          "internalType": "uint256",
          "name": "offerId",
          "type": "uint256"
        }
      ],
      "name": "getOffer",
      "outputs": [
        {
          "internalType": "uint256",
          "name": "itemId",
          "type": "uint256"
        },
        {
          "internalType": "uint256",
          "name": "price",
          "type": "uint256"
        },
        {
          "internalType": "address",
          "name": "seller",
          "type": "address"
        },
        {
          "internalType": "address",
          "name": "buyer",
          "type": "address"
        },
        {
          "internalType": "bool",
          "name": "isOpen",
          "type": "bool"
        }
      ],
      "payable": false,
      "stateMutability": "view",
      "type": "function"
    }
  ],
  "bytecode": "0x6080604052600180546001600160a01b0319908116909155600280549091169055600480546001600160a81b031916905560fa600555612710600655600061004e6001600160e01b0361009d16565b600080546001600160a01b0319166001600160a01b0383169081178255604051929350917f8be0079c531659141344cd1fd0a4f28419497f9722a3daafe3b4186f6b6457e0908290a3506100a1565b3390565b611d37806100b06000396000f3fe608060405234801561001057600080fd5b50600436106101585760003560e01c80638a72ea6a116100c3578063c8eedd9a1161007c578063c8eedd9a1461037e578063d8b049fe146103fb578063e45be8eb14610403578063e7fb74c71461040b578063f2fde38b14610428578063ffbb62a31461044e57610158565b80638a72ea6a1461031d5780638da5cb5b1461033a5780638f32d59b1461035e57806396d121b714610366578063ba735acb1461036e578063c5b49a731461037657610158565b806342bcb6911161011557806342bcb691146101ee5780634579268a14610267578063561ff200146102bb5780635b4ba43a146102e75780636a1669641461030d578063715018a61461031557610158565b80630a3d00791461015d578063163edd38146101775780631afed8751461018157806324600fc3146101a457806331fdbd24146101ac57806339869209146101c8575b600080fd5b610165610456565b60408051918252519081900360200190f35b61017f61045d565b005b61017f6004803603604081101561019757600080fd5b50803590602001356104b3565b61017f610860565b6101b46108ea565b604080519115158252519081900360200190f35b61017f600480360360208110156101de57600080fd5b50356001600160a01b03166108fa565b61017f6004803603604081101561020457600080fd5b81019060208101813564010000000081111561021f57600080fd5b82018360208201111561023157600080fd5b8035906020019184600183028401116401000000008311171561025357600080fd5b9193509150356001600160a01b03166109be565b6102846004803603602081101561027d57600080fd5b5035610a8d565b6040805195865260208601949094526001600160a01b03928316858501529116606084015215156080830152519081900360a00190f35b610165600480360360408110156102d157600080fd5b506001600160a01b038135169060200135610b74565b61017f600480360360208110156102fd57600080fd5b50356001600160a01b0316610ba2565b610165610c66565b61017f610c6c565b6102846004803603602081101561033357600080fd5b5035610cfd565b610342610d4d565b604080516001600160a01b039092168252519081900360200190f35b6101b4610d5c565b610342610d80565b610342610d8f565b61017f610d9e565b610386610ee5565b6040805160208082528351818301528351919283929083019185019080838360005b838110156103c05781810151838201526020016103a8565b50505050905090810190601f1680156103ed5780820380516001836020036101000a031916815260200191505b509250505060405180910390f35b610342610f73565b610165610f82565b61017f6004803603602081101561042157600080fd5b5035610f88565b61017f6004803603602081101561043e57600080fd5b50356001600160a01b031661180d565b61017f61185d565b6007545b90565b610465610d5c565b6104a4576040805162461bcd60e51b81526020600482018190526024820152600080516020611cc2833981519152604482015290519081900360640190fd5b6004805460ff60a01b19169055565b600454600160a01b900460ff16151560011461050e576040805162461bcd60e51b815260206004820152601560248201527413585c9ad95d1c1b1858d9481a5cc818db1bdcd959605a1b604482015290519081900360640190fd5b600154604080516331a9108f60e11b81526004810185905290516001600160a01b039092169133918391636352211e91602480820192602092909190829003018186803b15801561055e57600080fd5b505afa158015610572573d6000803e3d6000fd5b505050506040513d602081101561058857600080fd5b50516001600160a01b0316146105e5576040805162461bcd60e51b815260206004820152601d60248201527f53656e64657220646f6573206e6f74206f776e2074686973206974656d000000604482015290519081900360640190fd5b306001600160a01b0316816001600160a01b031663081812fc856040518263ffffffff1660e01b81526004018082815260200191505060206040518083038186803b15801561063357600080fd5b505afa158015610647573d6000803e3d6000fd5b505050506040513d602081101561065d57600080fd5b50516001600160a01b0316146106a45760405162461bcd60e51b815260040180806020018281038252602b815260200180611c76602b913960400191505060405180910390fd5b6006548210156106ee576040805162461bcd60e51b815260206004820152601060248201526f507269636520697320746f6f206c6f7760801b604482015290519081900360640190fd5b6040805160a081018252848152602080820185815233838501818152600060608601818152600160808801818152600780548084018255908552985160048a027fa66cc928b5edb82af9bd49922954155ab7b0942694bea4ce44661d9a8736c68881019190915596517fa66cc928b5edb82af9bd49922954155ab7b0942694bea4ce44661d9a8736c68988015593517fa66cc928b5edb82af9bd49922954155ab7b0942694bea4ce44661d9a8736c68a870180546001600160a01b039283166001600160a01b03199182161790915592517fa66cc928b5edb82af9bd49922954155ab7b0942694bea4ce44661d9a8736c68b909701805495511515600160a01b0260ff60a01b19989092169590931694909417959095169290921790915590815260088352848120805492830181558152829020018290558251828152925191927fc3e96d1275e81254d707531f5025b9b6d01f2bec370e5ff07979d37afbd3ee41929081900390910190a150505050565b610868610d5c565b6108a7576040805162461bcd60e51b81526020600482018190526024820152600080516020611cc2833981519152604482015290519081900360640190fd5b6108af610d4d565b6001600160a01b03166108fc479081150290604051600060405180830381858888f193505050501580156108e7573d6000803e3d6000fd5b50565b600454600160a01b900460ff1681565b610902610d5c565b610941576040805162461bcd60e51b81526020600482018190526024820152600080516020611cc2833981519152604482015290519081900360640190fd5b6001600160a01b03811661099c576040805162461bcd60e51b815260206004820152601f60248201527f436f6e747261637420616464726573732063616e6e6f74206265206e756c6c00604482015290519081900360640190fd5b600180546001600160a01b0319166001600160a01b0392909216919091179055565b6109c6610d5c565b610a05576040805162461bcd60e51b81526020600482018190526024820152600080516020611cc2833981519152604482015290519081900360640190fd5b6001600160a01b038116610a60576040805162461bcd60e51b815260206004820152601f60248201527f436f6e747261637420616464726573732063616e6e6f74206265206e756c6c00604482015290519081900360640190fd5b600480546001600160a01b0319166001600160a01b038316179055610a8760038484611b93565b50505050565b600080600080600060078681548110610aa257fe5b90600052602060002090600402016000015460078781548110610ac157fe5b90600052602060002090600402016001015460078881548110610ae057fe5b906000526020600020906004020160020160009054906101000a90046001600160a01b031660078981548110610b1257fe5b906000526020600020906004020160030160009054906101000a90046001600160a01b031660078a81548110610b4457fe5b6000918252602090912060049091020160030154939a9299509097509550600160a01b90910460ff169350915050565b60086020528160005260406000208181548110610b8d57fe5b90600052602060002001600091509150505481565b610baa610d5c565b610be9576040805162461bcd60e51b81526020600482018190526024820152600080516020611cc2833981519152604482015290519081900360640190fd5b6001600160a01b038116610c44576040805162461bcd60e51b815260206004820152601f60248201527f436f6e747261637420616464726573732063616e6e6f74206265206e756c6c00604482015290519081900360640190fd5b600280546001600160a01b0319166001600160a01b0392909216919091179055565b60055481565b610c74610d5c565b610cb3576040805162461bcd60e51b81526020600482018190526024820152600080516020611cc2833981519152604482015290519081900360640190fd5b600080546040516001600160a01b03909116907f8be0079c531659141344cd1fd0a4f28419497f9722a3daafe3b4186f6b6457e0908390a3600080546001600160a01b0319169055565b60078181548110610d0a57fe5b60009182526020909120600490910201805460018201546002830154600390930154919350916001600160a01b039081169190811690600160a01b900460ff1685565b6000546001600160a01b031690565b600080546001600160a01b0316610d716119b4565b6001600160a01b031614905090565b6004546001600160a01b031681565b6002546001600160a01b031681565b610da6610d5c565b610de5576040805162461bcd60e51b81526020600482018190526024820152600080516020611cc2833981519152604482015290519081900360640190fd5b6001546001600160a01b0316610e42576040805162461bcd60e51b815260206004820152601b60248201527f436f6e74726163742061646472657373206973206e6f74207365740000000000604482015290519081900360640190fd5b6004546001600160a01b0316610e895760405162461bcd60e51b8152600401808060200182810382526024815260200180611c526024913960400191505060405180910390fd5b6002546001600160a01b0316610ed05760405162461bcd60e51b8152600401808060200182810382526021815260200180611ce26021913960400191505060405180910390fd5b6004805460ff60a01b1916600160a01b179055565b6003805460408051602060026001851615610100026000190190941693909304601f81018490048402820184019092528181529291830182828015610f6b5780601f10610f4057610100808354040283529160200191610f6b565b820191906000526020600020905b815481529060010190602001808311610f4e57829003601f168201915b505050505081565b6001546001600160a01b031681565b60065481565b600454600160a01b900460ff161515600114610fe3576040805162461bcd60e51b815260206004820152601560248201527413585c9ad95d1c1b1858d9481a5cc818db1bdcd959605a1b604482015290519081900360640190fd5b600154600454600254600780546001600160a01b039485169493841693909216913091859163081812fc91908890811061101957fe5b9060005260206000209060040201600001546040518263ffffffff1660e01b81526004018082815260200191505060206040518083038186803b15801561105f57600080fd5b505afa158015611073573d6000803e3d6000fd5b505050506040513d602081101561108957600080fd5b50516001600160a01b0316146110d05760405162461bcd60e51b815260040180806020018281038252602b815260200180611c76602b913960400191505060405180910390fd5b60408051636eb1769f60e11b815233600482015230602482015290516000916001600160a01b0385169163dd62ed3e91604480820192602092909190829003018186803b15801561112057600080fd5b505afa158015611134573d6000803e3d6000fd5b505050506040513d602081101561114a57600080fd5b505160078054919250908690811061115e57fe5b9060005260206000209060040201600101548110156111c4576040805162461bcd60e51b815260206004820152601960248201527f436865636b2074686520746f6b656e20616c6c6f77616e636500000000000000604482015290519081900360640190fd5b604080516370a0823160e01b815233600482015290516000916001600160a01b038616916370a0823191602480820192602092909190829003018186803b15801561120e57600080fd5b505afa158015611222573d6000803e3d6000fd5b505050506040513d602081101561123857600080fd5b505160078054919250908790811061124c57fe5b9060005260206000209060040201600101548110156112b2576040805162461bcd60e51b815260206004820152601960248201527f436865636b2074686520746f6b656e2062616c616e63654f6600000000000000604482015290519081900360640190fd5b6000620f4240600788815481106112c557fe5b906000526020600020906004020160010154816112de57fe5b0490506000846001600160a01b031663836278f1336040518263ffffffff1660e01b815260040180826001600160a01b03166001600160a01b0316815260200191505060206040518083038186803b15801561133957600080fd5b505afa15801561134d573d6000803e3d6000fd5b505050506040513d602081101561136357600080fd5b50519050818110156113bc576040805162461bcd60e51b815260206004820152601960248201527f436865636b2074686520706f696e742062616c616e63654f6600000000000000604482015290519081900360640190fd5b600788815481106113c957fe5b906000526020600020906004020160030160149054906101000a900460ff1661142b576040805162461bcd60e51b815260206004820152600f60248201526e13d999995c881a5cc818db1bdcd959608a1b604482015290519081900360640190fd5b60006007898154811061143a57fe5b906000526020600020906004020160030160146101000a81548160ff021916908315150217905550336007898154811061147057fe5b906000526020600020906004020160030160006101000a8154816001600160a01b0302191690836001600160a01b03160217905550866001600160a01b03166342842e0e60078a815481106114c157fe5b906000526020600020906004020160020160009054906101000a90046001600160a01b031660078b815481106114f357fe5b906000526020600020906004020160030160009054906101000a90046001600160a01b031660078c8154811061152557fe5b9060005260206000209060040201600001546040518463ffffffff1660e01b815260040180846001600160a01b03166001600160a01b03168152602001836001600160a01b03166001600160a01b031681526020018281526020019350505050600060405180830381600087803b15801561159f57600080fd5b505af11580156115b3573d6000803e3d6000fd5b5050505060006064806115e660078c815481106115cc57fe5b9060005260206000209060040201600101546005546119b8565b816115ed57fe5b04816115f557fe5b049050600061162260078b8154811061160a57fe5b90600052602060002090600402016001015483611a1a565b9050876001600160a01b03166323b872dd333060078e8154811061164257fe5b9060005260206000209060040201600101546040518463ffffffff1660e01b815260040180846001600160a01b03166001600160a01b03168152602001836001600160a01b03166001600160a01b031681526020018281526020019350505050602060405180830381600087803b1580156116bc57600080fd5b505af11580156116d0573d6000803e3d6000fd5b505050506040513d60208110156116e657600080fd5b505060408051631125ae3960e11b81523360048201526024810186905290516001600160a01b0389169163224b5c7291604480830192600092919082900301818387803b15801561173657600080fd5b505af115801561174a573d6000803e3d6000fd5b50505050876001600160a01b03166323b872dd3060078d8154811061176b57fe5b60009182526020808320600492830201600201546040805160e088901b6001600160e01b03191681526001600160a01b0396871694810194909452941660248301526044820187905292516064808301949391928390030190829087803b1580156117d557600080fd5b505af11580156117e9573d6000803e3d6000fd5b505050506040513d60208110156117ff57600080fd5b505050505050505050505050565b611815610d5c565b611854576040805162461bcd60e51b81526020600482018190526024820152600080516020611cc2833981519152604482015290519081900360640190fd5b6108e781611a5c565b611865610d5c565b6118a4576040805162461bcd60e51b81526020600482018190526024820152600080516020611cc2833981519152604482015290519081900360640190fd5b60048054604080516370a0823160e01b81523093810193909352516001600160a01b039091169160009183916370a08231916024808301926020929190829003018186803b1580156118f557600080fd5b505afa158015611909573d6000803e3d6000fd5b505050506040513d602081101561191f57600080fd5b505190506001600160a01b03821663a9059cbb61193a610d4d565b836040518363ffffffff1660e01b815260040180836001600160a01b03166001600160a01b0316815260200182815260200192505050602060405180830381600087803b15801561198a57600080fd5b505af115801561199e573d6000803e3d6000fd5b505050506040513d6020811015610a8757600080fd5b3390565b6000826119c757506000611a14565b828202828482816119d457fe5b0414611a115760405162461bcd60e51b8152600401808060200182810382526021815260200180611ca16021913960400191505060405180910390fd5b90505b92915050565b6000611a1183836040518060400160405280601e81526020017f536166654d6174683a207375627472616374696f6e206f766572666c6f770000815250611afc565b6001600160a01b038116611aa15760405162461bcd60e51b8152600401808060200182810382526026815260200180611c2c6026913960400191505060405180910390fd5b600080546040516001600160a01b03808516939216917f8be0079c531659141344cd1fd0a4f28419497f9722a3daafe3b4186f6b6457e091a3600080546001600160a01b0319166001600160a01b0392909216919091179055565b60008184841115611b8b5760405162461bcd60e51b81526004018080602001828103825283818151815260200191508051906020019080838360005b83811015611b50578181015183820152602001611b38565b50505050905090810190601f168015611b7d5780820380516001836020036101000a031916815260200191505b509250505060405180910390fd5b505050900390565b828054600181600116156101000203166002900490600052602060002090601f016020900481019282601f10611bd45782800160ff19823516178555611c01565b82800160010185558215611c01579182015b82811115611c01578235825591602001919060010190611be6565b50611c0d929150611c11565b5090565b61045a91905b80821115611c0d5760008155600101611c1756fe4f776e61626c653a206e6577206f776e657220697320746865207a65726f206164647265737350617920436f696e20436f6e74726163742061646472657373206973206e6f7420736574576520646f206e6f74206861766520617070726f76616c20746f206d616e6167652074686973206974656d536166654d6174683a206d756c7469706c69636174696f6e206f766572666c6f774f776e61626c653a2063616c6c6572206973206e6f7420746865206f776e6572506f696e7420436f6e74726163742061646472657373206973206e6f7420736574a265627a7a72315820b0b4afc5df7bf4569e96699938c6c08317d0d68c6b67cf32ed5555e6f1a9086764736f6c63430005100032",
  "source": "pragma solidity ^0.5.2;\n\nimport \"openzeppelin-solidity/contracts/ownership/Ownable.sol\";\nimport \"openzeppelin-solidity/contracts/math/SafeMath.sol\";\nimport \"openzeppelin-solidity/contracts/token/ERC20/IERC20.sol\";\nimport \"./BitflixNFTInterface.sol\";\nimport \"./IBitflixPoint.sol\";\n\n\n/**\n * @title A small marketplace allowing users to buy and sell a specific ERC721 token\n * @dev For this example, we are using a fictional token called BitflixNFT\n * @author Pickle Solutions https://github.com/picklesolutions\n */\ncontract Marketplace is Ownable {\n  /* Our events */\n  event NewOffer(uint offerId);\n  event ItemBought(uint offerId);\n\n  /* The address of our ERC721 token contract */\n  address public bitfilxNFTContractAddress = address(0);\n\n  /* The address of our Point contract */\n  address public pointContractAddress = address(0);\n\n  /* The address of Pay erc20 token contract */\n  string public payCoinSymbol;\n  address public payCoinContractAddress = address(0);\n\n  /* If we need to freeze the marketplace for any reason */\n  bool public isMarketPlaceOpen = false;\n\n  /* Our fee (the value is divided by 100, so 250 is 2.50%) */\n  uint public marketplaceFee = 250;\n\n  /* The minimum sale price (in Wei) */\n  uint public minPrice = 10000;\n\n  /* The structure of our offers */\n  struct Offer {\n    uint itemId;\n    uint price;\n    address payable seller;\n    address payable buyer;\n    bool isOpen;\n  }\n\n  /* All the offers are stored here */\n  Offer[] public offers;\n\n  /* We keep track of every offers for every users */\n  mapping (address => uint[]) public usersToOffersId;\n\n  /**\n   * @dev Puts an item on the marketplace\n   * @param itemId The id of the item\n   * @param price The price expected by the seller\n   */\n  function createOffer(\n    uint itemId,\n    uint price\n  ) external whenMarketIsOpen() {\n    /* Let's talk to our token contract */\n    BitflixNFTInterface bitfilxNFT = BitflixNFTInterface(bitfilxNFTContractAddress);\n\n    /* We need to be sure that the sender is the actual owner of the token */\n    require(\n      bitfilxNFT.ownerOf(itemId) == msg.sender,\n      \"Sender does not own this item\"\n    );\n\n    /* Are we approved to manage this item? */\n    require(\n      bitfilxNFT.getApproved(itemId) == address(this),\n      \"We do not have approval to manage this item\"\n    );\n\n    /* Is the selling price abovee the minimum price? */\n    require(price >= minPrice, \"Price is too low\");\n\n    /* We push the offer into our array */\n    uint offerId = offers.push(\n      Offer({\n        itemId: itemId,\n        price: price,\n        seller: msg.sender,\n        buyer: address(0),\n        isOpen: true\n      })\n    ) - 1;\n\n    /* We keep track of offers from users */\n    usersToOffersId[msg.sender].push(offerId);\n\n    /* We tell the world there is a new offer */\n    emit NewOffer(offerId);\n  }\n\n  /**\n   * @dev Buys an item\n   * @param offerId The id of the offer\n   */\n  function buyItem(\n    uint offerId\n  ) external whenMarketIsOpen() {\n    /* Let's talk to our token contract */\n    BitflixNFTInterface bitfilxNFT = BitflixNFTInterface(bitfilxNFTContractAddress);\n\n    IERC20 payCoin = IERC20(payCoinContractAddress);\n\n    IBitflixPoint pointContract = IBitflixPoint(pointContractAddress);\n\n    /* Are we still able to manage this item? */\n    require(\n      bitfilxNFT.getApproved(offers[offerId].itemId) == address(this),\n      \"We do not have approval to manage this item\"\n    );\n\n    /* Did the buyer send enough funds? */\n    uint256 allowance = payCoin.allowance(msg.sender, address(this));\n    require(allowance >= offers[offerId].price, \"Check the token allowance\");\n\n    uint256 coin_balance = payCoin.balanceOf(msg.sender);\n    require(coin_balance >= offers[offerId].price, \"Check the token balanceOf\");\n\n    /* Did the buyer enough point? */\n    uint256 pointLimit = offers[offerId].price / 1e6;\n    uint256 point_balance = pointContract.pointOf(msg.sender);\n    require(point_balance >= pointLimit, \"Check the point balanceOf\");\n\n    /* Is the offer still open? */\n    require(offers[offerId].isOpen, \"Offer is closed\");\n\n    /* We close the offer and register the buyer */\n    offers[offerId].isOpen = false;\n    offers[offerId].buyer = msg.sender;\n\n    /* We transfer the item from the seller to the buyer */\n    bitfilxNFT.safeTransferFrom(\n      offers[offerId].seller,\n      offers[offerId].buyer,\n      offers[offerId].itemId\n    );\n\n    /* This is our fee */\n    uint txFee = SafeMath.mul(\n      offers[offerId].price,\n      marketplaceFee\n    ) / 100 / 100;\n\n    /* This is the profit made by the seller */\n    uint profit = SafeMath.sub(\n      offers[offerId].price,\n      txFee\n    );\n\n    /* buyer pay coin */\n    payCoin.transferFrom(msg.sender, address(this), offers[offerId].price);\n\n    /* consume point */\n    pointContract.consume(msg.sender, pointLimit);\n\n    /* We give the seller his money */\n    payCoin.transferFrom(address(this), address(offers[offerId].seller), profit);\n  }\n\n  /**\n   * @dev Sets the address of our ERC721 token contract\n   * @param newBitflixNFTContractAddress The address of the contract\n   */\n  function setBitflixNFTContractAddress(\n    address newBitflixNFTContractAddress\n  ) external onlyOwner() {\n    /* The address cannot be null */\n    require(newBitflixNFTContractAddress != address(0), \"Contract address cannot be null\");\n\n    /* We set the address */\n    bitfilxNFTContractAddress = newBitflixNFTContractAddress;\n  }\n\n  /**\n   * @dev Sets the address of Pay erc20 token contract\n   * @param newPayCoinContractAddress The address of the contract\n   */\n  function setPayCoinContractAddress(\n    string calldata newpayCoinSymbol,\n    address newPayCoinContractAddress\n  ) external onlyOwner() {\n    /* The address cannot be null */\n    require(newPayCoinContractAddress != address(0), \"Contract address cannot be null\");\n\n    /* We set the address */\n    payCoinContractAddress = newPayCoinContractAddress;\n    payCoinSymbol = newpayCoinSymbol;\n  }\n\n  /**\n   * @dev Sets the address of Point contract\n   * @param newPointContractAddress The address of the contract\n   */\n  function setPointContractAddress(\n    address newPointContractAddress\n  ) external onlyOwner() {\n    /* The address cannot be null */\n    require(newPointContractAddress != address(0), \"Contract address cannot be null\");\n\n    /* We set the address */\n    pointContractAddress = newPointContractAddress;\n  }\n\n  /**\n   * @dev Opens the market if the contract address is correct\n   */\n  function openMarketplace() external onlyOwner() {\n    require(bitfilxNFTContractAddress != address(0), \"Contract address is not set\");\n    require(payCoinContractAddress != address(0), \"Pay Coin Contract address is not set\");\n    require(pointContractAddress != address(0), \"Point Contract address is not set\");\n\n    isMarketPlaceOpen = true;\n  }\n\n  /**\n   * @dev Closes the market\n   */\n  function closeMarketplace() external onlyOwner() {\n    isMarketPlaceOpen = false;\n  }\n\n  /**\n   * @dev Lets the owner withdraw his funds\n   */\n  function withdrawFunds() external onlyOwner() {\n    address(uint160(owner())).transfer(address(this).balance);\n  }\n\n  /**\n   * @dev Lets the owner withdraw his coins\n   */\n  function withdrawCoins() external onlyOwner() {\n    IERC20 payCoin = IERC20(payCoinContractAddress);\n    uint256 coin_balance = payCoin.balanceOf(address(this));\n    payCoin.transfer(address(uint160(owner())), coin_balance);\n  }\n\n  /**\n   * @dev Returns the offers\n   */\n  function getOffersTotal() external view returns (uint) {\n    return offers.length;\n  }\n\n  /**\n   * @dev Gets an offer\n   * @param offerId The id of the offer\n   * @return All the infos about the offer\n   */\n  function getOffer(uint offerId) external view returns (\n    uint itemId,\n    uint price,\n    address seller,\n    address buyer,\n    bool isOpen\n  ) {\n    return (\n      offers[offerId].itemId,\n      offers[offerId].price,\n      offers[offerId].seller,\n      offers[offerId].buyer,\n      offers[offerId].isOpen\n    );\n  }\n\n  /**\n   * @dev Some functions can only be called when the market is open\n   */\n  modifier whenMarketIsOpen() {\n    require(isMarketPlaceOpen == true, \"Marketplace is closed\");\n    _;\n  }\n}\n",
  "sourcePath": "/Users/tuminfei/Code/Nodejs/bitfilx-nft-marketplace/contracts/core/Marketplace.sol",
  "compiler": {
    "name": "solc",
    "version": "0.5.16+commit.9c3226ce.Emscripten.clang"
  },
  "schemaVersion": "3.3.0",
  "updatedAt": "2021-06-25T02:28:59.553Z",
  "networkType": "ethereum",
  "devdoc": {
    "author": "Pickle Solutions https://github.com/picklesolutions",
    "details": "For this example, we are using a fictional token called BitflixNFT",
    "methods": {
      "buyItem(uint256)": {
        "details": "Buys an item",
        "params": {
          "offerId": "The id of the offer"
        }
      },
      "closeMarketplace()": {
        "details": "Closes the market"
      },
      "createOffer(uint256,uint256)": {
        "details": "Puts an item on the marketplace",
        "params": {
          "itemId": "The id of the item",
          "price": "The price expected by the seller"
        }
      },
      "getOffer(uint256)": {
        "details": "Gets an offer",
        "params": {
          "offerId": "The id of the offer"
        },
        "return": "All the infos about the offer"
      },
      "getOffersTotal()": {
        "details": "Returns the offers"
      },
      "isOwner()": {
        "details": "Returns true if the caller is the current owner."
      },
      "openMarketplace()": {
        "details": "Opens the market if the contract address is correct"
      },
      "owner()": {
        "details": "Returns the address of the current owner."
      },
      "renounceOwnership()": {
        "details": "Leaves the contract without owner. It will not be possible to call `onlyOwner` functions anymore. Can only be called by the current owner.     * NOTE: Renouncing ownership will leave the contract without an owner, thereby removing any functionality that is only available to the owner."
      },
      "setBitflixNFTContractAddress(address)": {
        "details": "Sets the address of our ERC721 token contract",
        "params": {
          "newBitflixNFTContractAddress": "The address of the contract"
        }
      },
      "setPayCoinContractAddress(string,address)": {
        "details": "Sets the address of Pay erc20 token contract",
        "params": {
          "newPayCoinContractAddress": "The address of the contract"
        }
      },
      "setPointContractAddress(address)": {
        "details": "Sets the address of Point contract",
        "params": {
          "newPointContractAddress": "The address of the contract"
        }
      },
      "transferOwnership(address)": {
        "details": "Transfers ownership of the contract to a new account (`newOwner`). Can only be called by the current owner."
      },
      "withdrawCoins()": {
        "details": "Lets the owner withdraw his coins"
      },
      "withdrawFunds()": {
        "details": "Lets the owner withdraw his funds"
      }
    },
    "title": "A small marketplace allowing users to buy and sell a specific ERC721 token"
  },
  "userdoc": {
    "methods": {}
  }
}