{
  "contractName": "BitflixPoints",
  "abi": [
    {
      "inputs": [
        {
          "internalType": "address",
          "name": "btflx_",
          "type": "address"
        }
      ],
      "payable": false,
      "stateMutability": "nonpayable",
      "type": "constructor"
    },
    {
      "anonymous": false,
      "inputs": [
        {
          "indexed": false,
          "internalType": "address",
          "name": "user",
          "type": "address"
        },
        {
          "indexed": false,
          "internalType": "uint256",
          "name": "amount",
          "type": "uint256"
        },
        {
          "indexed": false,
          "internalType": "uint256",
          "name": "at",
          "type": "uint256"
        }
      ],
      "name": "Consume",
      "type": "event"
    },
    {
      "anonymous": false,
      "inputs": [
        {
          "indexed": false,
          "internalType": "address",
          "name": "user",
          "type": "address"
        },
        {
          "indexed": false,
          "internalType": "uint256",
          "name": "amount",
          "type": "uint256"
        },
        {
          "indexed": false,
          "internalType": "uint256",
          "name": "at",
          "type": "uint256"
        },
        {
          "indexed": false,
          "internalType": "uint256",
          "name": "id",
          "type": "uint256"
        }
      ],
      "name": "Lock",
      "type": "event"
    },
    {
      "anonymous": false,
      "inputs": [
        {
          "indexed": false,
          "internalType": "address",
          "name": "user",
          "type": "address"
        },
        {
          "indexed": false,
          "internalType": "uint256",
          "name": "amount",
          "type": "uint256"
        },
        {
          "indexed": false,
          "internalType": "uint256",
          "name": "at",
          "type": "uint256"
        },
        {
          "indexed": false,
          "internalType": "uint256",
          "name": "id",
          "type": "uint256"
        }
      ],
      "name": "Redeem",
      "type": "event"
    },
    {
      "constant": true,
      "inputs": [],
      "name": "btflx",
      "outputs": [
        {
          "internalType": "contract IERC20",
          "name": "",
          "type": "address"
        }
      ],
      "payable": false,
      "stateMutability": "view",
      "type": "function"
    },
    {
      "constant": true,
      "inputs": [],
      "name": "initialized",
      "outputs": [
        {
          "internalType": "bool",
          "name": "",
          "type": "bool"
        }
      ],
      "payable": false,
      "stateMutability": "view",
      "type": "function"
    },
    {
      "constant": true,
      "inputs": [],
      "name": "lockDuration",
      "outputs": [
        {
          "internalType": "uint256",
          "name": "",
          "type": "uint256"
        }
      ],
      "payable": false,
      "stateMutability": "view",
      "type": "function"
    },
    {
      "constant": true,
      "inputs": [],
      "name": "lockRate",
      "outputs": [
        {
          "internalType": "uint256",
          "name": "",
          "type": "uint256"
        }
      ],
      "payable": false,
      "stateMutability": "view",
      "type": "function"
    },
    {
      "constant": true,
      "inputs": [],
      "name": "lockRateMax",
      "outputs": [
        {
          "internalType": "uint256",
          "name": "",
          "type": "uint256"
        }
      ],
      "payable": false,
      "stateMutability": "view",
      "type": "function"
    },
    {
      "constant": true,
      "inputs": [
        {
          "internalType": "uint256",
          "name": "",
          "type": "uint256"
        }
      ],
      "name": "locks",
      "outputs": [
        {
          "internalType": "uint256",
          "name": "id",
          "type": "uint256"
        },
        {
          "internalType": "address",
          "name": "user",
          "type": "address"
        },
        {
          "internalType": "uint256",
          "name": "amount",
          "type": "uint256"
        },
        {
          "internalType": "uint256",
          "name": "duration",
          "type": "uint256"
        },
        {
          "internalType": "uint256",
          "name": "startTime",
          "type": "uint256"
        },
        {
          "internalType": "bool",
          "name": "redeemed",
          "type": "bool"
        }
      ],
      "payable": false,
      "stateMutability": "view",
      "type": "function"
    },
    {
      "constant": true,
      "inputs": [],
      "name": "marketplace",
      "outputs": [
        {
          "internalType": "address",
          "name": "",
          "type": "address"
        }
      ],
      "payable": false,
      "stateMutability": "view",
      "type": "function"
    },
    {
      "constant": true,
      "inputs": [
        {
          "internalType": "address",
          "name": "",
          "type": "address"
        }
      ],
      "name": "points",
      "outputs": [
        {
          "internalType": "uint256",
          "name": "",
          "type": "uint256"
        }
      ],
      "payable": false,
      "stateMutability": "view",
      "type": "function"
    },
    {
      "constant": true,
      "inputs": [
        {
          "internalType": "address",
          "name": "",
          "type": "address"
        },
        {
          "internalType": "uint256",
          "name": "",
          "type": "uint256"
        }
      ],
      "name": "userLockIds",
      "outputs": [
        {
          "internalType": "uint256",
          "name": "",
          "type": "uint256"
        }
      ],
      "payable": false,
      "stateMutability": "view",
      "type": "function"
    },
    {
      "constant": false,
      "inputs": [
        {
          "internalType": "uint256",
          "name": "lockRate_",
          "type": "uint256"
        },
        {
          "internalType": "uint256",
          "name": "lockDuration_",
          "type": "uint256"
        },
        {
          "internalType": "address",
          "name": "marketplace_",
          "type": "address"
        }
      ],
      "name": "initialize",
      "outputs": [],
      "payable": false,
      "stateMutability": "nonpayable",
      "type": "function"
    },
    {
      "constant": false,
      "inputs": [
        {
          "internalType": "uint256",
          "name": "amount",
          "type": "uint256"
        }
      ],
      "name": "lock",
      "outputs": [],
      "payable": false,
      "stateMutability": "nonpayable",
      "type": "function"
    },
    {
      "constant": true,
      "inputs": [],
      "name": "lockLength",
      "outputs": [
        {
          "internalType": "uint256",
          "name": "",
          "type": "uint256"
        }
      ],
      "payable": false,
      "stateMutability": "view",
      "type": "function"
    },
    {
      "constant": false,
      "inputs": [
        {
          "internalType": "uint256",
          "name": "id",
          "type": "uint256"
        }
      ],
      "name": "redeem",
      "outputs": [],
      "payable": false,
      "stateMutability": "nonpayable",
      "type": "function"
    },
    {
      "constant": false,
      "inputs": [
        {
          "internalType": "uint256",
          "name": "val",
          "type": "uint256"
        }
      ],
      "name": "consume",
      "outputs": [],
      "payable": false,
      "stateMutability": "nonpayable",
      "type": "function"
    }
  ],
  "bytecode": "0x60806040526003805460ff1916905561271060065534801561002057600080fd5b50604051610cb1380380610cb18339818101604052602081101561004357600080fd5b5051600880546001600160a01b0319166001600160a01b03909216919091179055610c3e806100736000396000f3fe608060405234801561001057600080fd5b50600436106100ea5760003560e01c80635b8744051161008c578063db006a7511610066578063db006a75146101e0578063dd467064146101fd578063f4dadc611461021a578063ff66987914610274576100ea565b80635b8744051461019e578063a6ab36f2146101a6578063abc8c7af146101d8576100ea565b8063358041a1116100c8578063358041a11461012d578063358b816614610135578063483f31ab1461015b5780635348d2101461017a576100ea565b806304554443146100ef578063158ef93e14610109578063234ea19c14610125575b600080fd5b6100f76102a0565b60408051918252519081900360200190f35b6101116102a6565b604080519115158252519081900360200190f35b6100f76102af565b6100f76102b5565b6100f76004803603602081101561014b57600080fd5b50356001600160a01b03166102bb565b6101786004803603602081101561017157600080fd5b50356102cd565b005b6101826103cf565b604080516001600160a01b039092168252519081900360200190f35b6100f76103de565b610178600480360360608110156101bc57600080fd5b50803590602081013590604001356001600160a01b03166103e4565b610182610461565b610178600480360360208110156101f657600080fd5b5035610470565b6101786004803603602081101561021357600080fd5b503561062a565b6102376004803603602081101561023057600080fd5b503561092e565b604080519687526001600160a01b0390951660208701528585019390935260608501919091526080840152151560a0830152519081900360c00190f35b6100f76004803603604081101561028a57600080fd5b506001600160a01b03813516906020013561097e565b60055481565b60035460ff1681565b60045481565b60065481565b60006020819052908152604090205481565b6007546001600160a01b03163314610318576040805162461bcd60e51b81526020600482015260096024820152682337b93134b23232b760b91b604482015290519081900360640190fd5b6000811161035b576040805162461bcd60e51b815260206004820152600b60248201526a043616e6e6f7420626520360ac1b604482015290519081900360640190fd5b3360009081526020819052604090205461037b908263ffffffff6109ac16565b3360008181526020818152604091829020939093558051918252918101839052428183015290517f417d7c0b2e18835d59e6a21c79283cbc698f86c956ac07004709f37b6b4f73d29181900360600190a150565b6008546001600160a01b031681565b60015490565b60035460ff161561042a576040805162461bcd60e51b815260206004820152600b60248201526a125b9a5d1a585b1a5e995960aa1b604482015290519081900360640190fd5b600492909255600555600780546001600160a01b0319166001600160a01b039092169190911790556003805460ff19166001179055565b6007546001600160a01b031681565b60006001828154811061047f57fe5b60009182526020909120600690910201600581015490915060ff16156104d7576040805162461bcd60e51b815260206004820152600860248201526714995919595b595960c21b604482015290519081900360640190fd5b426104f3826004015483600301546109f790919063ffffffff16565b1115610530576040805162461bcd60e51b81526020600482015260076024820152664c6f636b696e6760c81b604482015290519081900360640190fd5b600854600182015460028301546040805163a9059cbb60e01b81526001600160a01b039384166004820152602481019290925251919092169163a9059cbb9160448083019260209291908290030181600087803b15801561059057600080fd5b505af11580156105a4573d6000803e3d6000fd5b505050506040513d60208110156105ba57600080fd5b505060058101805460ff1916600190811790915581015460028201548254604080516001600160a01b039094168452602084019290925242838301526060830152517fbd5034ffbd47e4e72a94baa2cdb74c6fad73cb3bcdc13036b72ec8306f5a76469181900360800190a15050565b6000811161067f576040805162461bcd60e51b815260206004820152601760248201527f4c6f636b20616d6f756e742063616e6e6f742062652030000000000000000000604482015290519081900360640190fd5b600854604080516323b872dd60e01b81523360048201523060248201526044810184905290516001600160a01b03909216916323b872dd916064808201926020929091908290030181600087803b1580156106d957600080fd5b505af11580156106ed573d6000803e3d6000fd5b505050506040513d602081101561070357600080fd5b50506040805160c08101825260018054808352336020808501828152858701888152600554606088019081524260808901908152600060a08a01818152888a018a5589825299517fb10e2d527612073b26eecdfd717e6a320cf44b4afac2b0732d9fcbe2b7fa0cf66006998a029081019190915594517fb10e2d527612073b26eecdfd717e6a320cf44b4afac2b0732d9fcbe2b7fa0cf7860180546001600160a01b0319166001600160a01b0390921691909117905592517fb10e2d527612073b26eecdfd717e6a320cf44b4afac2b0732d9fcbe2b7fa0cf885015590517fb10e2d527612073b26eecdfd717e6a320cf44b4afac2b0732d9fcbe2b7fa0cf9840155517fb10e2d527612073b26eecdfd717e6a320cf44b4afac2b0732d9fcbe2b7fa0cfa83015595517fb10e2d527612073b26eecdfd717e6a320cf44b4afac2b0732d9fcbe2b7fa0cfb909101805460ff19169115159190911790559084526002815293832082548154938401825590845293832060001994909401939091019290925590546004546108a8919061089c908590610a51565b9063ffffffff610aaa16565b336000908152602081905260409020549091506108cb908263ffffffff6109f716565b33600081815260208181526040918290209390935560015481519283529282018590524282820152600019909201606082015290517f0e31f07bae79135368ff475cf6c7f6abb31e0fd731e03c18ad425bd9406cf0c09181900360800190a15050565b6001818154811061093b57fe5b60009182526020909120600690910201805460018201546002830154600384015460048501546005909501549395506001600160a01b0390921693909260ff1686565b6002602052816000526040600020818154811061099757fe5b90600052602060002001600091509150505481565b60006109ee83836040518060400160405280601e81526020017f536166654d6174683a207375627472616374696f6e206f766572666c6f770000815250610aec565b90505b92915050565b6000828201838110156109ee576040805162461bcd60e51b815260206004820152601b60248201527f536166654d6174683a206164646974696f6e206f766572666c6f770000000000604482015290519081900360640190fd5b600082610a60575060006109f1565b82820282848281610a6d57fe5b04146109ee5760405162461bcd60e51b8152600401808060200182810382526021815260200180610be96021913960400191505060405180910390fd5b60006109ee83836040518060400160405280601a81526020017f536166654d6174683a206469766973696f6e206279207a65726f000000000000815250610b83565b60008184841115610b7b5760405162461bcd60e51b81526004018080602001828103825283818151815260200191508051906020019080838360005b83811015610b40578181015183820152602001610b28565b50505050905090810190601f168015610b6d5780820380516001836020036101000a031916815260200191505b509250505060405180910390fd5b505050900390565b60008183610bd25760405162461bcd60e51b8152602060048201818152835160248401528351909283926044909101919085019080838360008315610b40578181015183820152602001610b28565b506000838581610bde57fe5b049594505050505056fe536166654d6174683a206d756c7469706c69636174696f6e206f766572666c6f77a265627a7a72315820911df3acaf52ae8e026ded5aa5decf603684f1fb6ba9addecae89e0a43bd60ab64736f6c63430005100032",
  "source": "pragma solidity ^0.5.2;\n\nimport \"openzeppelin-solidity/contracts/ownership/Ownable.sol\";\nimport \"openzeppelin-solidity/contracts/math/SafeMath.sol\";\nimport \"openzeppelin-solidity/contracts/token/ERC20/IERC20.sol\";\n\n\ncontract BitflixPoints {\n\tusing SafeMath for uint256;\n\tmapping (address => uint256) public points;\n\n\tstruct UserLock {\n\t\tuint256 id;\n\t\taddress user;\n\t\tuint256 amount;\n\t\tuint256 duration;\n\t\tuint256 startTime;\n\t\tbool redeemed;\n\t}\n\n\tUserLock[] public locks;\n\n\tmapping (address => uint256[]) public userLockIds;\n\n\t\n\tbool public initialized = false;\n\tuint256 public lockRate;\n\tuint256 public lockDuration;\n\tuint256 public lockRateMax = 10000;\n\taddress public marketplace;\n\n\tIERC20 public btflx;\n\n\tevent Lock(address user, uint256 amount, uint256 at, uint256 id);\n\tevent Redeem(address user, uint256 amount, uint256 at, uint256 id);\n\tevent Consume(address user, uint256 amount, uint256 at);\n\n\tmodifier onlyMarketplace() { \n\t\trequire (msg.sender == marketplace, \"Forbidden\"); \n\t\t_; \n\t}\n\t\n\n\tconstructor(address btflx_) public {\n\t\tbtflx = IERC20(btflx_);\n\t}\n\n\tfunction initialize(uint256 lockRate_, uint256 lockDuration_, address marketplace_) public {\n\t\trequire(!initialized, \"Initialized\");\n\t\tlockRate = lockRate_;\n\t\tlockDuration = lockDuration_;\n\t\tmarketplace = marketplace_;\n\t\tinitialized = true;\n\t}\n\n\tfunction lock(uint256 amount) public {\n\t\trequire(amount > 0, \"Lock amount cannot be 0\");\n\t\tbtflx.transferFrom(msg.sender, address(this), amount);\n\t\tlocks.push(UserLock({\n\t\t\tid: locks.length,\n\t\t\tuser: msg.sender,\n\t\t\tamount: amount,\n\t\t\tduration: lockDuration,\n\t\t\tstartTime: now,\n\t\t\tredeemed: false\n\t\t}));\n\t\tuserLockIds[msg.sender].push(locks.length - 1);\n\n\t\tuint256 point = amount.mul(lockRate).div(lockRateMax);\n\t\tpoints[msg.sender] = points[msg.sender].add(point);\n\n\t\temit Lock(msg.sender, amount, now, locks.length - 1);\n\t}\n\n\tfunction lockLength() public view returns(uint256) {\n\t\treturn locks.length;\n\t}\n\n\tfunction redeem(uint256 id) public {\n\t\tUserLock storage lock = locks[id];\n\t\trequire(!lock.redeemed, \"Redeemed\");\n\t\trequire(lock.duration.add(lock.startTime) <= now, \"Locking\");\n\t\tbtflx.transfer(lock.user, lock.amount);\n\t\tlock.redeemed = true;\n\t\temit Redeem(lock.user, lock.amount, now, lock.id);\n\t}\n\n\tfunction consume(uint256 val) public onlyMarketplace {\n\t\trequire(val > 0, \"Cannot be 0\");\n\t\tpoints[msg.sender] = points[msg.sender].sub(val);\n\t\temit Consume(msg.sender, val, now);\n\t}\n}",
  "sourcePath": "/Users/yxf/app/bitflix-nft-marketplace/contracts/core/BitflixPoints.sol",
  "compiler": {
    "name": "solc",
    "version": "0.5.16+commit.9c3226ce.Emscripten.clang"
  },
  "schemaVersion": "3.2.3",
  "updatedAt": "2021-06-16T03:55:40.040Z",
  "devdoc": {
    "methods": {}
  },
  "userdoc": {
    "methods": {}
  }
}