{
  "contractName": "BitflixNFT",
  "abi": [
    {
      "inputs": [],
      "payable": false,
      "stateMutability": "nonpayable",
      "type": "constructor"
    },
    {
      "anonymous": false,
      "inputs": [
        {
          "indexed": true,
          "internalType": "address",
          "name": "owner",
          "type": "address"
        },
        {
          "indexed": true,
          "internalType": "address",
          "name": "approved",
          "type": "address"
        },
        {
          "indexed": true,
          "internalType": "uint256",
          "name": "tokenId",
          "type": "uint256"
        }
      ],
      "name": "Approval",
      "type": "event"
    },
    {
      "anonymous": false,
      "inputs": [
        {
          "indexed": true,
          "internalType": "address",
          "name": "owner",
          "type": "address"
        },
        {
          "indexed": true,
          "internalType": "address",
          "name": "operator",
          "type": "address"
        },
        {
          "indexed": false,
          "internalType": "bool",
          "name": "approved",
          "type": "bool"
        }
      ],
      "name": "ApprovalForAll",
      "type": "event"
    },
    {
      "anonymous": false,
      "inputs": [
        {
          "indexed": true,
          "internalType": "address",
          "name": "from",
          "type": "address"
        },
        {
          "indexed": true,
          "internalType": "address",
          "name": "to",
          "type": "address"
        },
        {
          "indexed": true,
          "internalType": "uint256",
          "name": "tokenId",
          "type": "uint256"
        }
      ],
      "name": "Transfer",
      "type": "event"
    },
    {
      "anonymous": false,
      "inputs": [
        {
          "indexed": true,
          "internalType": "address",
          "name": "account",
          "type": "address"
        }
      ],
      "name": "WhitelistAdminAdded",
      "type": "event"
    },
    {
      "anonymous": false,
      "inputs": [
        {
          "indexed": true,
          "internalType": "address",
          "name": "account",
          "type": "address"
        }
      ],
      "name": "WhitelistAdminRemoved",
      "type": "event"
    },
    {
      "anonymous": false,
      "inputs": [
        {
          "indexed": true,
          "internalType": "address",
          "name": "account",
          "type": "address"
        }
      ],
      "name": "WhitelistedAdded",
      "type": "event"
    },
    {
      "anonymous": false,
      "inputs": [
        {
          "indexed": true,
          "internalType": "address",
          "name": "account",
          "type": "address"
        }
      ],
      "name": "WhitelistedRemoved",
      "type": "event"
    },
    {
      "constant": false,
      "inputs": [
        {
          "internalType": "address",
          "name": "account",
          "type": "address"
        }
      ],
      "name": "addWhitelistAdmin",
      "outputs": [],
      "payable": false,
      "stateMutability": "nonpayable",
      "type": "function"
    },
    {
      "constant": false,
      "inputs": [
        {
          "internalType": "address",
          "name": "account",
          "type": "address"
        }
      ],
      "name": "addWhitelisted",
      "outputs": [],
      "payable": false,
      "stateMutability": "nonpayable",
      "type": "function"
    },
    {
      "constant": false,
      "inputs": [
        {
          "internalType": "address",
          "name": "to",
          "type": "address"
        },
        {
          "internalType": "uint256",
          "name": "tokenId",
          "type": "uint256"
        }
      ],
      "name": "approve",
      "outputs": [],
      "payable": false,
      "stateMutability": "nonpayable",
      "type": "function"
    },
    {
      "constant": true,
      "inputs": [
        {
          "internalType": "address",
          "name": "owner",
          "type": "address"
        }
      ],
      "name": "balanceOf",
      "outputs": [
        {
          "internalType": "uint256",
          "name": "",
          "type": "uint256"
        }
      ],
      "payable": false,
      "stateMutability": "view",
      "type": "function"
    },
    {
      "constant": true,
      "inputs": [],
      "name": "baseURI",
      "outputs": [
        {
          "internalType": "string",
          "name": "",
          "type": "string"
        }
      ],
      "payable": false,
      "stateMutability": "view",
      "type": "function"
    },
    {
      "constant": true,
      "inputs": [
        {
          "internalType": "uint256",
          "name": "tokenId",
          "type": "uint256"
        }
      ],
      "name": "getApproved",
      "outputs": [
        {
          "internalType": "address",
          "name": "",
          "type": "address"
        }
      ],
      "payable": false,
      "stateMutability": "view",
      "type": "function"
    },
    {
      "constant": true,
      "inputs": [
        {
          "internalType": "address",
          "name": "owner",
          "type": "address"
        },
        {
          "internalType": "address",
          "name": "operator",
          "type": "address"
        }
      ],
      "name": "isApprovedForAll",
      "outputs": [
        {
          "internalType": "bool",
          "name": "",
          "type": "bool"
        }
      ],
      "payable": false,
      "stateMutability": "view",
      "type": "function"
    },
    {
      "constant": true,
      "inputs": [
        {
          "internalType": "address",
          "name": "account",
          "type": "address"
        }
      ],
      "name": "isWhitelistAdmin",
      "outputs": [
        {
          "internalType": "bool",
          "name": "",
          "type": "bool"
        }
      ],
      "payable": false,
      "stateMutability": "view",
      "type": "function"
    },
    {
      "constant": true,
      "inputs": [
        {
          "internalType": "address",
          "name": "account",
          "type": "address"
        }
      ],
      "name": "isWhitelisted",
      "outputs": [
        {
          "internalType": "bool",
          "name": "",
          "type": "bool"
        }
      ],
      "payable": false,
      "stateMutability": "view",
      "type": "function"
    },
    {
      "constant": true,
      "inputs": [],
      "name": "name",
      "outputs": [
        {
          "internalType": "string",
          "name": "",
          "type": "string"
        }
      ],
      "payable": false,
      "stateMutability": "view",
      "type": "function"
    },
    {
      "constant": true,
      "inputs": [
        {
          "internalType": "uint256",
          "name": "tokenId",
          "type": "uint256"
        }
      ],
      "name": "ownerOf",
      "outputs": [
        {
          "internalType": "address",
          "name": "",
          "type": "address"
        }
      ],
      "payable": false,
      "stateMutability": "view",
      "type": "function"
    },
    {
      "constant": false,
      "inputs": [
        {
          "internalType": "address",
          "name": "account",
          "type": "address"
        }
      ],
      "name": "removeWhitelisted",
      "outputs": [],
      "payable": false,
      "stateMutability": "nonpayable",
      "type": "function"
    },
    {
      "constant": false,
      "inputs": [],
      "name": "renounceWhitelistAdmin",
      "outputs": [],
      "payable": false,
      "stateMutability": "nonpayable",
      "type": "function"
    },
    {
      "constant": false,
      "inputs": [],
      "name": "renounceWhitelisted",
      "outputs": [],
      "payable": false,
      "stateMutability": "nonpayable",
      "type": "function"
    },
    {
      "constant": false,
      "inputs": [
        {
          "internalType": "address",
          "name": "from",
          "type": "address"
        },
        {
          "internalType": "address",
          "name": "to",
          "type": "address"
        },
        {
          "internalType": "uint256",
          "name": "tokenId",
          "type": "uint256"
        }
      ],
      "name": "safeTransferFrom",
      "outputs": [],
      "payable": false,
      "stateMutability": "nonpayable",
      "type": "function"
    },
    {
      "constant": false,
      "inputs": [
        {
          "internalType": "address",
          "name": "from",
          "type": "address"
        },
        {
          "internalType": "address",
          "name": "to",
          "type": "address"
        },
        {
          "internalType": "uint256",
          "name": "tokenId",
          "type": "uint256"
        },
        {
          "internalType": "bytes",
          "name": "_data",
          "type": "bytes"
        }
      ],
      "name": "safeTransferFrom",
      "outputs": [],
      "payable": false,
      "stateMutability": "nonpayable",
      "type": "function"
    },
    {
      "constant": false,
      "inputs": [
        {
          "internalType": "address",
          "name": "to",
          "type": "address"
        },
        {
          "internalType": "bool",
          "name": "approved",
          "type": "bool"
        }
      ],
      "name": "setApprovalForAll",
      "outputs": [],
      "payable": false,
      "stateMutability": "nonpayable",
      "type": "function"
    },
    {
      "constant": true,
      "inputs": [
        {
          "internalType": "bytes4",
          "name": "interfaceId",
          "type": "bytes4"
        }
      ],
      "name": "supportsInterface",
      "outputs": [
        {
          "internalType": "bool",
          "name": "",
          "type": "bool"
        }
      ],
      "payable": false,
      "stateMutability": "view",
      "type": "function"
    },
    {
      "constant": true,
      "inputs": [],
      "name": "symbol",
      "outputs": [
        {
          "internalType": "string",
          "name": "",
          "type": "string"
        }
      ],
      "payable": false,
      "stateMutability": "view",
      "type": "function"
    },
    {
      "constant": true,
      "inputs": [
        {
          "internalType": "uint256",
          "name": "index",
          "type": "uint256"
        }
      ],
      "name": "tokenByIndex",
      "outputs": [
        {
          "internalType": "uint256",
          "name": "",
          "type": "uint256"
        }
      ],
      "payable": false,
      "stateMutability": "view",
      "type": "function"
    },
    {
      "constant": true,
      "inputs": [
        {
          "internalType": "address",
          "name": "owner",
          "type": "address"
        },
        {
          "internalType": "uint256",
          "name": "index",
          "type": "uint256"
        }
      ],
      "name": "tokenOfOwnerByIndex",
      "outputs": [
        {
          "internalType": "uint256",
          "name": "",
          "type": "uint256"
        }
      ],
      "payable": false,
      "stateMutability": "view",
      "type": "function"
    },
    {
      "constant": true,
      "inputs": [
        {
          "internalType": "uint256",
          "name": "tokenId",
          "type": "uint256"
        }
      ],
      "name": "tokenURI",
      "outputs": [
        {
          "internalType": "string",
          "name": "",
          "type": "string"
        }
      ],
      "payable": false,
      "stateMutability": "view",
      "type": "function"
    },
    {
      "constant": true,
      "inputs": [
        {
          "internalType": "uint256",
          "name": "",
          "type": "uint256"
        }
      ],
      "name": "token_infos",
      "outputs": [
        {
          "internalType": "string",
          "name": "title",
          "type": "string"
        },
        {
          "internalType": "uint8",
          "name": "class_id",
          "type": "uint8"
        },
        {
          "internalType": "uint8",
          "name": "size",
          "type": "uint8"
        }
      ],
      "payable": false,
      "stateMutability": "view",
      "type": "function"
    },
    {
      "constant": true,
      "inputs": [],
      "name": "totalSupply",
      "outputs": [
        {
          "internalType": "uint256",
          "name": "",
          "type": "uint256"
        }
      ],
      "payable": false,
      "stateMutability": "view",
      "type": "function"
    },
    {
      "constant": false,
      "inputs": [
        {
          "internalType": "address",
          "name": "from",
          "type": "address"
        },
        {
          "internalType": "address",
          "name": "to",
          "type": "address"
        },
        {
          "internalType": "uint256",
          "name": "tokenId",
          "type": "uint256"
        }
      ],
      "name": "transferFrom",
      "outputs": [],
      "payable": false,
      "stateMutability": "nonpayable",
      "type": "function"
    },
    {
      "constant": false,
      "inputs": [
        {
          "internalType": "address",
          "name": "user_address",
          "type": "address"
        },
        {
          "internalType": "string",
          "name": "title",
          "type": "string"
        },
        {
          "internalType": "uint8",
          "name": "class_id",
          "type": "uint8"
        },
        {
          "internalType": "uint8",
          "name": "size",
          "type": "uint8"
        }
      ],
      "name": "createNFT",
      "outputs": [],
      "payable": false,
      "stateMutability": "nonpayable",
      "type": "function"
    },
    {
      "constant": true,
      "inputs": [
        {
          "internalType": "uint256",
          "name": "tokenId",
          "type": "uint256"
        }
      ],
      "name": "getNFT",
      "outputs": [
        {
          "internalType": "string",
          "name": "title",
          "type": "string"
        },
        {
          "internalType": "uint8",
          "name": "class_id",
          "type": "uint8"
        },
        {
          "internalType": "uint8",
          "name": "size",
          "type": "uint8"
        }
      ],
      "payable": false,
      "stateMutability": "view",
      "type": "function"
    }
  ],
  "bytecode": "0x60806040523480156200001157600080fd5b50604080518082018252600a815269109a5d199b1a5e13919560b21b602080830191909152825180840190935260048352631093919560e21b908301529081816200006c6301ffc9a760e01b6001600160e01b036200011616565b620000876380ac58cd60e01b6001600160e01b036200011616565b620000a263780e9d6360e01b6001600160e01b036200011616565b8151620000b7906009906020850190620002e8565b508051620000cd90600a906020840190620002e8565b50620000e9635b5e139f60e01b6001600160e01b036200011616565b5050505062000110620001016200019b60201b60201c565b6001600160e01b03620001a016565b6200038a565b6001600160e01b0319808216141562000176576040805162461bcd60e51b815260206004820152601c60248201527f4552433136353a20696e76616c696420696e7465726661636520696400000000604482015290519081900360640190fd5b6001600160e01b0319166000908152602081905260409020805460ff19166001179055565b335b90565b620001bb81600d620001f260201b620017001790919060201c565b6040516001600160a01b038216907f22380c05984257a1cb900161c713dd71d39e74820f1aea43bd3f1bdd2096129990600090a250565b6200020782826001600160e01b036200027f16565b156200025a576040805162461bcd60e51b815260206004820152601f60248201527f526f6c65733a206163636f756e7420616c72656164792068617320726f6c6500604482015290519081900360640190fd5b6001600160a01b0316600090815260209190915260409020805460ff19166001179055565b60006001600160a01b038216620002c85760405162461bcd60e51b8152600401808060200182810382526022815260200180620027016022913960400191505060405180910390fd5b506001600160a01b03166000908152602091909152604090205460ff1690565b828054600181600116156101000203166002900490600052602060002090601f016020900481019282601f106200032b57805160ff19168380011785556200035b565b828001600101855582156200035b579182015b828111156200035b5782518255916020019190600101906200033e565b50620003699291506200036d565b5090565b6200019d91905b8082111562000369576000815560010162000374565b612367806200039a6000396000f3fe608060405234801561001057600080fd5b50600436106101a95760003560e01c8063576f7ea7116100f957806395d89b4111610097578063bb5f747b11610071578063bb5f747b146106da578063c87b56dd14610700578063d6cd94731461071d578063e985e9c514610725576101a9565b806395d89b41146105de578063a22cb465146105e6578063b88d4fde14610614576101a9565b80636352211e116100d35780636352211e1461056d5780636c0360eb1461058a57806370a08231146105925780637362d9c8146105b8576101a9565b8063576f7ea7146104165780635c1d7a6a146104c55780635e82866e14610550576101a9565b806323b872dd116101665780633af32abf116101405780633af32abf1461039557806342842e0e146103bb5780634c5a628c146103f15780634f6ccce7146103f9576101a9565b806323b872dd1461030d578063291d9549146103435780632f745c5914610369576101a9565b806301ffc9a7146101ae57806306fdde03146101e9578063081812fc14610266578063095ea7b31461029f57806310154bad146102cd57806318160ddd146102f3575b600080fd5b6101d5600480360360208110156101c457600080fd5b50356001600160e01b031916610753565b604080519115158252519081900360200190f35b6101f1610776565b6040805160208082528351818301528351919283929083019185019080838360005b8381101561022b578181015183820152602001610213565b50505050905090810190601f1680156102585780820380516001836020036101000a031916815260200191505b509250505060405180910390f35b6102836004803603602081101561027c57600080fd5b503561080d565b604080516001600160a01b039092168252519081900360200190f35b6102cb600480360360408110156102b557600080fd5b506001600160a01b03813516906020013561086f565b005b6102cb600480360360208110156102e357600080fd5b50356001600160a01b0316610997565b6102fb6109ee565b60408051918252519081900360200190f35b6102cb6004803603606081101561032357600080fd5b506001600160a01b038135811691602081013590911690604001356109f4565b6102cb6004803603602081101561035957600080fd5b50356001600160a01b0316610a50565b6102fb6004803603604081101561037f57600080fd5b506001600160a01b038135169060200135610a9f565b6101d5600480360360208110156103ab57600080fd5b50356001600160a01b0316610b1e565b6102cb600480360360608110156103d157600080fd5b506001600160a01b03813581169160208101359091169060400135610b37565b6102cb610b52565b6102fb6004803603602081101561040f57600080fd5b5035610b64565b6104336004803603602081101561042c57600080fd5b5035610bca565b60405180806020018460ff1660ff1681526020018360ff1660ff168152602001828103825285818151815260200191508051906020019080838360005b83811015610488578181015183820152602001610470565b50505050905090810190601f1680156104b55780820380516001836020036101000a031916815260200191505b5094505050505060405180910390f35b6102cb600480360360808110156104db57600080fd5b6001600160a01b03823516919081019060408101602082013564010000000081111561050657600080fd5b82018360208201111561051857600080fd5b8035906020019184600183028401116401000000008311171561053a57600080fd5b919350915060ff81358116916020013516610cee565b6104336004803603602081101561056657600080fd5b5035610e12565b6102836004803603602081101561058357600080fd5b5035610ed1565b6101f1610f25565b6102fb600480360360208110156105a857600080fd5b50356001600160a01b0316610f86565b6102cb600480360360208110156105ce57600080fd5b50356001600160a01b0316610fee565b6101f161103d565b6102cb600480360360408110156105fc57600080fd5b506001600160a01b038135169060200135151561109e565b6102cb6004803603608081101561062a57600080fd5b6001600160a01b0382358116926020810135909116916040820135919081019060808101606082013564010000000081111561066557600080fd5b82018360208201111561067757600080fd5b8035906020019184600183028401116401000000008311171561069957600080fd5b91908080601f0160208091040260200160405190810160405280939291908181526020018383808284376000920191909152509295506111a3945050505050565b6101d5600480360360208110156106f057600080fd5b50356001600160a01b0316611201565b6101f16004803603602081101561071657600080fd5b5035611214565b6102cb6113e0565b6101d56004803603604081101561073b57600080fd5b506001600160a01b03813581169160200135166113f0565b6001600160e01b0319811660009081526020819052604090205460ff165b919050565b60098054604080516020601f60026000196101006001881615020190951694909404938401819004810282018101909252828152606093909290918301828280156108025780601f106107d757610100808354040283529160200191610802565b820191906000526020600020905b8154815290600101906020018083116107e557829003601f168201915b505050505090505b90565b60006108188261141e565b6108535760405162461bcd60e51b815260040180806020018281038252602c815260200180612195602c913960400191505060405180910390fd5b506000908152600260205260409020546001600160a01b031690565b600061087a82610ed1565b9050806001600160a01b0316836001600160a01b031614156108cd5760405162461bcd60e51b81526004018080602001828103825260218152602001806122b56021913960400191505060405180910390fd5b806001600160a01b03166108df61143b565b6001600160a01b031614806109005750610900816108fb61143b565b6113f0565b61093b5760405162461bcd60e51b81526004018080602001828103825260388152602001806120e96038913960400191505060405180910390fd5b60008281526002602052604080822080546001600160a01b0319166001600160a01b0387811691821790925591518593918516917f8c5be1e5ebec7d5bd14f71427d1e84f3dd0314c0f7b2291e5b200ac8c7c3b92591a4505050565b6109a76109a261143b565b611201565b6109e25760405162461bcd60e51b815260040180806020018281038252604081526020018061220c6040913960400191505060405180910390fd5b6109eb8161143f565b50565b60075490565b610a056109ff61143b565b82611487565b610a405760405162461bcd60e51b81526004018080602001828103825260318152602001806122d66031913960400191505060405180910390fd5b610a4b83838361152b565b505050565b610a5b6109a261143b565b610a965760405162461bcd60e51b815260040180806020018281038252604081526020018061220c6040913960400191505060405180910390fd5b6109eb8161154a565b6000610aaa83610f86565b8210610ae75760405162461bcd60e51b815260040180806020018281038252602b81526020018061203c602b913960400191505060405180910390fd5b6001600160a01b0383166000908152600560205260409020805483908110610b0b57fe5b9060005260206000200154905092915050565b6000610b31600e8363ffffffff61159216565b92915050565b610a4b838383604051806020016040528060008152506111a3565b610b62610b5d61143b565b6115f9565b565b6000610b6e6109ee565b8210610bab5760405162461bcd60e51b815260040180806020018281038252602c815260200180612307602c913960400191505060405180910390fd5b60078281548110610bb857fe5b90600052602060002001549050919050565b6060600080600f8481548110610bdc57fe5b9060005260206000209060020201600001600f8581548110610bfa57fe5b906000526020600020906002020160010160009054906101000a900460ff16600f8681548110610c2657fe5b906000526020600020906002020160010160019054906101000a900460ff16828054600181600116156101000203166002900480601f016020809104026020016040519081016040528092919081815260200182805460018160011615610100020316600290048015610cda5780601f10610caf57610100808354040283529160200191610cda565b820191906000526020600020905b815481529060010190602001808311610cbd57829003601f168201915b505050505092509250925092509193909250565b610cfe610cf961143b565b610b1e565b610d395760405162461bcd60e51b815260040180806020018281038252603a81526020018061227b603a913960400191505060405180910390fd5b60006001600f604051806060016040528088888080601f016020809104026020016040519081016040528093929190818152602001838380828437600092018290525093855250505060ff8089166020808501919091529088166040909301929092528354600181018086559482529082902083518051600290930290910192610dc892849290910190611f83565b5060208201516001909101805460409093015160ff9081166101000261ff00199190931660ff199094169390931792909216179055039050610e0a8682611641565b505050505050565b600f8181548110610e1f57fe5b60009182526020918290206002918202018054604080516001831615610100026000190190921693909304601f810185900485028201850190935282815290935091839190830182828015610eb55780601f10610e8a57610100808354040283529160200191610eb5565b820191906000526020600020905b815481529060010190602001808311610e9857829003601f168201915b5050506001909301549192505060ff8082169161010090041683565b6000818152600160205260408120546001600160a01b031680610b315760405162461bcd60e51b815260040180806020018281038252602981526020018061214b6029913960400191505060405180910390fd5b600b8054604080516020601f60026000196101006001881615020190951694909404938401819004810282018101909252828152606093909290918301828280156108025780601f106107d757610100808354040283529160200191610802565b60006001600160a01b038216610fcd5760405162461bcd60e51b815260040180806020018281038252602a815260200180612121602a913960400191505060405180910390fd5b6001600160a01b0382166000908152600360205260409020610b3190611662565b610ff96109a261143b565b6110345760405162461bcd60e51b815260040180806020018281038252604081526020018061220c6040913960400191505060405180910390fd5b6109eb81611666565b600a8054604080516020601f60026000196101006001881615020190951694909404938401819004810282018101909252828152606093909290918301828280156108025780601f106107d757610100808354040283529160200191610802565b6110a661143b565b6001600160a01b0316826001600160a01b0316141561110c576040805162461bcd60e51b815260206004820152601960248201527f4552433732313a20617070726f766520746f2063616c6c657200000000000000604482015290519081900360640190fd5b806004600061111961143b565b6001600160a01b03908116825260208083019390935260409182016000908120918716808252919093529120805460ff19169215159290921790915561115d61143b565b60408051841515815290516001600160a01b0392909216917f17307eab39ab6107e8899845ad3d59bd9653f200f220920489ca2b5937696c319181900360200190a35050565b6111b46111ae61143b565b83611487565b6111ef5760405162461bcd60e51b81526004018080602001828103825260318152602001806122d66031913960400191505060405180910390fd5b6111fb848484846116ae565b50505050565b6000610b31600d8363ffffffff61159216565b606061121f8261141e565b61125a5760405162461bcd60e51b815260040180806020018281038252602f81526020018061224c602f913960400191505060405180910390fd5b6000828152600c602090815260409182902080548351601f60026000196101006001861615020190931692909204918201849004840281018401909452808452606093928301828280156112ef5780601f106112c4576101008083540402835291602001916112ef565b820191906000526020600020905b8154815290600101906020018083116112d257829003601f168201915b50505050509050805160001415611316575050604080516020810190915260008152610771565b600b8160405160200180838054600181600116156101000203166002900480156113775780601f10611355576101008083540402835291820191611377565b820191906000526020600020905b815481529060010190602001808311611363575b5050825160208401908083835b602083106113a35780518252601f199092019160209182019101611384565b6001836020036101000a03801982511681845116808217855250505050505090500192505050604051602081830303815290604052915050610771565b610b626113eb61143b565b61154a565b6001600160a01b03918216600090815260046020908152604080832093909416825291909152205460ff1690565b6000908152600160205260409020546001600160a01b0316151590565b3390565b611450600e8263ffffffff61170016565b6040516001600160a01b038216907fee1504a83b6d4a361f4c1dc78ab59bfa30d6a3b6612c403e86bb01ef2984295f90600090a250565b60006114928261141e565b6114cd5760405162461bcd60e51b815260040180806020018281038252602c8152602001806120bd602c913960400191505060405180910390fd5b60006114d883610ed1565b9050806001600160a01b0316846001600160a01b031614806115135750836001600160a01b03166115088461080d565b6001600160a01b0316145b80611523575061152381856113f0565b949350505050565b611536838383611781565b61154083826118c5565b610a4b82826119ba565b61155b600e8263ffffffff6119f816565b6040516001600160a01b038216907f270d9b30cf5b0793bbfd54c9d5b94aeb49462b8148399000265144a8722da6b690600090a250565b60006001600160a01b0382166115d95760405162461bcd60e51b81526004018080602001828103825260228152602001806121c16022913960400191505060405180910390fd5b506001600160a01b03166000908152602091909152604090205460ff1690565b61160a600d8263ffffffff6119f816565b6040516001600160a01b038216907f0a8eb35e5ca14b3d6f28e4abf2f128dbab231a58b56e89beb5d636115001e16590600090a250565b61164b8282611a5f565b61165582826119ba565b61165e81611b90565b5050565b5490565b611677600d8263ffffffff61170016565b6040516001600160a01b038216907f22380c05984257a1cb900161c713dd71d39e74820f1aea43bd3f1bdd2096129990600090a250565b6116b984848461152b565b6116c584848484611bd4565b6111fb5760405162461bcd60e51b81526004018080602001828103825260328152602001806120676032913960400191505060405180910390fd5b61170a8282611592565b1561175c576040805162461bcd60e51b815260206004820152601f60248201527f526f6c65733a206163636f756e7420616c72656164792068617320726f6c6500604482015290519081900360640190fd5b6001600160a01b0316600090815260209190915260409020805460ff19166001179055565b826001600160a01b031661179482610ed1565b6001600160a01b0316146117d95760405162461bcd60e51b81526004018080602001828103825260298152602001806121e36029913960400191505060405180910390fd5b6001600160a01b03821661181e5760405162461bcd60e51b81526004018080602001828103825260248152602001806120996024913960400191505060405180910390fd5b61182781611e0f565b6001600160a01b038316600090815260036020526040902061184890611e4a565b6001600160a01b038216600090815260036020526040902061186990611e61565b60008181526001602052604080822080546001600160a01b0319166001600160a01b0386811691821790925591518493918716917fddf252ad1be2c89b69c2b068fc378daa952ba7f163c4a11628f55a4df523b3ef91a4505050565b6001600160a01b0382166000908152600560205260408120546118ef90600163ffffffff611e6a16565b60008381526006602052604090205490915080821461198a576001600160a01b038416600090815260056020526040812080548490811061192c57fe5b906000526020600020015490508060056000876001600160a01b03166001600160a01b03168152602001908152602001600020838154811061196a57fe5b600091825260208083209091019290925591825260069052604090208190555b6001600160a01b03841660009081526005602052604090208054906119b3906000198301612001565b5050505050565b6001600160a01b0390911660009081526005602081815260408084208054868652600684529185208290559282526001810183559183529091200155565b611a028282611592565b611a3d5760405162461bcd60e51b81526004018080602001828103825260218152602001806121746021913960400191505060405180910390fd5b6001600160a01b0316600090815260209190915260409020805460ff19169055565b6001600160a01b038216611aba576040805162461bcd60e51b815260206004820181905260248201527f4552433732313a206d696e7420746f20746865207a65726f2061646472657373604482015290519081900360640190fd5b611ac38161141e565b15611b15576040805162461bcd60e51b815260206004820152601c60248201527f4552433732313a20746f6b656e20616c7265616479206d696e74656400000000604482015290519081900360640190fd5b600081815260016020908152604080832080546001600160a01b0319166001600160a01b038716908117909155835260039091529020611b5490611e61565b60405181906001600160a01b038416906000907fddf252ad1be2c89b69c2b068fc378daa952ba7f163c4a11628f55a4df523b3ef908290a45050565b600780546000838152600860205260408120829055600182018355919091527fa66cc928b5edb82af9bd49922954155ab7b0942694bea4ce44661d9a8736c6880155565b6000611be8846001600160a01b0316611eb3565b611bf457506001611523565b600060606001600160a01b038616630a85bd0160e11b611c1261143b565b89888860405160240180856001600160a01b03166001600160a01b03168152602001846001600160a01b03166001600160a01b0316815260200183815260200180602001828103825283818151815260200191508051906020019080838360005b83811015611c8b578181015183820152602001611c73565b50505050905090810190601f168015611cb85780820380516001836020036101000a031916815260200191505b5060408051601f198184030181529181526020820180516001600160e01b03166001600160e01b0319909a16999099178952518151919890975087965094509250829150849050835b60208310611d205780518252601f199092019160209182019101611d01565b6001836020036101000a0380198251168184511680821785525050505050509050019150506000604051808303816000865af19150503d8060008114611d82576040519150601f19603f3d011682016040523d82523d6000602084013e611d87565b606091505b509150915081611dd857805115611da15780518082602001fd5b60405162461bcd60e51b81526004018080602001828103825260328152602001806120676032913960400191505060405180910390fd5b6000818060200190516020811015611def57600080fd5b50516001600160e01b031916630a85bd0160e11b14935061152392505050565b6000818152600260205260409020546001600160a01b0316156109eb57600090815260026020526040902080546001600160a01b0319169055565b8054611e5d90600163ffffffff611e6a16565b9055565b80546001019055565b6000611eac83836040518060400160405280601e81526020017f536166654d6174683a207375627472616374696f6e206f766572666c6f770000815250611eec565b9392505050565b6000813f7fc5d2460186f7233c927e7db2dcc703c0e500b653ca82273b7bfad8045d85a470818114801590611523575050151592915050565b60008184841115611f7b5760405162461bcd60e51b81526004018080602001828103825283818151815260200191508051906020019080838360005b83811015611f40578181015183820152602001611f28565b50505050905090810190601f168015611f6d5780820380516001836020036101000a031916815260200191505b509250505060405180910390fd5b505050900390565b828054600181600116156101000203166002900490600052602060002090601f016020900481019282601f10611fc457805160ff1916838001178555611ff1565b82800160010185558215611ff1579182015b82811115611ff1578251825591602001919060010190611fd6565b50611ffd929150612021565b5090565b815481835581811115610a4b57600083815260209020610a4b9181019083015b61080a91905b80821115611ffd576000815560010161202756fe455243373231456e756d657261626c653a206f776e657220696e646578206f7574206f6620626f756e64734552433732313a207472616e7366657220746f206e6f6e20455243373231526563656976657220696d706c656d656e7465724552433732313a207472616e7366657220746f20746865207a65726f20616464726573734552433732313a206f70657261746f7220717565727920666f72206e6f6e6578697374656e7420746f6b656e4552433732313a20617070726f76652063616c6c6572206973206e6f74206f776e6572206e6f7220617070726f76656420666f7220616c6c4552433732313a2062616c616e636520717565727920666f7220746865207a65726f20616464726573734552433732313a206f776e657220717565727920666f72206e6f6e6578697374656e7420746f6b656e526f6c65733a206163636f756e7420646f6573206e6f74206861766520726f6c654552433732313a20617070726f76656420717565727920666f72206e6f6e6578697374656e7420746f6b656e526f6c65733a206163636f756e7420697320746865207a65726f20616464726573734552433732313a207472616e73666572206f6620746f6b656e2074686174206973206e6f74206f776e57686974656c69737441646d696e526f6c653a2063616c6c657220646f6573206e6f742068617665207468652057686974656c69737441646d696e20726f6c654552433732314d657461646174613a2055524920717565727920666f72206e6f6e6578697374656e7420746f6b656e57686974656c6973746564526f6c653a2063616c6c657220646f6573206e6f742068617665207468652057686974656c697374656420726f6c654552433732313a20617070726f76616c20746f2063757272656e74206f776e65724552433732313a207472616e736665722063616c6c6572206973206e6f74206f776e6572206e6f7220617070726f766564455243373231456e756d657261626c653a20676c6f62616c20696e646578206f7574206f6620626f756e6473a265627a7a723158200e5fe700d42f44bed5639772d5c3253673ae9a5c35e38142f462c34f1b23329064736f6c63430005100032526f6c65733a206163636f756e7420697320746865207a65726f2061646472657373",
  "source": "pragma solidity ^0.5.2;\n\nimport \"openzeppelin-solidity/contracts/token/ERC721/ERC721Full.sol\";\nimport \"openzeppelin-solidity/contracts/access/roles/WhitelistedRole.sol\";\n\n\n/**\n * @title BitflixNFT: a ERC721 token\n */\ncontract BitflixNFT is ERC721Full, WhitelistedRole {\n\n  struct TokenInfo {\n    string title;\n    uint8 class_id;\n    uint8 size;\n  }\n\n  /* Our tokeninfo are stored here */\n  TokenInfo[] public token_infos;\n\n  constructor() public ERC721Full(\"BitflixNFT\", \"BNFT\") {\n  }\n\n  /**\n   * @dev Creates a new NFT\n   */\n  function createNFT(\n    address user_address,\n    string calldata title,\n    uint8 class_id,\n    uint8 size\n    ) external onlyWhitelisted() {\n    uint tokenId = token_infos.push(\n      TokenInfo({\n        title: title,\n        class_id: class_id,\n        size: size\n      })\n    ) - 1;\n    _mint(user_address, tokenId);\n  }\n\n  /**\n   * @dev Gets a NFT\n   * @return The title and the size of the NFT\n   */\n  function getNFT(\n    uint tokenId\n  ) external view returns (\n    string memory title,\n    uint8 class_id,\n    uint8 size\n  ) {\n    return (\n      token_infos[tokenId].title,\n      token_infos[tokenId].class_id,\n      token_infos[tokenId].size\n    );\n  }\n}\n",
  "sourcePath": "/Users/tuminfei/Code/Nodejs/bitfilx-nft-marketplace/contracts/ERC721/BitflixNFT.sol",
  "compiler": {
    "name": "solc",
    "version": "0.5.16+commit.9c3226ce.Emscripten.clang"
  },
  "schemaVersion": "3.3.0",
  "updatedAt": "2021-07-13T03:29:00.343Z",
  "networkType": "ethereum",
  "devdoc": {
    "methods": {
      "approve(address,uint256)": {
        "details": "Approves another address to transfer the given token ID The zero address indicates there is no approved address. There can only be one approved address per token at a given time. Can only be called by the token owner or an approved operator.",
        "params": {
          "to": "address to be approved for the given token ID",
          "tokenId": "uint256 ID of the token to be approved"
        }
      },
      "balanceOf(address)": {
        "details": "Gets the balance of the specified address.",
        "params": {
          "owner": "address to query the balance of"
        },
        "return": "uint256 representing the amount owned by the passed address"
      },
      "baseURI()": {
        "details": "Returns the base URI set via {_setBaseURI}. This will be automatically added as a preffix in {tokenURI} to each token's URI, when they are non-empty.    * _Available since v2.5.0._"
      },
      "createNFT(address,string,uint8,uint8)": {
        "details": "Creates a new NFT"
      },
      "getApproved(uint256)": {
        "details": "Gets the approved address for a token ID, or zero if no address set Reverts if the token ID does not exist.",
        "params": {
          "tokenId": "uint256 ID of the token to query the approval of"
        },
        "return": "address currently approved for the given token ID"
      },
      "getNFT(uint256)": {
        "details": "Gets a NFT",
        "return": "The title and the size of the NFT"
      },
      "isApprovedForAll(address,address)": {
        "details": "Tells whether an operator is approved by a given owner.",
        "params": {
          "operator": "operator address which you want to query the approval of",
          "owner": "owner address which you want to query the approval of"
        },
        "return": "bool whether the given operator is approved by the given owner"
      },
      "name()": {
        "details": "Gets the token name.",
        "return": "string representing the token name"
      },
      "ownerOf(uint256)": {
        "details": "Gets the owner of the specified token ID.",
        "params": {
          "tokenId": "uint256 ID of the token to query the owner of"
        },
        "return": "address currently marked as the owner of the given token ID"
      },
      "safeTransferFrom(address,address,uint256)": {
        "details": "Safely transfers the ownership of a given token ID to another address If the target address is a contract, it must implement {IERC721Receiver-onERC721Received}, which is called upon a safe transfer, and return the magic value `bytes4(keccak256(\"onERC721Received(address,address,uint256,bytes)\"))`; otherwise, the transfer is reverted. Requires the msg.sender to be the owner, approved, or operator",
        "params": {
          "from": "current owner of the token",
          "to": "address to receive the ownership of the given token ID",
          "tokenId": "uint256 ID of the token to be transferred"
        }
      },
      "safeTransferFrom(address,address,uint256,bytes)": {
        "details": "Safely transfers the ownership of a given token ID to another address If the target address is a contract, it must implement {IERC721Receiver-onERC721Received}, which is called upon a safe transfer, and return the magic value `bytes4(keccak256(\"onERC721Received(address,address,uint256,bytes)\"))`; otherwise, the transfer is reverted. Requires the _msgSender() to be the owner, approved, or operator",
        "params": {
          "_data": "bytes data to send along with a safe transfer check",
          "from": "current owner of the token",
          "to": "address to receive the ownership of the given token ID",
          "tokenId": "uint256 ID of the token to be transferred"
        }
      },
      "setApprovalForAll(address,bool)": {
        "details": "Sets or unsets the approval of a given operator An operator is allowed to transfer all tokens of the sender on their behalf.",
        "params": {
          "approved": "representing the status of the approval to be set",
          "to": "operator address to set the approval"
        }
      },
      "supportsInterface(bytes4)": {
        "details": "See {IERC165-supportsInterface}.     * Time complexity O(1), guaranteed to always use less than 30 000 gas."
      },
      "symbol()": {
        "details": "Gets the token symbol.",
        "return": "string representing the token symbol"
      },
      "tokenByIndex(uint256)": {
        "details": "Gets the token ID at a given index of all the tokens in this contract Reverts if the index is greater or equal to the total number of tokens.",
        "params": {
          "index": "uint256 representing the index to be accessed of the tokens list"
        },
        "return": "uint256 token ID at the given index of the tokens list"
      },
      "tokenOfOwnerByIndex(address,uint256)": {
        "details": "Gets the token ID at a given index of the tokens list of the requested owner.",
        "params": {
          "index": "uint256 representing the index to be accessed of the requested tokens list",
          "owner": "address owning the tokens list to be accessed"
        },
        "return": "uint256 token ID at the given index of the tokens list owned by the requested address"
      },
      "tokenURI(uint256)": {
        "details": "Returns the URI for a given token ID. May return an empty string.     * If the token's URI is non-empty and a base URI was set (via {_setBaseURI}), it will be added to the token ID's URI as a prefix.     * Reverts if the token ID does not exist."
      },
      "totalSupply()": {
        "details": "Gets the total amount of tokens stored by the contract.",
        "return": "uint256 representing the total amount of tokens"
      },
      "transferFrom(address,address,uint256)": {
        "details": "Transfers the ownership of a given token ID to another address. Usage of this method is discouraged, use {safeTransferFrom} whenever possible. Requires the msg.sender to be the owner, approved, or operator.",
        "params": {
          "from": "current owner of the token",
          "to": "address to receive the ownership of the given token ID",
          "tokenId": "uint256 ID of the token to be transferred"
        }
      }
    },
    "title": "BitflixNFT: a ERC721 token"
  },
  "userdoc": {
    "methods": {}
  }
}