{
  "contractName": "BitflixPoint",
  "abi": [
    {
      "inputs": [
        {
          "internalType": "address",
          "name": "btflx_",
          "type": "address"
        }
      ],
      "payable": false,
      "stateMutability": "nonpayable",
      "type": "constructor"
    },
    {
      "anonymous": false,
      "inputs": [
        {
          "indexed": false,
          "internalType": "address",
          "name": "user",
          "type": "address"
        },
        {
          "indexed": false,
          "internalType": "uint256",
          "name": "amount",
          "type": "uint256"
        },
        {
          "indexed": false,
          "internalType": "uint256",
          "name": "at",
          "type": "uint256"
        }
      ],
      "name": "Consume",
      "type": "event"
    },
    {
      "anonymous": false,
      "inputs": [
        {
          "indexed": false,
          "internalType": "address",
          "name": "user",
          "type": "address"
        },
        {
          "indexed": false,
          "internalType": "uint256",
          "name": "amount",
          "type": "uint256"
        },
        {
          "indexed": false,
          "internalType": "uint256",
          "name": "at",
          "type": "uint256"
        },
        {
          "indexed": false,
          "internalType": "uint256",
          "name": "id",
          "type": "uint256"
        }
      ],
      "name": "Lock",
      "type": "event"
    },
    {
      "anonymous": false,
      "inputs": [
        {
          "indexed": false,
          "internalType": "address",
          "name": "user",
          "type": "address"
        },
        {
          "indexed": false,
          "internalType": "uint256",
          "name": "amount",
          "type": "uint256"
        },
        {
          "indexed": false,
          "internalType": "uint256",
          "name": "at",
          "type": "uint256"
        },
        {
          "indexed": false,
          "internalType": "uint256",
          "name": "id",
          "type": "uint256"
        }
      ],
      "name": "Redeem",
      "type": "event"
    },
    {
      "constant": true,
      "inputs": [],
      "name": "btflx",
      "outputs": [
        {
          "internalType": "contract IERC20",
          "name": "",
          "type": "address"
        }
      ],
      "payable": false,
      "stateMutability": "view",
      "type": "function"
    },
    {
      "constant": true,
      "inputs": [],
      "name": "initialized",
      "outputs": [
        {
          "internalType": "bool",
          "name": "",
          "type": "bool"
        }
      ],
      "payable": false,
      "stateMutability": "view",
      "type": "function"
    },
    {
      "constant": true,
      "inputs": [],
      "name": "lockDuration",
      "outputs": [
        {
          "internalType": "uint256",
          "name": "",
          "type": "uint256"
        }
      ],
      "payable": false,
      "stateMutability": "view",
      "type": "function"
    },
    {
      "constant": true,
      "inputs": [],
      "name": "lockRate",
      "outputs": [
        {
          "internalType": "uint256",
          "name": "",
          "type": "uint256"
        }
      ],
      "payable": false,
      "stateMutability": "view",
      "type": "function"
    },
    {
      "constant": true,
      "inputs": [],
      "name": "lockRateMax",
      "outputs": [
        {
          "internalType": "uint256",
          "name": "",
          "type": "uint256"
        }
      ],
      "payable": false,
      "stateMutability": "view",
      "type": "function"
    },
    {
      "constant": true,
      "inputs": [
        {
          "internalType": "uint256",
          "name": "",
          "type": "uint256"
        }
      ],
      "name": "locks",
      "outputs": [
        {
          "internalType": "uint256",
          "name": "id",
          "type": "uint256"
        },
        {
          "internalType": "address",
          "name": "user",
          "type": "address"
        },
        {
          "internalType": "uint256",
          "name": "amount",
          "type": "uint256"
        },
        {
          "internalType": "uint256",
          "name": "duration",
          "type": "uint256"
        },
        {
          "internalType": "uint256",
          "name": "startTime",
          "type": "uint256"
        },
        {
          "internalType": "bool",
          "name": "redeemed",
          "type": "bool"
        }
      ],
      "payable": false,
      "stateMutability": "view",
      "type": "function"
    },
    {
      "constant": true,
      "inputs": [],
      "name": "marketplace",
      "outputs": [
        {
          "internalType": "address",
          "name": "",
          "type": "address"
        }
      ],
      "payable": false,
      "stateMutability": "view",
      "type": "function"
    },
    {
      "constant": true,
      "inputs": [
        {
          "internalType": "address",
          "name": "",
          "type": "address"
        }
      ],
      "name": "points",
      "outputs": [
        {
          "internalType": "uint256",
          "name": "",
          "type": "uint256"
        }
      ],
      "payable": false,
      "stateMutability": "view",
      "type": "function"
    },
    {
      "constant": true,
      "inputs": [
        {
          "internalType": "address",
          "name": "",
          "type": "address"
        },
        {
          "internalType": "uint256",
          "name": "",
          "type": "uint256"
        }
      ],
      "name": "userLockIds",
      "outputs": [
        {
          "internalType": "uint256",
          "name": "",
          "type": "uint256"
        }
      ],
      "payable": false,
      "stateMutability": "view",
      "type": "function"
    },
    {
      "constant": false,
      "inputs": [
        {
          "internalType": "uint256",
          "name": "lockRate_",
          "type": "uint256"
        },
        {
          "internalType": "uint256",
          "name": "lockDuration_",
          "type": "uint256"
        },
        {
          "internalType": "address",
          "name": "marketplace_",
          "type": "address"
        }
      ],
      "name": "initialize",
      "outputs": [],
      "payable": false,
      "stateMutability": "nonpayable",
      "type": "function"
    },
    {
      "constant": false,
      "inputs": [
        {
          "internalType": "uint256",
          "name": "amount",
          "type": "uint256"
        }
      ],
      "name": "lock",
      "outputs": [],
      "payable": false,
      "stateMutability": "nonpayable",
      "type": "function"
    },
    {
      "constant": true,
      "inputs": [],
      "name": "lockLength",
      "outputs": [
        {
          "internalType": "uint256",
          "name": "",
          "type": "uint256"
        }
      ],
      "payable": false,
      "stateMutability": "view",
      "type": "function"
    },
    {
      "constant": false,
      "inputs": [
        {
          "internalType": "uint256",
          "name": "id",
          "type": "uint256"
        }
      ],
      "name": "redeem",
      "outputs": [],
      "payable": false,
      "stateMutability": "nonpayable",
      "type": "function"
    },
    {
      "constant": false,
      "inputs": [
        {
          "internalType": "address",
          "name": "user",
          "type": "address"
        },
        {
          "internalType": "uint256",
          "name": "val",
          "type": "uint256"
        }
      ],
      "name": "consume",
      "outputs": [],
      "payable": false,
      "stateMutability": "nonpayable",
      "type": "function"
    },
    {
      "constant": true,
      "inputs": [
        {
          "internalType": "address",
          "name": "user",
          "type": "address"
        }
      ],
      "name": "pointOf",
      "outputs": [
        {
          "internalType": "uint256",
          "name": "",
          "type": "uint256"
        }
      ],
      "payable": false,
      "stateMutability": "view",
      "type": "function"
    },
    {
      "constant": true,
      "inputs": [
        {
          "internalType": "address",
          "name": "user",
          "type": "address"
        }
      ],
      "name": "getUserLockIds",
      "outputs": [
        {
          "internalType": "uint256[]",
          "name": "",
          "type": "uint256[]"
        }
      ],
      "payable": false,
      "stateMutability": "view",
      "type": "function"
    }
  ],
  "bytecode": "0x60806040526003805460ff1916905561271060065534801561002057600080fd5b50604051610e18380380610e188339818101604052602081101561004357600080fd5b5051600880546001600160a01b0319166001600160a01b03909216919091179055610da5806100736000396000f3fe608060405234801561001057600080fd5b50600436106101005760003560e01c8063689ea01811610097578063db006a7511610066578063db006a75146102a1578063dd467064146102be578063f4dadc61146102db578063ff6698791461033557610100565b8063689ea018146101cb578063836278f114610241578063a6ab36f214610267578063abc8c7af1461029957610100565b8063358041a1116100d3578063358041a114610171578063358b8166146101795780635348d2101461019f5780635b874405146101c357610100565b80630455444314610105578063158ef93e1461011f578063224b5c721461013b578063234ea19c14610169575b600080fd5b61010d610361565b60408051918252519081900360200190f35b610127610367565b604080519115158252519081900360200190f35b6101676004803603604081101561015157600080fd5b506001600160a01b038135169060200135610370565b005b61010d610485565b61010d61048b565b61010d6004803603602081101561018f57600080fd5b50356001600160a01b0316610491565b6101a76104a3565b604080516001600160a01b039092168252519081900360200190f35b61010d6104b2565b6101f1600480360360208110156101e157600080fd5b50356001600160a01b03166104b8565b60408051602080825283518183015283519192839290830191858101910280838360005b8381101561022d578181015183820152602001610215565b505050509050019250505060405180910390f35b61010d6004803603602081101561025757600080fd5b50356001600160a01b0316610524565b6101676004803603606081101561027d57600080fd5b50803590602081013590604001356001600160a01b031661053f565b6101a76105bc565b610167600480360360208110156102b757600080fd5b50356105cb565b610167600480360360208110156102d457600080fd5b5035610785565b6102f8600480360360208110156102f157600080fd5b5035610a95565b604080519687526001600160a01b0390951660208701528585019390935260608501919091526080840152151560a0830152519081900360c00190f35b61010d6004803603604081101561034b57600080fd5b506001600160a01b038135169060200135610ae5565b60055481565b60035460ff1681565b6007546001600160a01b031633146103bb576040805162461bcd60e51b81526020600482015260096024820152682337b93134b23232b760b91b604482015290519081900360640190fd5b600081116103fe576040805162461bcd60e51b815260206004820152600b60248201526a043616e6e6f7420626520360ac1b604482015290519081900360640190fd5b6001600160a01b038216600090815260208190526040902054610427908263ffffffff610b1316565b6001600160a01b03831660008181526020818152604091829020939093558051918252918101839052428183015290517f417d7c0b2e18835d59e6a21c79283cbc698f86c956ac07004709f37b6b4f73d29181900360600190a15050565b60045481565b60065481565b60006020819052908152604090205481565b6008546001600160a01b031681565b60015490565b6001600160a01b03811660009081526002602090815260409182902080548351818402810184019094528084526060939283018282801561051857602002820191906000526020600020905b815481526020019060010190808311610504575b50505050509050919050565b6001600160a01b031660009081526020819052604090205490565b60035460ff1615610585576040805162461bcd60e51b815260206004820152600b60248201526a125b9a5d1a585b1a5e995960aa1b604482015290519081900360640190fd5b600492909255600555600780546001600160a01b0319166001600160a01b039092169190911790556003805460ff19166001179055565b6007546001600160a01b031681565b6000600182815481106105da57fe5b60009182526020909120600690910201600581015490915060ff1615610632576040805162461bcd60e51b815260206004820152600860248201526714995919595b595960c21b604482015290519081900360640190fd5b4261064e82600401548360030154610b5e90919063ffffffff16565b111561068b576040805162461bcd60e51b81526020600482015260076024820152664c6f636b696e6760c81b604482015290519081900360640190fd5b600854600182015460028301546040805163a9059cbb60e01b81526001600160a01b039384166004820152602481019290925251919092169163a9059cbb9160448083019260209291908290030181600087803b1580156106eb57600080fd5b505af11580156106ff573d6000803e3d6000fd5b505050506040513d602081101561071557600080fd5b505060058101805460ff1916600190811790915581015460028201548254604080516001600160a01b039094168452602084019290925242838301526060830152517fbd5034ffbd47e4e72a94baa2cdb74c6fad73cb3bcdc13036b72ec8306f5a76469181900360800190a15050565b600081116107da576040805162461bcd60e51b815260206004820152601760248201527f4c6f636b20616d6f756e742063616e6e6f742062652030000000000000000000604482015290519081900360640190fd5b600854604080516323b872dd60e01b81523360048201523060248201526044810184905290516001600160a01b03909216916323b872dd916064808201926020929091908290030181600087803b15801561083457600080fd5b505af1158015610848573d6000803e3d6000fd5b505050506040513d602081101561085e57600080fd5b50506040805160c08101825260018054808352336020808501828152858701888152600554606088019081524260808901908152600060a08a01818152888a018a5589825299517fb10e2d527612073b26eecdfd717e6a320cf44b4afac2b0732d9fcbe2b7fa0cf66006998a029081019190915594517fb10e2d527612073b26eecdfd717e6a320cf44b4afac2b0732d9fcbe2b7fa0cf7860180546001600160a01b0319166001600160a01b0390921691909117905592517fb10e2d527612073b26eecdfd717e6a320cf44b4afac2b0732d9fcbe2b7fa0cf885015590517fb10e2d527612073b26eecdfd717e6a320cf44b4afac2b0732d9fcbe2b7fa0cf9840155517fb10e2d527612073b26eecdfd717e6a320cf44b4afac2b0732d9fcbe2b7fa0cfa83015595517fb10e2d527612073b26eecdfd717e6a320cf44b4afac2b0732d9fcbe2b7fa0cfb909101805460ff1916911515919091179055908452600281529383208254815493840182559084529383206000199490940193909101929092559054600454610a0f91670de0b6b3a764000091610a03919082908790610bb8565b9063ffffffff610c1116565b33600090815260208190526040902054909150610a32908263ffffffff610b5e16565b33600081815260208181526040918290209390935560015481519283529282018590524282820152600019909201606082015290517f0e31f07bae79135368ff475cf6c7f6abb31e0fd731e03c18ad425bd9406cf0c09181900360800190a15050565b60018181548110610aa257fe5b60009182526020909120600690910201805460018201546002830154600384015460048501546005909501549395506001600160a01b0390921693909260ff1686565b60026020528160005260406000208181548110610afe57fe5b90600052602060002001600091509150505481565b6000610b5583836040518060400160405280601e81526020017f536166654d6174683a207375627472616374696f6e206f766572666c6f770000815250610c53565b90505b92915050565b600082820183811015610b55576040805162461bcd60e51b815260206004820152601b60248201527f536166654d6174683a206164646974696f6e206f766572666c6f770000000000604482015290519081900360640190fd5b600082610bc757506000610b58565b82820282848281610bd457fe5b0414610b555760405162461bcd60e51b8152600401808060200182810382526021815260200180610d506021913960400191505060405180910390fd5b6000610b5583836040518060400160405280601a81526020017f536166654d6174683a206469766973696f6e206279207a65726f000000000000815250610cea565b60008184841115610ce25760405162461bcd60e51b81526004018080602001828103825283818151815260200191508051906020019080838360005b83811015610ca7578181015183820152602001610c8f565b50505050905090810190601f168015610cd45780820380516001836020036101000a031916815260200191505b509250505060405180910390fd5b505050900390565b60008183610d395760405162461bcd60e51b8152602060048201818152835160248401528351909283926044909101919085019080838360008315610ca7578181015183820152602001610c8f565b506000838581610d4557fe5b049594505050505056fe536166654d6174683a206d756c7469706c69636174696f6e206f766572666c6f77a265627a7a72315820280717aa24e593d7fc32aba9b8d08e4a03a41eba9949ada3b09228baf61e241064736f6c63430005100032",
  "source": "pragma solidity ^0.5.2;\n\nimport \"openzeppelin-solidity/contracts/ownership/Ownable.sol\";\nimport \"openzeppelin-solidity/contracts/math/SafeMath.sol\";\nimport \"openzeppelin-solidity/contracts/token/ERC20/IERC20.sol\";\n\n\nimport \"./IBitflixPoint.sol\";\n\n\ncontract BitflixPoint is IBitflixPoint {\n\tusing SafeMath for uint256;\n\tmapping (address => uint256) public points;\n\n\tstruct UserLock {\n\t\tuint256 id;\n\t\taddress user;\n\t\tuint256 amount;\n\t\tuint256 duration;\n\t\tuint256 startTime;\n\t\tbool redeemed;\n\t}\n\n\tUserLock[] public locks;\n\n\tmapping (address => uint256[]) public userLockIds;\n\n\t\n\tbool public initialized = false;\n\tuint256 public lockRate;\n\tuint256 public lockDuration;\n\tuint256 public lockRateMax = 10000;\n\taddress public marketplace;\n\n\tIERC20 public btflx;\n\n\tevent Lock(address user, uint256 amount, uint256 at, uint256 id);\n\tevent Redeem(address user, uint256 amount, uint256 at, uint256 id);\n\tevent Consume(address user, uint256 amount, uint256 at);\n\n\tmodifier onlyMarketplace() { \n\t\trequire (msg.sender == marketplace, \"Forbidden\"); \n\t\t_; \n\t}\n\t\n\n\tconstructor(address btflx_) public {\n\t\tbtflx = IERC20(btflx_);\n\t}\n\n\tfunction initialize(uint256 lockRate_, uint256 lockDuration_, address marketplace_) public {\n\t\trequire(!initialized, \"Initialized\");\n\t\tlockRate = lockRate_;\n\t\tlockDuration = lockDuration_;\n\t\tmarketplace = marketplace_;\n\t\tinitialized = true;\n\t}\n\n\tfunction lock(uint256 amount) public {\n\t\trequire(amount > 0, \"Lock amount cannot be 0\");\n\t\tbtflx.transferFrom(msg.sender, address(this), amount);\n\t\tlocks.push(UserLock({\n\t\t\tid: locks.length,\n\t\t\tuser: msg.sender,\n\t\t\tamount: amount,\n\t\t\tduration: lockDuration,\n\t\t\tstartTime: now,\n\t\t\tredeemed: false\n\t\t}));\n\t\tuserLockIds[msg.sender].push(locks.length - 1);\n\n\t\tuint256 point = amount.mul(lockRate).div(lockRateMax).div(1e18);\n\t\tpoints[msg.sender] = points[msg.sender].add(point);\n\n\t\temit Lock(msg.sender, amount, now, locks.length - 1);\n\t}\n\n\tfunction lockLength() public view returns(uint256) {\n\t\treturn locks.length;\n\t}\n\n\tfunction redeem(uint256 id) public {\n\t\tUserLock storage ulock = locks[id];\n\t\trequire(!ulock.redeemed, \"Redeemed\");\n\t\trequire(ulock.duration.add(ulock.startTime) <= now, \"Locking\");\n\t\tbtflx.transfer(ulock.user, ulock.amount);\n\t\tulock.redeemed = true;\n\t\temit Redeem(ulock.user, ulock.amount, now, ulock.id);\n\t}\n\n\tfunction consume(address user, uint256 val) public onlyMarketplace {\n\t\trequire(val > 0, \"Cannot be 0\");\n\t\tpoints[user] = points[user].sub(val);\n\t\temit Consume(user, val, now);\n\t}\n\n\tfunction pointOf(address user) public view returns(uint256) {\n\t\treturn points[user];\n\t}\n\n\tfunction getUserLockIds(address user) public view returns(uint256[] memory) {\n\t\treturn userLockIds[user];\n\t}\n}",
  "sourcePath": "/Users/yxf/app/bitflix-nft-marketplace/contracts/core/BitflixPoint.sol",
  "compiler": {
    "name": "solc",
    "version": "0.5.16+commit.9c3226ce.Emscripten.clang"
  },
  "schemaVersion": "3.2.3",
  "updatedAt": "2021-06-16T07:23:04.756Z",
  "devdoc": {
    "methods": {}
  },
  "userdoc": {
    "methods": {}
  }
}