{
  "contractName": "BitflixPoint",
  "abi": [
    {
      "inputs": [
        {
          "internalType": "address",
          "name": "btflx_",
          "type": "address"
        }
      ],
      "payable": false,
      "stateMutability": "nonpayable",
      "type": "constructor"
    },
    {
      "anonymous": false,
      "inputs": [
        {
          "indexed": true,
          "internalType": "address",
          "name": "user",
          "type": "address"
        },
        {
          "indexed": false,
          "internalType": "uint256",
          "name": "points",
          "type": "uint256"
        }
      ],
      "name": "Consume",
      "type": "event"
    },
    {
      "anonymous": false,
      "inputs": [
        {
          "indexed": true,
          "internalType": "address",
          "name": "user",
          "type": "address"
        },
        {
          "indexed": false,
          "internalType": "uint256",
          "name": "amount",
          "type": "uint256"
        },
        {
          "indexed": false,
          "internalType": "uint256",
          "name": "id",
          "type": "uint256"
        }
      ],
      "name": "Lock",
      "type": "event"
    },
    {
      "anonymous": false,
      "inputs": [
        {
          "indexed": true,
          "internalType": "address",
          "name": "previousOwner",
          "type": "address"
        },
        {
          "indexed": true,
          "internalType": "address",
          "name": "newOwner",
          "type": "address"
        }
      ],
      "name": "OwnershipTransferred",
      "type": "event"
    },
    {
      "anonymous": false,
      "inputs": [
        {
          "indexed": true,
          "internalType": "address",
          "name": "user",
          "type": "address"
        },
        {
          "indexed": false,
          "internalType": "uint256",
          "name": "amount",
          "type": "uint256"
        },
        {
          "indexed": false,
          "internalType": "uint256",
          "name": "id",
          "type": "uint256"
        }
      ],
      "name": "Redeem",
      "type": "event"
    },
    {
      "constant": true,
      "inputs": [],
      "name": "btflx",
      "outputs": [
        {
          "internalType": "contract IERC20",
          "name": "",
          "type": "address"
        }
      ],
      "payable": false,
      "stateMutability": "view",
      "type": "function"
    },
    {
      "constant": true,
      "inputs": [],
      "name": "initialized",
      "outputs": [
        {
          "internalType": "bool",
          "name": "",
          "type": "bool"
        }
      ],
      "payable": false,
      "stateMutability": "view",
      "type": "function"
    },
    {
      "constant": true,
      "inputs": [],
      "name": "isOwner",
      "outputs": [
        {
          "internalType": "bool",
          "name": "",
          "type": "bool"
        }
      ],
      "payable": false,
      "stateMutability": "view",
      "type": "function"
    },
    {
      "constant": true,
      "inputs": [],
      "name": "lockDuration",
      "outputs": [
        {
          "internalType": "uint256",
          "name": "",
          "type": "uint256"
        }
      ],
      "payable": false,
      "stateMutability": "view",
      "type": "function"
    },
    {
      "constant": true,
      "inputs": [],
      "name": "lockRate",
      "outputs": [
        {
          "internalType": "uint256",
          "name": "",
          "type": "uint256"
        }
      ],
      "payable": false,
      "stateMutability": "view",
      "type": "function"
    },
    {
      "constant": true,
      "inputs": [],
      "name": "lockRateMax",
      "outputs": [
        {
          "internalType": "uint256",
          "name": "",
          "type": "uint256"
        }
      ],
      "payable": false,
      "stateMutability": "view",
      "type": "function"
    },
    {
      "constant": true,
      "inputs": [
        {
          "internalType": "uint256",
          "name": "",
          "type": "uint256"
        }
      ],
      "name": "locks",
      "outputs": [
        {
          "internalType": "uint256",
          "name": "id",
          "type": "uint256"
        },
        {
          "internalType": "address",
          "name": "user",
          "type": "address"
        },
        {
          "internalType": "uint256",
          "name": "amount",
          "type": "uint256"
        },
        {
          "internalType": "uint256",
          "name": "duration",
          "type": "uint256"
        },
        {
          "internalType": "uint256",
          "name": "startTime",
          "type": "uint256"
        },
        {
          "internalType": "bool",
          "name": "redeemed",
          "type": "bool"
        }
      ],
      "payable": false,
      "stateMutability": "view",
      "type": "function"
    },
    {
      "constant": true,
      "inputs": [],
      "name": "marketplace",
      "outputs": [
        {
          "internalType": "address",
          "name": "",
          "type": "address"
        }
      ],
      "payable": false,
      "stateMutability": "view",
      "type": "function"
    },
    {
      "constant": true,
      "inputs": [],
      "name": "owner",
      "outputs": [
        {
          "internalType": "address",
          "name": "",
          "type": "address"
        }
      ],
      "payable": false,
      "stateMutability": "view",
      "type": "function"
    },
    {
      "constant": true,
      "inputs": [
        {
          "internalType": "address",
          "name": "",
          "type": "address"
        }
      ],
      "name": "points",
      "outputs": [
        {
          "internalType": "uint256",
          "name": "",
          "type": "uint256"
        }
      ],
      "payable": false,
      "stateMutability": "view",
      "type": "function"
    },
    {
      "constant": false,
      "inputs": [],
      "name": "renounceOwnership",
      "outputs": [],
      "payable": false,
      "stateMutability": "nonpayable",
      "type": "function"
    },
    {
      "constant": false,
      "inputs": [
        {
          "internalType": "address",
          "name": "newOwner",
          "type": "address"
        }
      ],
      "name": "transferOwnership",
      "outputs": [],
      "payable": false,
      "stateMutability": "nonpayable",
      "type": "function"
    },
    {
      "constant": true,
      "inputs": [
        {
          "internalType": "address",
          "name": "",
          "type": "address"
        },
        {
          "internalType": "uint256",
          "name": "",
          "type": "uint256"
        }
      ],
      "name": "userLockIds",
      "outputs": [
        {
          "internalType": "uint256",
          "name": "",
          "type": "uint256"
        }
      ],
      "payable": false,
      "stateMutability": "view",
      "type": "function"
    },
    {
      "constant": false,
      "inputs": [
        {
          "internalType": "uint256",
          "name": "lockRate_",
          "type": "uint256"
        },
        {
          "internalType": "uint256",
          "name": "lockDuration_",
          "type": "uint256"
        },
        {
          "internalType": "address",
          "name": "marketplace_",
          "type": "address"
        }
      ],
      "name": "initialize",
      "outputs": [],
      "payable": false,
      "stateMutability": "nonpayable",
      "type": "function"
    },
    {
      "constant": false,
      "inputs": [
        {
          "internalType": "address",
          "name": "newMarketplace",
          "type": "address"
        }
      ],
      "name": "updateMarketplace",
      "outputs": [],
      "payable": false,
      "stateMutability": "nonpayable",
      "type": "function"
    },
    {
      "constant": false,
      "inputs": [
        {
          "internalType": "uint256",
          "name": "amount",
          "type": "uint256"
        }
      ],
      "name": "lock",
      "outputs": [],
      "payable": false,
      "stateMutability": "nonpayable",
      "type": "function"
    },
    {
      "constant": true,
      "inputs": [],
      "name": "lockLength",
      "outputs": [
        {
          "internalType": "uint256",
          "name": "",
          "type": "uint256"
        }
      ],
      "payable": false,
      "stateMutability": "view",
      "type": "function"
    },
    {
      "constant": false,
      "inputs": [
        {
          "internalType": "uint256",
          "name": "id",
          "type": "uint256"
        }
      ],
      "name": "redeem",
      "outputs": [],
      "payable": false,
      "stateMutability": "nonpayable",
      "type": "function"
    },
    {
      "constant": false,
      "inputs": [
        {
          "internalType": "address",
          "name": "user",
          "type": "address"
        },
        {
          "internalType": "uint256",
          "name": "val",
          "type": "uint256"
        }
      ],
      "name": "consume",
      "outputs": [],
      "payable": false,
      "stateMutability": "nonpayable",
      "type": "function"
    },
    {
      "constant": true,
      "inputs": [
        {
          "internalType": "address",
          "name": "user",
          "type": "address"
        }
      ],
      "name": "pointOf",
      "outputs": [
        {
          "internalType": "uint256",
          "name": "",
          "type": "uint256"
        }
      ],
      "payable": false,
      "stateMutability": "view",
      "type": "function"
    },
    {
      "constant": true,
      "inputs": [
        {
          "internalType": "address",
          "name": "user",
          "type": "address"
        }
      ],
      "name": "getUserLockIds",
      "outputs": [
        {
          "internalType": "uint256[]",
          "name": "",
          "type": "uint256[]"
        }
      ],
      "payable": false,
      "stateMutability": "view",
      "type": "function"
    }
  ],
  "bytecode": "0x60806040526004805460ff1916905561271060075534801561002057600080fd5b506040516111863803806111868339818101604052602081101561004357600080fd5b505160006100586001600160e01b036100c716565b600080546001600160a01b0319166001600160a01b0383169081178255604051929350917f8be0079c531659141344cd1fd0a4f28419497f9722a3daafe3b4186f6b6457e0908290a350600980546001600160a01b0319166001600160a01b03929092169190911790556100cb565b3390565b6110ac806100da6000396000f3fe608060405234801561001057600080fd5b50600436106101375760003560e01c8063836278f1116100b8578063db006a751161007c578063db006a75146102f0578063dd4670641461030d578063eb6363171461032a578063f2fde38b14610350578063f4dadc6114610376578063ff669879146103d057610137565b8063836278f1146102805780638da5cb5b146102a65780638f32d59b146102ae578063a6ab36f2146102b6578063abc8c7af146102e857610137565b8063358b8166116100ff578063358b8166146101b05780635348d210146101d65780635b874405146101fa578063689ea01814610202578063715018a61461027857610137565b8063045544431461013c578063158ef93e14610156578063224b5c7214610172578063234ea19c146101a0578063358041a1146101a8575b600080fd5b6101446103fc565b60408051918252519081900360200190f35b61015e610402565b604080519115158252519081900360200190f35b61019e6004803603604081101561018857600080fd5b506001600160a01b03813516906020013561040b565b005b610144610518565b61014461051e565b610144600480360360208110156101c657600080fd5b50356001600160a01b0316610524565b6101de610536565b604080516001600160a01b039092168252519081900360200190f35b610144610545565b6102286004803603602081101561021857600080fd5b50356001600160a01b031661054b565b60408051602080825283518183015283519192839290830191858101910280838360005b8381101561026457818101518382015260200161024c565b505050509050019250505060405180910390f35b61019e6105b7565b6101446004803603602081101561029657600080fd5b50356001600160a01b031661065a565b6101de610675565b61015e610684565b61019e600480360360608110156102cc57600080fd5b50803590602081013590604001356001600160a01b03166106a8565b6101de610725565b61019e6004803603602081101561030657600080fd5b5035610734565b61019e6004803603602081101561032357600080fd5b50356108e7565b61019e6004803603602081101561034057600080fd5b50356001600160a01b0316610bf2565b61019e6004803603602081101561036657600080fd5b50356001600160a01b0316610c6d565b6103936004803603602081101561038c57600080fd5b5035610cd2565b604080519687526001600160a01b0390951660208701528585019390935260608501919091526080840152151560a0830152519081900360c00190f35b610144600480360360408110156103e657600080fd5b506001600160a01b038135169060200135610d22565b60065481565b60045460ff1681565b6008546001600160a01b03163314610456576040805162461bcd60e51b81526020600482015260096024820152682337b93134b23232b760b91b604482015290519081900360640190fd5b60008111610499576040805162461bcd60e51b815260206004820152600b60248201526a043616e6e6f7420626520360ac1b604482015290519081900360640190fd5b6001600160a01b0382166000908152600160205260409020546104c2908263ffffffff610d5016565b6001600160a01b038316600081815260016020908152604091829020939093558051848152905191927fb3762e93ec66871dd27c421b64edc79636345ff0a949cd04f7f8efce5bd4240e92918290030190a25050565b60055481565b60075481565b60016020526000908152604090205481565b6009546001600160a01b031681565b60025490565b6001600160a01b0381166000908152600360209081526040918290208054835181840281018401909452808452606093928301828280156105ab57602002820191906000526020600020905b815481526020019060010190808311610597575b50505050509050919050565b6105bf610684565b610610576040805162461bcd60e51b815260206004820181905260248201527f4f776e61626c653a2063616c6c6572206973206e6f7420746865206f776e6572604482015290519081900360640190fd5b600080546040516001600160a01b03909116907f8be0079c531659141344cd1fd0a4f28419497f9722a3daafe3b4186f6b6457e0908390a3600080546001600160a01b0319169055565b6001600160a01b031660009081526001602052604090205490565b6000546001600160a01b031690565b600080546001600160a01b0316610699610d9b565b6001600160a01b031614905090565b60045460ff16156106ee576040805162461bcd60e51b815260206004820152600b60248201526a125b9a5d1a585b1a5e995960aa1b604482015290519081900360640190fd5b600592909255600655600880546001600160a01b0319166001600160a01b039092169190911790556004805460ff19166001179055565b6008546001600160a01b031681565b60006002828154811061074357fe5b60009182526020909120600690910201600581015490915060ff161561079b576040805162461bcd60e51b815260206004820152600860248201526714995919595b595960c21b604482015290519081900360640190fd5b426107b782600401548360030154610d9f90919063ffffffff16565b11156107f4576040805162461bcd60e51b81526020600482015260076024820152664c6f636b696e6760c81b604482015290519081900360640190fd5b600954600182015460028301546040805163a9059cbb60e01b81526001600160a01b039384166004820152602481019290925251919092169163a9059cbb9160448083019260209291908290030181600087803b15801561085457600080fd5b505af1158015610868573d6000803e3d6000fd5b505050506040513d602081101561087e57600080fd5b505060058101805460ff191660019081179091558101546002820154825460408051928352602083019190915280516001600160a01b03909316927fe5b754fb1abb7f01b499791d0b820ae3b6af3424ac1c59768edb53f4ec31a9299281900390910190a25050565b6000811161093c576040805162461bcd60e51b815260206004820152601760248201527f4c6f636b20616d6f756e742063616e6e6f742062652030000000000000000000604482015290519081900360640190fd5b600954604080516323b872dd60e01b81523360048201523060248201526044810184905290516001600160a01b03909216916323b872dd916064808201926020929091908290030181600087803b15801561099657600080fd5b505af11580156109aa573d6000803e3d6000fd5b505050506040513d60208110156109c057600080fd5b50506040805160c0810182526002805480835233602080850182815285870188815260068054606089019081524260808a01908152600060a08b018181526001808b018c558b83529b517f405787fa12a823e0f2b7631cc41b3ba8828b3321ca811111fa75cd3aa3bb5ace95909a029485019990995594517f405787fa12a823e0f2b7631cc41b3ba8828b3321ca811111fa75cd3aa3bb5acf840180546001600160a01b0319166001600160a01b0390921691909117905592517f405787fa12a823e0f2b7631cc41b3ba8828b3321ca811111fa75cd3aa3bb5ad0830155517f405787fa12a823e0f2b7631cc41b3ba8828b3321ca811111fa75cd3aa3bb5ad182015590517f405787fa12a823e0f2b7631cc41b3ba8828b3321ca811111fa75cd3aa3bb5ad282015593517f405787fa12a823e0f2b7631cc41b3ba8828b3321ca811111fa75cd3aa3bb5ad3909401805460ff1916941515949094179093559082526003815293812091548254938401835591815292832060001991909101910155600754600554610b7091670de0b6b3a764000091610b64919082908790610df9565b9063ffffffff610e5216565b33600090815260016020526040902054909150610b93908263ffffffff610d9f16565b3360008181526001602090815260409182902093909355600254815186815260001990910193810193909352805191927f49eaf4942f1237055eb4cfa5f31c9dfe50d5b4ade01e021f7de8be2fbbde557b929081900390910190a25050565b610bfa610684565b610c4b576040805162461bcd60e51b815260206004820181905260248201527f4f776e61626c653a2063616c6c6572206973206e6f7420746865206f776e6572604482015290519081900360640190fd5b600880546001600160a01b0319166001600160a01b0392909216919091179055565b610c75610684565b610cc6576040805162461bcd60e51b815260206004820181905260248201527f4f776e61626c653a2063616c6c6572206973206e6f7420746865206f776e6572604482015290519081900360640190fd5b610ccf81610e94565b50565b60028181548110610cdf57fe5b60009182526020909120600690910201805460018201546002830154600384015460048501546005909501549395506001600160a01b0390921693909260ff1686565b60036020528160005260406000208181548110610d3b57fe5b90600052602060002001600091509150505481565b6000610d9283836040518060400160405280601e81526020017f536166654d6174683a207375627472616374696f6e206f766572666c6f770000815250610f34565b90505b92915050565b3390565b600082820183811015610d92576040805162461bcd60e51b815260206004820152601b60248201527f536166654d6174683a206164646974696f6e206f766572666c6f770000000000604482015290519081900360640190fd5b600082610e0857506000610d95565b82820282848281610e1557fe5b0414610d925760405162461bcd60e51b81526004018080602001828103825260218152602001806110576021913960400191505060405180910390fd5b6000610d9283836040518060400160405280601a81526020017f536166654d6174683a206469766973696f6e206279207a65726f000000000000815250610fcb565b6001600160a01b038116610ed95760405162461bcd60e51b81526004018080602001828103825260268152602001806110316026913960400191505060405180910390fd5b600080546040516001600160a01b03808516939216917f8be0079c531659141344cd1fd0a4f28419497f9722a3daafe3b4186f6b6457e091a3600080546001600160a01b0319166001600160a01b0392909216919091179055565b60008184841115610fc35760405162461bcd60e51b81526004018080602001828103825283818151815260200191508051906020019080838360005b83811015610f88578181015183820152602001610f70565b50505050905090810190601f168015610fb55780820380516001836020036101000a031916815260200191505b509250505060405180910390fd5b505050900390565b6000818361101a5760405162461bcd60e51b8152602060048201818152835160248401528351909283926044909101919085019080838360008315610f88578181015183820152602001610f70565b50600083858161102657fe5b049594505050505056fe4f776e61626c653a206e6577206f776e657220697320746865207a65726f2061646472657373536166654d6174683a206d756c7469706c69636174696f6e206f766572666c6f77a265627a7a72315820280a1e058e695b360938e1d389d68281d301f8cd9805d5640dfa59b739266bd264736f6c63430005100032",
  "source": "pragma solidity ^0.5.2;\n\nimport \"openzeppelin-solidity/contracts/ownership/Ownable.sol\";\nimport \"openzeppelin-solidity/contracts/math/SafeMath.sol\";\nimport \"openzeppelin-solidity/contracts/token/ERC20/IERC20.sol\";\n\n\nimport \"./IBitflixPoint.sol\";\n\n\ncontract BitflixPoint is IBitflixPoint, Ownable {\n\tusing SafeMath for uint256;\n\tmapping (address => uint256) public points;\n\n\tstruct UserLock {\n\t\tuint256 id;\n\t\taddress user;\n\t\tuint256 amount;\n\t\tuint256 duration;\n\t\tuint256 startTime;\n\t\tbool redeemed;\n\t}\n\n\tUserLock[] public locks;\n\n\tmapping (address => uint256[]) public userLockIds;\n\n\t\n\tbool public initialized = false;\n\tuint256 public lockRate;\n\tuint256 public lockDuration;\n\tuint256 public lockRateMax = 10000;\n\taddress public marketplace;\n\n\tIERC20 public btflx;\n\n\tevent Lock(address indexed user, uint256 amount, uint256 id);\n\tevent Redeem(address indexed user, uint256 amount, uint256 id);\n\tevent Consume(address indexed user, uint256 points);\n\n\tmodifier onlyMarketplace() { \n\t\trequire (msg.sender == marketplace, \"Forbidden\"); \n\t\t_; \n\t}\n\t\n\n\tconstructor(address btflx_) public {\n\t\tbtflx = IERC20(btflx_);\n\t}\n\n\tfunction initialize(uint256 lockRate_, uint256 lockDuration_, address marketplace_) public {\n\t\trequire(!initialized, \"Initialized\");\n\t\tlockRate = lockRate_;\n\t\tlockDuration = lockDuration_;\n\t\tmarketplace = marketplace_;\n\t\tinitialized = true;\n\t}\n\n\tfunction updateMarketplace(address newMarketplace) public onlyOwner {\n\t\tmarketplace = newMarketplace;\n\t}\n\n\tfunction lock(uint256 amount) public {\n\t\trequire(amount > 0, \"Lock amount cannot be 0\");\n\t\tbtflx.transferFrom(msg.sender, address(this), amount);\n\t\tlocks.push(UserLock({\n\t\t\tid: locks.length,\n\t\t\tuser: msg.sender,\n\t\t\tamount: amount,\n\t\t\tduration: lockDuration,\n\t\t\tstartTime: now,\n\t\t\tredeemed: false\n\t\t}));\n\t\tuserLockIds[msg.sender].push(locks.length - 1);\n\n\t\tuint256 point = amount.mul(lockRate).div(lockRateMax).div(1e18);\n\t\tpoints[msg.sender] = points[msg.sender].add(point);\n\n\t\temit Lock(msg.sender, amount, locks.length - 1);\n\t}\n\n\tfunction lockLength() public view returns(uint256) {\n\t\treturn locks.length;\n\t}\n\n\tfunction redeem(uint256 id) public {\n\t\tUserLock storage ulock = locks[id];\n\t\trequire(!ulock.redeemed, \"Redeemed\");\n\t\trequire(ulock.duration.add(ulock.startTime) <= now, \"Locking\");\n\t\tbtflx.transfer(ulock.user, ulock.amount);\n\t\tulock.redeemed = true;\n\t\temit Redeem(ulock.user, ulock.amount, ulock.id);\n\t}\n\n\tfunction consume(address user, uint256 val) public onlyMarketplace {\n\t\trequire(val > 0, \"Cannot be 0\");\n\t\tpoints[user] = points[user].sub(val);\n\t\temit Consume(user, val);\n\t}\n\n\tfunction pointOf(address user) public view returns(uint256) {\n\t\treturn points[user];\n\t}\n\n\tfunction getUserLockIds(address user) public view returns(uint256[] memory) {\n\t\treturn userLockIds[user];\n\t}\n}",
  "sourcePath": "/Users/yxf/app/bitflix-nft-marketplace/contracts/core/BitflixPoint.sol",
  "compiler": {
    "name": "solc",
    "version": "0.5.16+commit.9c3226ce.Emscripten.clang"
  },
  "schemaVersion": "3.2.3",
  "updatedAt": "2021-06-16T09:04:33.008Z",
  "devdoc": {
    "methods": {
      "isOwner()": {
        "details": "Returns true if the caller is the current owner."
      },
      "owner()": {
        "details": "Returns the address of the current owner."
      },
      "renounceOwnership()": {
        "details": "Leaves the contract without owner. It will not be possible to call `onlyOwner` functions anymore. Can only be called by the current owner.     * NOTE: Renouncing ownership will leave the contract without an owner, thereby removing any functionality that is only available to the owner."
      },
      "transferOwnership(address)": {
        "details": "Transfers ownership of the contract to a new account (`newOwner`). Can only be called by the current owner."
      }
    }
  },
  "userdoc": {
    "methods": {}
  }
}