{
  "contractName": "BitflixNFT",
  "abi": [
    {
      "inputs": [],
      "payable": false,
      "stateMutability": "nonpayable",
      "type": "constructor"
    },
    {
      "anonymous": false,
      "inputs": [
        {
          "indexed": true,
          "internalType": "address",
          "name": "owner",
          "type": "address"
        },
        {
          "indexed": true,
          "internalType": "address",
          "name": "approved",
          "type": "address"
        },
        {
          "indexed": true,
          "internalType": "uint256",
          "name": "tokenId",
          "type": "uint256"
        }
      ],
      "name": "Approval",
      "type": "event"
    },
    {
      "anonymous": false,
      "inputs": [
        {
          "indexed": true,
          "internalType": "address",
          "name": "owner",
          "type": "address"
        },
        {
          "indexed": true,
          "internalType": "address",
          "name": "operator",
          "type": "address"
        },
        {
          "indexed": false,
          "internalType": "bool",
          "name": "approved",
          "type": "bool"
        }
      ],
      "name": "ApprovalForAll",
      "type": "event"
    },
    {
      "anonymous": false,
      "inputs": [
        {
          "indexed": true,
          "internalType": "address",
          "name": "previousOwner",
          "type": "address"
        },
        {
          "indexed": true,
          "internalType": "address",
          "name": "newOwner",
          "type": "address"
        }
      ],
      "name": "OwnershipTransferred",
      "type": "event"
    },
    {
      "anonymous": false,
      "inputs": [
        {
          "indexed": true,
          "internalType": "address",
          "name": "from",
          "type": "address"
        },
        {
          "indexed": true,
          "internalType": "address",
          "name": "to",
          "type": "address"
        },
        {
          "indexed": true,
          "internalType": "uint256",
          "name": "tokenId",
          "type": "uint256"
        }
      ],
      "name": "Transfer",
      "type": "event"
    },
    {
      "constant": false,
      "inputs": [
        {
          "internalType": "address",
          "name": "to",
          "type": "address"
        },
        {
          "internalType": "uint256",
          "name": "tokenId",
          "type": "uint256"
        }
      ],
      "name": "approve",
      "outputs": [],
      "payable": false,
      "stateMutability": "nonpayable",
      "type": "function"
    },
    {
      "constant": true,
      "inputs": [
        {
          "internalType": "address",
          "name": "owner",
          "type": "address"
        }
      ],
      "name": "balanceOf",
      "outputs": [
        {
          "internalType": "uint256",
          "name": "",
          "type": "uint256"
        }
      ],
      "payable": false,
      "stateMutability": "view",
      "type": "function"
    },
    {
      "constant": true,
      "inputs": [],
      "name": "baseURI",
      "outputs": [
        {
          "internalType": "string",
          "name": "",
          "type": "string"
        }
      ],
      "payable": false,
      "stateMutability": "view",
      "type": "function"
    },
    {
      "constant": true,
      "inputs": [
        {
          "internalType": "uint256",
          "name": "tokenId",
          "type": "uint256"
        }
      ],
      "name": "getApproved",
      "outputs": [
        {
          "internalType": "address",
          "name": "",
          "type": "address"
        }
      ],
      "payable": false,
      "stateMutability": "view",
      "type": "function"
    },
    {
      "constant": true,
      "inputs": [
        {
          "internalType": "address",
          "name": "owner",
          "type": "address"
        },
        {
          "internalType": "address",
          "name": "operator",
          "type": "address"
        }
      ],
      "name": "isApprovedForAll",
      "outputs": [
        {
          "internalType": "bool",
          "name": "",
          "type": "bool"
        }
      ],
      "payable": false,
      "stateMutability": "view",
      "type": "function"
    },
    {
      "constant": true,
      "inputs": [],
      "name": "isOwner",
      "outputs": [
        {
          "internalType": "bool",
          "name": "",
          "type": "bool"
        }
      ],
      "payable": false,
      "stateMutability": "view",
      "type": "function"
    },
    {
      "constant": true,
      "inputs": [],
      "name": "name",
      "outputs": [
        {
          "internalType": "string",
          "name": "",
          "type": "string"
        }
      ],
      "payable": false,
      "stateMutability": "view",
      "type": "function"
    },
    {
      "constant": true,
      "inputs": [],
      "name": "owner",
      "outputs": [
        {
          "internalType": "address",
          "name": "",
          "type": "address"
        }
      ],
      "payable": false,
      "stateMutability": "view",
      "type": "function"
    },
    {
      "constant": true,
      "inputs": [
        {
          "internalType": "uint256",
          "name": "tokenId",
          "type": "uint256"
        }
      ],
      "name": "ownerOf",
      "outputs": [
        {
          "internalType": "address",
          "name": "",
          "type": "address"
        }
      ],
      "payable": false,
      "stateMutability": "view",
      "type": "function"
    },
    {
      "constant": false,
      "inputs": [],
      "name": "renounceOwnership",
      "outputs": [],
      "payable": false,
      "stateMutability": "nonpayable",
      "type": "function"
    },
    {
      "constant": false,
      "inputs": [
        {
          "internalType": "address",
          "name": "from",
          "type": "address"
        },
        {
          "internalType": "address",
          "name": "to",
          "type": "address"
        },
        {
          "internalType": "uint256",
          "name": "tokenId",
          "type": "uint256"
        }
      ],
      "name": "safeTransferFrom",
      "outputs": [],
      "payable": false,
      "stateMutability": "nonpayable",
      "type": "function"
    },
    {
      "constant": false,
      "inputs": [
        {
          "internalType": "address",
          "name": "from",
          "type": "address"
        },
        {
          "internalType": "address",
          "name": "to",
          "type": "address"
        },
        {
          "internalType": "uint256",
          "name": "tokenId",
          "type": "uint256"
        },
        {
          "internalType": "bytes",
          "name": "_data",
          "type": "bytes"
        }
      ],
      "name": "safeTransferFrom",
      "outputs": [],
      "payable": false,
      "stateMutability": "nonpayable",
      "type": "function"
    },
    {
      "constant": false,
      "inputs": [
        {
          "internalType": "address",
          "name": "to",
          "type": "address"
        },
        {
          "internalType": "bool",
          "name": "approved",
          "type": "bool"
        }
      ],
      "name": "setApprovalForAll",
      "outputs": [],
      "payable": false,
      "stateMutability": "nonpayable",
      "type": "function"
    },
    {
      "constant": true,
      "inputs": [
        {
          "internalType": "bytes4",
          "name": "interfaceId",
          "type": "bytes4"
        }
      ],
      "name": "supportsInterface",
      "outputs": [
        {
          "internalType": "bool",
          "name": "",
          "type": "bool"
        }
      ],
      "payable": false,
      "stateMutability": "view",
      "type": "function"
    },
    {
      "constant": true,
      "inputs": [],
      "name": "symbol",
      "outputs": [
        {
          "internalType": "string",
          "name": "",
          "type": "string"
        }
      ],
      "payable": false,
      "stateMutability": "view",
      "type": "function"
    },
    {
      "constant": true,
      "inputs": [
        {
          "internalType": "uint256",
          "name": "index",
          "type": "uint256"
        }
      ],
      "name": "tokenByIndex",
      "outputs": [
        {
          "internalType": "uint256",
          "name": "",
          "type": "uint256"
        }
      ],
      "payable": false,
      "stateMutability": "view",
      "type": "function"
    },
    {
      "constant": true,
      "inputs": [
        {
          "internalType": "address",
          "name": "owner",
          "type": "address"
        },
        {
          "internalType": "uint256",
          "name": "index",
          "type": "uint256"
        }
      ],
      "name": "tokenOfOwnerByIndex",
      "outputs": [
        {
          "internalType": "uint256",
          "name": "",
          "type": "uint256"
        }
      ],
      "payable": false,
      "stateMutability": "view",
      "type": "function"
    },
    {
      "constant": true,
      "inputs": [
        {
          "internalType": "uint256",
          "name": "tokenId",
          "type": "uint256"
        }
      ],
      "name": "tokenURI",
      "outputs": [
        {
          "internalType": "string",
          "name": "",
          "type": "string"
        }
      ],
      "payable": false,
      "stateMutability": "view",
      "type": "function"
    },
    {
      "constant": true,
      "inputs": [
        {
          "internalType": "uint256",
          "name": "",
          "type": "uint256"
        }
      ],
      "name": "token_infos",
      "outputs": [
        {
          "internalType": "string",
          "name": "title",
          "type": "string"
        },
        {
          "internalType": "uint8",
          "name": "class_id",
          "type": "uint8"
        },
        {
          "internalType": "uint8",
          "name": "size",
          "type": "uint8"
        }
      ],
      "payable": false,
      "stateMutability": "view",
      "type": "function"
    },
    {
      "constant": true,
      "inputs": [],
      "name": "totalSupply",
      "outputs": [
        {
          "internalType": "uint256",
          "name": "",
          "type": "uint256"
        }
      ],
      "payable": false,
      "stateMutability": "view",
      "type": "function"
    },
    {
      "constant": false,
      "inputs": [
        {
          "internalType": "address",
          "name": "from",
          "type": "address"
        },
        {
          "internalType": "address",
          "name": "to",
          "type": "address"
        },
        {
          "internalType": "uint256",
          "name": "tokenId",
          "type": "uint256"
        }
      ],
      "name": "transferFrom",
      "outputs": [],
      "payable": false,
      "stateMutability": "nonpayable",
      "type": "function"
    },
    {
      "constant": false,
      "inputs": [
        {
          "internalType": "address",
          "name": "newOwner",
          "type": "address"
        }
      ],
      "name": "transferOwnership",
      "outputs": [],
      "payable": false,
      "stateMutability": "nonpayable",
      "type": "function"
    },
    {
      "constant": false,
      "inputs": [
        {
          "internalType": "address",
          "name": "user_address",
          "type": "address"
        },
        {
          "internalType": "string",
          "name": "title",
          "type": "string"
        },
        {
          "internalType": "uint8",
          "name": "class_id",
          "type": "uint8"
        },
        {
          "internalType": "uint8",
          "name": "size",
          "type": "uint8"
        }
      ],
      "name": "createNFT",
      "outputs": [],
      "payable": false,
      "stateMutability": "nonpayable",
      "type": "function"
    },
    {
      "constant": true,
      "inputs": [
        {
          "internalType": "uint256",
          "name": "tokenId",
          "type": "uint256"
        }
      ],
      "name": "getNFT",
      "outputs": [
        {
          "internalType": "string",
          "name": "title",
          "type": "string"
        },
        {
          "internalType": "uint8",
          "name": "class_id",
          "type": "uint8"
        },
        {
          "internalType": "uint8",
          "name": "size",
          "type": "uint8"
        }
      ],
      "payable": false,
      "stateMutability": "view",
      "type": "function"
    }
  ],
  "bytecode": "0x60806040523480156200001157600080fd5b50604080518082018252600a815269109a5d199b1a5e13919560b21b602080830191909152825180840190935260048352631093919560e21b908301529081816200006c6301ffc9a760e01b6001600160e01b036200015316565b620000876380ac58cd60e01b6001600160e01b036200015316565b620000a263780e9d6360e01b6001600160e01b036200015316565b8151620000b7906009906020850190620001dd565b508051620000cd90600a906020840190620001dd565b50620000e9635b5e139f60e01b6001600160e01b036200015316565b505050506000620000ff620001d860201b60201c565b600d80546001600160a01b0319166001600160a01b038316908117909155604051919250906000907f8be0079c531659141344cd1fd0a4f28419497f9722a3daafe3b4186f6b6457e0908290a3506200027f565b6001600160e01b03198082161415620001b3576040805162461bcd60e51b815260206004820152601c60248201527f4552433136353a20696e76616c696420696e7465726661636520696400000000604482015290519081900360640190fd5b6001600160e01b0319166000908152602081905260409020805460ff19166001179055565b335b90565b828054600181600116156101000203166002900490600052602060002090601f016020900481019282601f106200022057805160ff191683800117855562000250565b8280016001018555821562000250579182015b828111156200025057825182559160200191906001019062000233565b506200025e92915062000262565b5090565b620001da91905b808211156200025e576000815560010162000269565b61202f806200028f6000396000f3fe608060405234801561001057600080fd5b50600436106101585760003560e01c80636352211e116100c357806395d89b411161007c57806395d89b4114610505578063a22cb4651461050d578063b88d4fde1461053b578063c87b56dd14610601578063e985e9c51461061e578063f2fde38b1461064c57610158565b80636352211e146104a25780636c0360eb146104bf57806370a08231146104c7578063715018a6146104ed5780638da5cb5b146104f55780638f32d59b146104fd57610158565b80632f745c59116101155780632f745c59146102cc57806342842e0e146102f85780634f6ccce71461032e578063576f7ea71461034b5780635c1d7a6a146103fa5780635e82866e1461048557610158565b806301ffc9a71461015d57806306fdde0314610198578063081812fc14610215578063095ea7b31461024e57806318160ddd1461027c57806323b872dd14610296575b600080fd5b6101846004803603602081101561017357600080fd5b50356001600160e01b031916610672565b604080519115158252519081900360200190f35b6101a0610695565b6040805160208082528351818301528351919283929083019185019080838360005b838110156101da5781810151838201526020016101c2565b50505050905090810190601f1680156102075780820380516001836020036101000a031916815260200191505b509250505060405180910390f35b6102326004803603602081101561022b57600080fd5b503561072c565b604080516001600160a01b039092168252519081900360200190f35b61027a6004803603604081101561026457600080fd5b506001600160a01b03813516906020013561078e565b005b6102846108b6565b60408051918252519081900360200190f35b61027a600480360360608110156102ac57600080fd5b506001600160a01b038135811691602081013590911690604001356108bc565b610284600480360360408110156102e257600080fd5b506001600160a01b038135169060200135610918565b61027a6004803603606081101561030e57600080fd5b506001600160a01b03813581169160208101359091169060400135610997565b6102846004803603602081101561034457600080fd5b50356109b2565b6103686004803603602081101561036157600080fd5b5035610a18565b60405180806020018460ff1660ff1681526020018360ff1660ff168152602001828103825285818151815260200191508051906020019080838360005b838110156103bd5781810151838201526020016103a5565b50505050905090810190601f1680156103ea5780820380516001836020036101000a031916815260200191505b5094505050505060405180910390f35b61027a6004803603608081101561041057600080fd5b6001600160a01b03823516919081019060408101602082013564010000000081111561043b57600080fd5b82018360208201111561044d57600080fd5b8035906020019184600183028401116401000000008311171561046f57600080fd5b919350915060ff81358116916020013516610b3c565b6103686004803603602081101561049b57600080fd5b5035610c6e565b610232600480360360208110156104b857600080fd5b5035610d2d565b6101a0610d87565b610284600480360360208110156104dd57600080fd5b50356001600160a01b0316610de8565b61027a610e50565b610232610ef3565b610184610f02565b6101a0610f28565b61027a6004803603604081101561052357600080fd5b506001600160a01b0381351690602001351515610f89565b61027a6004803603608081101561055157600080fd5b6001600160a01b0382358116926020810135909116916040820135919081019060808101606082013564010000000081111561058c57600080fd5b82018360208201111561059e57600080fd5b803590602001918460018302840111640100000000831117156105c057600080fd5b91908080601f01602080910402602001604051908101604052809392919081815260200183838082843760009201919091525092955061108e945050505050565b6101a06004803603602081101561061757600080fd5b50356110ec565b6101846004803603604081101561063457600080fd5b506001600160a01b03813581169160200135166112b8565b61027a6004803603602081101561066257600080fd5b50356001600160a01b03166112e6565b6001600160e01b0319811660009081526020819052604090205460ff165b919050565b60098054604080516020601f60026000196101006001881615020190951694909404938401819004810282018101909252828152606093909290918301828280156107215780601f106106f657610100808354040283529160200191610721565b820191906000526020600020905b81548152906001019060200180831161070457829003601f168201915b505050505090505b90565b60006107378261134b565b6107725760405162461bcd60e51b815260040180806020018281038252602c815260200180611ef9602c913960400191505060405180910390fd5b506000908152600260205260409020546001600160a01b031690565b600061079982610d2d565b9050806001600160a01b0316836001600160a01b031614156107ec5760405162461bcd60e51b8152600401808060200182810382526021815260200180611f7d6021913960400191505060405180910390fd5b806001600160a01b03166107fe611368565b6001600160a01b0316148061081f575061081f8161081a611368565b6112b8565b61085a5760405162461bcd60e51b8152600401808060200182810382526038815260200180611e6e6038913960400191505060405180910390fd5b60008281526002602052604080822080546001600160a01b0319166001600160a01b0387811691821790925591518593918516917f8c5be1e5ebec7d5bd14f71427d1e84f3dd0314c0f7b2291e5b200ac8c7c3b92591a4505050565b60075490565b6108cd6108c7611368565b8261136c565b6109085760405162461bcd60e51b8152600401808060200182810382526031815260200180611f9e6031913960400191505060405180910390fd5b610913838383611410565b505050565b600061092383610de8565b82106109605760405162461bcd60e51b815260040180806020018281038252602b815260200180611d9b602b913960400191505060405180910390fd5b6001600160a01b038316600090815260056020526040902080548390811061098457fe5b9060005260206000200154905092915050565b6109138383836040518060200160405280600081525061108e565b60006109bc6108b6565b82106109f95760405162461bcd60e51b815260040180806020018281038252602c815260200180611fcf602c913960400191505060405180910390fd5b60078281548110610a0657fe5b90600052602060002001549050919050565b6060600080600e8481548110610a2a57fe5b9060005260206000209060020201600001600e8581548110610a4857fe5b906000526020600020906002020160010160009054906101000a900460ff16600e8681548110610a7457fe5b906000526020600020906002020160010160019054906101000a900460ff16828054600181600116156101000203166002900480601f016020809104026020016040519081016040528092919081815260200182805460018160011615610100020316600290048015610b285780601f10610afd57610100808354040283529160200191610b28565b820191906000526020600020905b815481529060010190602001808311610b0b57829003601f168201915b505050505092509250925092509193909250565b610b44610f02565b610b95576040805162461bcd60e51b815260206004820181905260248201527f4f776e61626c653a2063616c6c6572206973206e6f7420746865206f776e6572604482015290519081900360640190fd5b60006001600e604051806060016040528088888080601f016020809104026020016040519081016040528093929190818152602001838380828437600092018290525093855250505060ff8089166020808501919091529088166040909301929092528354600181018086559482529082902083518051600290930290910192610c2492849290910190611ce2565b5060208201516001909101805460409093015160ff9081166101000261ff00199190931660ff199094169390931792909216179055039050610c66868261142f565b505050505050565b600e8181548110610c7b57fe5b60009182526020918290206002918202018054604080516001831615610100026000190190921693909304601f810185900485028201850190935282815290935091839190830182828015610d115780601f10610ce657610100808354040283529160200191610d11565b820191906000526020600020905b815481529060010190602001808311610cf457829003601f168201915b5050506001909301549192505060ff8082169161010090041683565b6000818152600160205260408120546001600160a01b031680610d815760405162461bcd60e51b8152600401808060200182810382526029815260200180611ed06029913960400191505060405180910390fd5b92915050565b600b8054604080516020601f60026000196101006001881615020190951694909404938401819004810282018101909252828152606093909290918301828280156107215780601f106106f657610100808354040283529160200191610721565b60006001600160a01b038216610e2f5760405162461bcd60e51b815260040180806020018281038252602a815260200180611ea6602a913960400191505060405180910390fd5b6001600160a01b0382166000908152600360205260409020610d8190611450565b610e58610f02565b610ea9576040805162461bcd60e51b815260206004820181905260248201527f4f776e61626c653a2063616c6c6572206973206e6f7420746865206f776e6572604482015290519081900360640190fd5b600d546040516000916001600160a01b0316907f8be0079c531659141344cd1fd0a4f28419497f9722a3daafe3b4186f6b6457e0908390a3600d80546001600160a01b0319169055565b600d546001600160a01b031690565b600d546000906001600160a01b0316610f19611368565b6001600160a01b031614905090565b600a8054604080516020601f60026000196101006001881615020190951694909404938401819004810282018101909252828152606093909290918301828280156107215780601f106106f657610100808354040283529160200191610721565b610f91611368565b6001600160a01b0316826001600160a01b03161415610ff7576040805162461bcd60e51b815260206004820152601960248201527f4552433732313a20617070726f766520746f2063616c6c657200000000000000604482015290519081900360640190fd5b8060046000611004611368565b6001600160a01b03908116825260208083019390935260409182016000908120918716808252919093529120805460ff191692151592909217909155611048611368565b60408051841515815290516001600160a01b0392909216917f17307eab39ab6107e8899845ad3d59bd9653f200f220920489ca2b5937696c319181900360200190a35050565b61109f611099611368565b8361136c565b6110da5760405162461bcd60e51b8152600401808060200182810382526031815260200180611f9e6031913960400191505060405180910390fd5b6110e684848484611454565b50505050565b60606110f78261134b565b6111325760405162461bcd60e51b815260040180806020018281038252602f815260200180611f4e602f913960400191505060405180910390fd5b6000828152600c602090815260409182902080548351601f60026000196101006001861615020190931692909204918201849004840281018401909452808452606093928301828280156111c75780601f1061119c576101008083540402835291602001916111c7565b820191906000526020600020905b8154815290600101906020018083116111aa57829003601f168201915b505050505090508051600014156111ee575050604080516020810190915260008152610690565b600b81604051602001808380546001816001161561010002031660029004801561124f5780601f1061122d57610100808354040283529182019161124f565b820191906000526020600020905b81548152906001019060200180831161123b575b5050825160208401908083835b6020831061127b5780518252601f19909201916020918201910161125c565b6001836020036101000a03801982511681845116808217855250505050505090500192505050604051602081830303815290604052915050610690565b6001600160a01b03918216600090815260046020908152604080832093909416825291909152205460ff1690565b6112ee610f02565b61133f576040805162461bcd60e51b815260206004820181905260248201527f4f776e61626c653a2063616c6c6572206973206e6f7420746865206f776e6572604482015290519081900360640190fd5b611348816114a6565b50565b6000908152600160205260409020546001600160a01b0316151590565b3390565b60006113778261134b565b6113b25760405162461bcd60e51b815260040180806020018281038252602c815260200180611e42602c913960400191505060405180910390fd5b60006113bd83610d2d565b9050806001600160a01b0316846001600160a01b031614806113f85750836001600160a01b03166113ed8461072c565b6001600160a01b0316145b80611408575061140881856112b8565b949350505050565b61141b838383611547565b611425838261168b565b6109138282611780565b61143982826117be565b6114438282611780565b61144c816118ef565b5050565b5490565b61145f848484611410565b61146b84848484611933565b6110e65760405162461bcd60e51b8152600401808060200182810382526032815260200180611dc66032913960400191505060405180910390fd5b6001600160a01b0381166114eb5760405162461bcd60e51b8152600401808060200182810382526026815260200180611df86026913960400191505060405180910390fd5b600d546040516001600160a01b038084169216907f8be0079c531659141344cd1fd0a4f28419497f9722a3daafe3b4186f6b6457e090600090a3600d80546001600160a01b0319166001600160a01b0392909216919091179055565b826001600160a01b031661155a82610d2d565b6001600160a01b03161461159f5760405162461bcd60e51b8152600401808060200182810382526029815260200180611f256029913960400191505060405180910390fd5b6001600160a01b0382166115e45760405162461bcd60e51b8152600401808060200182810382526024815260200180611e1e6024913960400191505060405180910390fd5b6115ed81611b6e565b6001600160a01b038316600090815260036020526040902061160e90611ba9565b6001600160a01b038216600090815260036020526040902061162f90611bc0565b60008181526001602052604080822080546001600160a01b0319166001600160a01b0386811691821790925591518493918716917fddf252ad1be2c89b69c2b068fc378daa952ba7f163c4a11628f55a4df523b3ef91a4505050565b6001600160a01b0382166000908152600560205260408120546116b590600163ffffffff611bc916565b600083815260066020526040902054909150808214611750576001600160a01b03841660009081526005602052604081208054849081106116f257fe5b906000526020600020015490508060056000876001600160a01b03166001600160a01b03168152602001908152602001600020838154811061173057fe5b600091825260208083209091019290925591825260069052604090208190555b6001600160a01b0384166000908152600560205260409020805490611779906000198301611d60565b5050505050565b6001600160a01b0390911660009081526005602081815260408084208054868652600684529185208290559282526001810183559183529091200155565b6001600160a01b038216611819576040805162461bcd60e51b815260206004820181905260248201527f4552433732313a206d696e7420746f20746865207a65726f2061646472657373604482015290519081900360640190fd5b6118228161134b565b15611874576040805162461bcd60e51b815260206004820152601c60248201527f4552433732313a20746f6b656e20616c7265616479206d696e74656400000000604482015290519081900360640190fd5b600081815260016020908152604080832080546001600160a01b0319166001600160a01b0387169081179091558352600390915290206118b390611bc0565b60405181906001600160a01b038416906000907fddf252ad1be2c89b69c2b068fc378daa952ba7f163c4a11628f55a4df523b3ef908290a45050565b600780546000838152600860205260408120829055600182018355919091527fa66cc928b5edb82af9bd49922954155ab7b0942694bea4ce44661d9a8736c6880155565b6000611947846001600160a01b0316611c12565b61195357506001611408565b600060606001600160a01b038616630a85bd0160e11b611971611368565b89888860405160240180856001600160a01b03166001600160a01b03168152602001846001600160a01b03166001600160a01b0316815260200183815260200180602001828103825283818151815260200191508051906020019080838360005b838110156119ea5781810151838201526020016119d2565b50505050905090810190601f168015611a175780820380516001836020036101000a031916815260200191505b5060408051601f198184030181529181526020820180516001600160e01b03166001600160e01b0319909a16999099178952518151919890975087965094509250829150849050835b60208310611a7f5780518252601f199092019160209182019101611a60565b6001836020036101000a0380198251168184511680821785525050505050509050019150506000604051808303816000865af19150503d8060008114611ae1576040519150601f19603f3d011682016040523d82523d6000602084013e611ae6565b606091505b509150915081611b3757805115611b005780518082602001fd5b60405162461bcd60e51b8152600401808060200182810382526032815260200180611dc66032913960400191505060405180910390fd5b6000818060200190516020811015611b4e57600080fd5b50516001600160e01b031916630a85bd0160e11b14935061140892505050565b6000818152600260205260409020546001600160a01b03161561134857600090815260026020526040902080546001600160a01b0319169055565b8054611bbc90600163ffffffff611bc916565b9055565b80546001019055565b6000611c0b83836040518060400160405280601e81526020017f536166654d6174683a207375627472616374696f6e206f766572666c6f770000815250611c4b565b9392505050565b6000813f7fc5d2460186f7233c927e7db2dcc703c0e500b653ca82273b7bfad8045d85a470818114801590611408575050151592915050565b60008184841115611cda5760405162461bcd60e51b81526004018080602001828103825283818151815260200191508051906020019080838360005b83811015611c9f578181015183820152602001611c87565b50505050905090810190601f168015611ccc5780820380516001836020036101000a031916815260200191505b509250505060405180910390fd5b505050900390565b828054600181600116156101000203166002900490600052602060002090601f016020900481019282601f10611d2357805160ff1916838001178555611d50565b82800160010185558215611d50579182015b82811115611d50578251825591602001919060010190611d35565b50611d5c929150611d80565b5090565b815481835581811115610913576000838152602090206109139181019083015b61072991905b80821115611d5c5760008155600101611d8656fe455243373231456e756d657261626c653a206f776e657220696e646578206f7574206f6620626f756e64734552433732313a207472616e7366657220746f206e6f6e20455243373231526563656976657220696d706c656d656e7465724f776e61626c653a206e6577206f776e657220697320746865207a65726f20616464726573734552433732313a207472616e7366657220746f20746865207a65726f20616464726573734552433732313a206f70657261746f7220717565727920666f72206e6f6e6578697374656e7420746f6b656e4552433732313a20617070726f76652063616c6c6572206973206e6f74206f776e6572206e6f7220617070726f76656420666f7220616c6c4552433732313a2062616c616e636520717565727920666f7220746865207a65726f20616464726573734552433732313a206f776e657220717565727920666f72206e6f6e6578697374656e7420746f6b656e4552433732313a20617070726f76656420717565727920666f72206e6f6e6578697374656e7420746f6b656e4552433732313a207472616e73666572206f6620746f6b656e2074686174206973206e6f74206f776e4552433732314d657461646174613a2055524920717565727920666f72206e6f6e6578697374656e7420746f6b656e4552433732313a20617070726f76616c20746f2063757272656e74206f776e65724552433732313a207472616e736665722063616c6c6572206973206e6f74206f776e6572206e6f7220617070726f766564455243373231456e756d657261626c653a20676c6f62616c20696e646578206f7574206f6620626f756e6473a265627a7a72315820fcca9455d03483408a53b52ef1147aa264775d2d1e0d3c96d02920f69b35a63864736f6c63430005100032",
  "source": "pragma solidity ^0.5.2;\n\nimport \"openzeppelin-solidity/contracts/token/ERC721/ERC721Full.sol\";\nimport \"openzeppelin-solidity/contracts/ownership/Ownable.sol\";\n\n\n/**\n * @title BitflixNFT: a ERC721 token\n */\ncontract BitflixNFT is ERC721Full, Ownable {\n\n  struct TokenInfo {\n    string title;\n    uint8 class_id;\n    uint8 size;\n  }\n\n  /* Our tokeninfo are stored here */\n  TokenInfo[] public token_infos;\n\n  constructor() public ERC721Full(\"BitflixNFT\", \"BNFT\") {\n  }\n\n  /**\n   * @dev Creates a new NFT\n   */\n  function createNFT(\n    address user_address,\n    string calldata title,\n    uint8 class_id,\n    uint8 size\n    ) external onlyOwner() {\n    uint tokenId = token_infos.push(\n      TokenInfo({\n        title: title,\n        class_id: class_id,\n        size: size\n      })\n    ) - 1;\n    _mint(user_address, tokenId);\n  }\n\n  /**\n   * @dev Gets a NFT\n   * @return The title and the size of the NFT\n   */\n  function getNFT(\n    uint tokenId\n  ) external view returns (\n    string memory title,\n    uint8 class_id,\n    uint8 size\n  ) {\n    return (\n      token_infos[tokenId].title,\n      token_infos[tokenId].class_id,\n      token_infos[tokenId].size\n    );\n  }\n}\n",
  "sourcePath": "/Users/yxf/app/bitflix-nft-marketplace/contracts/ERC721/BitflixNFT.sol",
  "compiler": {
    "name": "solc",
    "version": "0.5.16+commit.9c3226ce.Emscripten.clang"
  },
  "schemaVersion": "3.2.3",
  "updatedAt": "2021-06-16T03:55:40.035Z",
  "devdoc": {
    "methods": {
      "approve(address,uint256)": {
        "details": "Approves another address to transfer the given token ID The zero address indicates there is no approved address. There can only be one approved address per token at a given time. Can only be called by the token owner or an approved operator.",
        "params": {
          "to": "address to be approved for the given token ID",
          "tokenId": "uint256 ID of the token to be approved"
        }
      },
      "balanceOf(address)": {
        "details": "Gets the balance of the specified address.",
        "params": {
          "owner": "address to query the balance of"
        },
        "return": "uint256 representing the amount owned by the passed address"
      },
      "baseURI()": {
        "details": "Returns the base URI set via {_setBaseURI}. This will be automatically added as a preffix in {tokenURI} to each token's URI, when they are non-empty.    * _Available since v2.5.0._"
      },
      "createNFT(address,string,uint8,uint8)": {
        "details": "Creates a new NFT"
      },
      "getApproved(uint256)": {
        "details": "Gets the approved address for a token ID, or zero if no address set Reverts if the token ID does not exist.",
        "params": {
          "tokenId": "uint256 ID of the token to query the approval of"
        },
        "return": "address currently approved for the given token ID"
      },
      "getNFT(uint256)": {
        "details": "Gets a NFT",
        "return": "The title and the size of the NFT"
      },
      "isApprovedForAll(address,address)": {
        "details": "Tells whether an operator is approved by a given owner.",
        "params": {
          "operator": "operator address which you want to query the approval of",
          "owner": "owner address which you want to query the approval of"
        },
        "return": "bool whether the given operator is approved by the given owner"
      },
      "isOwner()": {
        "details": "Returns true if the caller is the current owner."
      },
      "name()": {
        "details": "Gets the token name.",
        "return": "string representing the token name"
      },
      "owner()": {
        "details": "Returns the address of the current owner."
      },
      "ownerOf(uint256)": {
        "details": "Gets the owner of the specified token ID.",
        "params": {
          "tokenId": "uint256 ID of the token to query the owner of"
        },
        "return": "address currently marked as the owner of the given token ID"
      },
      "renounceOwnership()": {
        "details": "Leaves the contract without owner. It will not be possible to call `onlyOwner` functions anymore. Can only be called by the current owner.     * NOTE: Renouncing ownership will leave the contract without an owner, thereby removing any functionality that is only available to the owner."
      },
      "safeTransferFrom(address,address,uint256)": {
        "details": "Safely transfers the ownership of a given token ID to another address If the target address is a contract, it must implement {IERC721Receiver-onERC721Received}, which is called upon a safe transfer, and return the magic value `bytes4(keccak256(\"onERC721Received(address,address,uint256,bytes)\"))`; otherwise, the transfer is reverted. Requires the msg.sender to be the owner, approved, or operator",
        "params": {
          "from": "current owner of the token",
          "to": "address to receive the ownership of the given token ID",
          "tokenId": "uint256 ID of the token to be transferred"
        }
      },
      "safeTransferFrom(address,address,uint256,bytes)": {
        "details": "Safely transfers the ownership of a given token ID to another address If the target address is a contract, it must implement {IERC721Receiver-onERC721Received}, which is called upon a safe transfer, and return the magic value `bytes4(keccak256(\"onERC721Received(address,address,uint256,bytes)\"))`; otherwise, the transfer is reverted. Requires the _msgSender() to be the owner, approved, or operator",
        "params": {
          "_data": "bytes data to send along with a safe transfer check",
          "from": "current owner of the token",
          "to": "address to receive the ownership of the given token ID",
          "tokenId": "uint256 ID of the token to be transferred"
        }
      },
      "setApprovalForAll(address,bool)": {
        "details": "Sets or unsets the approval of a given operator An operator is allowed to transfer all tokens of the sender on their behalf.",
        "params": {
          "approved": "representing the status of the approval to be set",
          "to": "operator address to set the approval"
        }
      },
      "supportsInterface(bytes4)": {
        "details": "See {IERC165-supportsInterface}.     * Time complexity O(1), guaranteed to always use less than 30 000 gas."
      },
      "symbol()": {
        "details": "Gets the token symbol.",
        "return": "string representing the token symbol"
      },
      "tokenByIndex(uint256)": {
        "details": "Gets the token ID at a given index of all the tokens in this contract Reverts if the index is greater or equal to the total number of tokens.",
        "params": {
          "index": "uint256 representing the index to be accessed of the tokens list"
        },
        "return": "uint256 token ID at the given index of the tokens list"
      },
      "tokenOfOwnerByIndex(address,uint256)": {
        "details": "Gets the token ID at a given index of the tokens list of the requested owner.",
        "params": {
          "index": "uint256 representing the index to be accessed of the requested tokens list",
          "owner": "address owning the tokens list to be accessed"
        },
        "return": "uint256 token ID at the given index of the tokens list owned by the requested address"
      },
      "tokenURI(uint256)": {
        "details": "Returns the URI for a given token ID. May return an empty string.     * If the token's URI is non-empty and a base URI was set (via {_setBaseURI}), it will be added to the token ID's URI as a prefix.     * Reverts if the token ID does not exist."
      },
      "totalSupply()": {
        "details": "Gets the total amount of tokens stored by the contract.",
        "return": "uint256 representing the total amount of tokens"
      },
      "transferFrom(address,address,uint256)": {
        "details": "Transfers the ownership of a given token ID to another address. Usage of this method is discouraged, use {safeTransferFrom} whenever possible. Requires the msg.sender to be the owner, approved, or operator.",
        "params": {
          "from": "current owner of the token",
          "to": "address to receive the ownership of the given token ID",
          "tokenId": "uint256 ID of the token to be transferred"
        }
      },
      "transferOwnership(address)": {
        "details": "Transfers ownership of the contract to a new account (`newOwner`). Can only be called by the current owner."
      }
    },
    "title": "BitflixNFT: a ERC721 token"
  },
  "userdoc": {
    "methods": {}
  }
}