{
  "contractName": "Marketplace",
  "abi": [
    {
      "anonymous": false,
      "inputs": [
        {
          "indexed": false,
          "internalType": "uint256",
          "name": "offerId",
          "type": "uint256"
        }
      ],
      "name": "CloseOffer",
      "type": "event"
    },
    {
      "anonymous": false,
      "inputs": [
        {
          "indexed": false,
          "internalType": "uint256",
          "name": "offerId",
          "type": "uint256"
        }
      ],
      "name": "ItemBought",
      "type": "event"
    },
    {
      "anonymous": false,
      "inputs": [
        {
          "indexed": false,
          "internalType": "uint256",
          "name": "offerId",
          "type": "uint256"
        }
      ],
      "name": "NewOffer",
      "type": "event"
    },
    {
      "anonymous": false,
      "inputs": [
        {
          "indexed": true,
          "internalType": "address",
          "name": "previousOwner",
          "type": "address"
        },
        {
          "indexed": true,
          "internalType": "address",
          "name": "newOwner",
          "type": "address"
        }
      ],
      "name": "OwnershipTransferred",
      "type": "event"
    },
    {
      "constant": true,
      "inputs": [],
      "name": "bitfilxNFTContractAddress",
      "outputs": [
        {
          "internalType": "address",
          "name": "",
          "type": "address"
        }
      ],
      "payable": false,
      "stateMutability": "view",
      "type": "function"
    },
    {
      "constant": true,
      "inputs": [],
      "name": "isMarketPlaceOpen",
      "outputs": [
        {
          "internalType": "bool",
          "name": "",
          "type": "bool"
        }
      ],
      "payable": false,
      "stateMutability": "view",
      "type": "function"
    },
    {
      "constant": true,
      "inputs": [],
      "name": "isOwner",
      "outputs": [
        {
          "internalType": "bool",
          "name": "",
          "type": "bool"
        }
      ],
      "payable": false,
      "stateMutability": "view",
      "type": "function"
    },
    {
      "constant": true,
      "inputs": [],
      "name": "lockPointRate",
      "outputs": [
        {
          "internalType": "uint256",
          "name": "",
          "type": "uint256"
        }
      ],
      "payable": false,
      "stateMutability": "view",
      "type": "function"
    },
    {
      "constant": true,
      "inputs": [],
      "name": "marketplaceFee",
      "outputs": [
        {
          "internalType": "uint256",
          "name": "",
          "type": "uint256"
        }
      ],
      "payable": false,
      "stateMutability": "view",
      "type": "function"
    },
    {
      "constant": true,
      "inputs": [],
      "name": "minPrice",
      "outputs": [
        {
          "internalType": "uint256",
          "name": "",
          "type": "uint256"
        }
      ],
      "payable": false,
      "stateMutability": "view",
      "type": "function"
    },
    {
      "constant": true,
      "inputs": [
        {
          "internalType": "uint256",
          "name": "",
          "type": "uint256"
        }
      ],
      "name": "offers",
      "outputs": [
        {
          "internalType": "uint256",
          "name": "itemId",
          "type": "uint256"
        },
        {
          "internalType": "uint256",
          "name": "price",
          "type": "uint256"
        },
        {
          "internalType": "address payable",
          "name": "seller",
          "type": "address"
        },
        {
          "internalType": "address payable",
          "name": "buyer",
          "type": "address"
        },
        {
          "internalType": "bool",
          "name": "isOpen",
          "type": "bool"
        }
      ],
      "payable": false,
      "stateMutability": "view",
      "type": "function"
    },
    {
      "constant": true,
      "inputs": [],
      "name": "owner",
      "outputs": [
        {
          "internalType": "address",
          "name": "",
          "type": "address"
        }
      ],
      "payable": false,
      "stateMutability": "view",
      "type": "function"
    },
    {
      "constant": true,
      "inputs": [],
      "name": "payCoinContractAddress",
      "outputs": [
        {
          "internalType": "address",
          "name": "",
          "type": "address"
        }
      ],
      "payable": false,
      "stateMutability": "view",
      "type": "function"
    },
    {
      "constant": true,
      "inputs": [],
      "name": "payCoinSymbol",
      "outputs": [
        {
          "internalType": "string",
          "name": "",
          "type": "string"
        }
      ],
      "payable": false,
      "stateMutability": "view",
      "type": "function"
    },
    {
      "constant": true,
      "inputs": [],
      "name": "pointContractAddress",
      "outputs": [
        {
          "internalType": "address",
          "name": "",
          "type": "address"
        }
      ],
      "payable": false,
      "stateMutability": "view",
      "type": "function"
    },
    {
      "constant": false,
      "inputs": [],
      "name": "renounceOwnership",
      "outputs": [],
      "payable": false,
      "stateMutability": "nonpayable",
      "type": "function"
    },
    {
      "constant": false,
      "inputs": [
        {
          "internalType": "address",
          "name": "newOwner",
          "type": "address"
        }
      ],
      "name": "transferOwnership",
      "outputs": [],
      "payable": false,
      "stateMutability": "nonpayable",
      "type": "function"
    },
    {
      "constant": true,
      "inputs": [
        {
          "internalType": "address",
          "name": "",
          "type": "address"
        },
        {
          "internalType": "uint256",
          "name": "",
          "type": "uint256"
        }
      ],
      "name": "usersToOffersId",
      "outputs": [
        {
          "internalType": "uint256",
          "name": "",
          "type": "uint256"
        }
      ],
      "payable": false,
      "stateMutability": "view",
      "type": "function"
    },
    {
      "constant": false,
      "inputs": [
        {
          "internalType": "uint256",
          "name": "itemId",
          "type": "uint256"
        },
        {
          "internalType": "uint256",
          "name": "price",
          "type": "uint256"
        }
      ],
      "name": "createOffer",
      "outputs": [],
      "payable": false,
      "stateMutability": "nonpayable",
      "type": "function"
    },
    {
      "constant": false,
      "inputs": [
        {
          "internalType": "uint256",
          "name": "offerId",
          "type": "uint256"
        }
      ],
      "name": "closeOffer",
      "outputs": [],
      "payable": false,
      "stateMutability": "nonpayable",
      "type": "function"
    },
    {
      "constant": false,
      "inputs": [
        {
          "internalType": "uint256",
          "name": "offerId",
          "type": "uint256"
        }
      ],
      "name": "buyItem",
      "outputs": [],
      "payable": false,
      "stateMutability": "nonpayable",
      "type": "function"
    },
    {
      "constant": false,
      "inputs": [
        {
          "internalType": "address",
          "name": "newBitflixNFTContractAddress",
          "type": "address"
        }
      ],
      "name": "setBitflixNFTContractAddress",
      "outputs": [],
      "payable": false,
      "stateMutability": "nonpayable",
      "type": "function"
    },
    {
      "constant": false,
      "inputs": [
        {
          "internalType": "string",
          "name": "newpayCoinSymbol",
          "type": "string"
        },
        {
          "internalType": "address",
          "name": "newPayCoinContractAddress",
          "type": "address"
        }
      ],
      "name": "setPayCoinContractAddress",
      "outputs": [],
      "payable": false,
      "stateMutability": "nonpayable",
      "type": "function"
    },
    {
      "constant": false,
      "inputs": [
        {
          "internalType": "address",
          "name": "newPointContractAddress",
          "type": "address"
        }
      ],
      "name": "setPointContractAddress",
      "outputs": [],
      "payable": false,
      "stateMutability": "nonpayable",
      "type": "function"
    },
    {
      "constant": false,
      "inputs": [],
      "name": "openMarketplace",
      "outputs": [],
      "payable": false,
      "stateMutability": "nonpayable",
      "type": "function"
    },
    {
      "constant": false,
      "inputs": [],
      "name": "closeMarketplace",
      "outputs": [],
      "payable": false,
      "stateMutability": "nonpayable",
      "type": "function"
    },
    {
      "constant": false,
      "inputs": [
        {
          "internalType": "uint256",
          "name": "newLockPointRate",
          "type": "uint256"
        }
      ],
      "name": "setLockPointRate",
      "outputs": [],
      "payable": false,
      "stateMutability": "nonpayable",
      "type": "function"
    },
    {
      "constant": false,
      "inputs": [],
      "name": "withdrawFunds",
      "outputs": [],
      "payable": false,
      "stateMutability": "nonpayable",
      "type": "function"
    },
    {
      "constant": false,
      "inputs": [],
      "name": "withdrawCoins",
      "outputs": [],
      "payable": false,
      "stateMutability": "nonpayable",
      "type": "function"
    },
    {
      "constant": true,
      "inputs": [],
      "name": "getOffersTotal",
      "outputs": [
        {
          "internalType": "uint256",
          "name": "",
          "type": "uint256"
        }
      ],
      "payable": false,
      "stateMutability": "view",
      "type": "function"
    },
    {
      "constant": true,
      "inputs": [
        {
          "internalType": "uint256",
          "name": "offerId",
          "type": "uint256"
        }
      ],
      "name": "getOffer",
      "outputs": [
        {
          "internalType": "uint256",
          "name": "itemId",
          "type": "uint256"
        },
        {
          "internalType": "uint256",
          "name": "price",
          "type": "uint256"
        },
        {
          "internalType": "address",
          "name": "seller",
          "type": "address"
        },
        {
          "internalType": "address",
          "name": "buyer",
          "type": "address"
        },
        {
          "internalType": "bool",
          "name": "isOpen",
          "type": "bool"
        }
      ],
      "payable": false,
      "stateMutability": "view",
      "type": "function"
    }
  ],
  "bytecode": "0x6080604052600180546001600160a01b0319908116909155600280549091169055600480546001600160a81b031916905560fa600555600060068190556127106007556100536001600160e01b036100a216565b600080546001600160a01b0319166001600160a01b0383169081178255604051929350917f8be0079c531659141344cd1fd0a4f28419497f9722a3daafe3b4186f6b6457e0908290a3506100a6565b3390565b611f82806100b56000396000f3fe608060405234801561001057600080fd5b50600436106101a95760003560e01c8063715018a6116100f9578063c5b49a7311610097578063e45be8eb11610071578063e45be8eb14610496578063e7fb74c71461049e578063f2fde38b146104bb578063ffbb62a3146104e1576101a9565b8063c5b49a7314610409578063c8eedd9a14610411578063d8b049fe1461048e576101a9565b80638f32d59b116100d35780638f32d59b146103e957806396d121b7146103f1578063b609e253146103f9578063ba735acb14610401576101a9565b8063715018a6146103a05780638a72ea6a146103a85780638da5cb5b146103c5576101a9565b806339869209116101665780634579268a116101405780634579268a146102f2578063561ff200146103465780635b4ba43a146103725780636a16696414610398576101a9565b806339869209146102365780633dba5a271461025c57806342bcb69114610279576101a9565b806305477ddf146101ae5780630a3d0079146101cd578063163edd38146101e75780631afed875146101ef57806324600fc31461021257806331fdbd241461021a575b600080fd5b6101cb600480360360208110156101c457600080fd5b50356104e9565b005b6101d5610610565b60408051918252519081900360200190f35b6101cb610617565b6101cb6004803603604081101561020557600080fd5b508035906020013561066d565b6101cb610a1a565b610222610aa4565b604080519115158252519081900360200190f35b6101cb6004803603602081101561024c57600080fd5b50356001600160a01b0316610ab4565b6101cb6004803603602081101561027257600080fd5b5035610b78565b6101cb6004803603604081101561028f57600080fd5b8101906020810181356401000000008111156102aa57600080fd5b8201836020820111156102bc57600080fd5b803590602001918460018302840111640100000000831117156102de57600080fd5b9193509150356001600160a01b0316610bc4565b61030f6004803603602081101561030857600080fd5b5035610c93565b6040805195865260208601949094526001600160a01b03928316858501529116606084015215156080830152519081900360a00190f35b6101d56004803603604081101561035c57600080fd5b506001600160a01b038135169060200135610d7a565b6101cb6004803603602081101561038857600080fd5b50356001600160a01b0316610da8565b6101d5610e6c565b6101cb610e72565b61030f600480360360208110156103be57600080fd5b5035610f03565b6103cd610f53565b604080516001600160a01b039092168252519081900360200190f35b610222610f62565b6103cd610f86565b6101d5610f95565b6103cd610f9b565b6101cb610faa565b6104196110f1565b6040805160208082528351818301528351919283929083019185019080838360005b8381101561045357818101518382015260200161043b565b50505050905090810190601f1680156104805780820380516001836020036101000a031916815260200191505b509250505060405180910390f35b6103cd61117f565b6101d561118e565b6101cb600480360360208110156104b457600080fd5b5035611194565b6101cb600480360360208110156104d157600080fd5b50356001600160a01b0316611a58565b6101cb611aa8565b6104f1610f62565b610530576040805162461bcd60e51b81526020600482018190526024820152600080516020611f0d833981519152604482015290519081900360640190fd5b6008818154811061053d57fe5b906000526020600020906004020160030160149054906101000a900460ff1661059f576040805162461bcd60e51b815260206004820152600f60248201526e13d999995c881a5cc818db1bdcd959608a1b604482015290519081900360640190fd5b6000600882815481106105ae57fe5b906000526020600020906004020160030160146101000a81548160ff0219169083151502179055507f7f501b3628443cc9556da1d5744140c295120a54f5aa01e220363dd568e84783816040518082815260200191505060405180910390a150565b6008545b90565b61061f610f62565b61065e576040805162461bcd60e51b81526020600482018190526024820152600080516020611f0d833981519152604482015290519081900360640190fd5b6004805460ff60a01b19169055565b600454600160a01b900460ff1615156001146106c8576040805162461bcd60e51b815260206004820152601560248201527413585c9ad95d1c1b1858d9481a5cc818db1bdcd959605a1b604482015290519081900360640190fd5b600154604080516331a9108f60e11b81526004810185905290516001600160a01b039092169133918391636352211e91602480820192602092909190829003018186803b15801561071857600080fd5b505afa15801561072c573d6000803e3d6000fd5b505050506040513d602081101561074257600080fd5b50516001600160a01b03161461079f576040805162461bcd60e51b815260206004820152601d60248201527f53656e64657220646f6573206e6f74206f776e2074686973206974656d000000604482015290519081900360640190fd5b306001600160a01b0316816001600160a01b031663081812fc856040518263ffffffff1660e01b81526004018082815260200191505060206040518083038186803b1580156107ed57600080fd5b505afa158015610801573d6000803e3d6000fd5b505050506040513d602081101561081757600080fd5b50516001600160a01b03161461085e5760405162461bcd60e51b815260040180806020018281038252602b815260200180611ec1602b913960400191505060405180910390fd5b6007548210156108a8576040805162461bcd60e51b815260206004820152601060248201526f507269636520697320746f6f206c6f7760801b604482015290519081900360640190fd5b6040805160a081018252848152602080820185815233838501818152600060608601818152600160808801818152600880548084018255908552985160048a027ff3f7a9fe364faab93b216da50a3214154f22a0a2b415b23a84c8169e8b636ee381019190915596517ff3f7a9fe364faab93b216da50a3214154f22a0a2b415b23a84c8169e8b636ee488015593517ff3f7a9fe364faab93b216da50a3214154f22a0a2b415b23a84c8169e8b636ee5870180546001600160a01b039283166001600160a01b03199182161790915592517ff3f7a9fe364faab93b216da50a3214154f22a0a2b415b23a84c8169e8b636ee6909701805495511515600160a01b0260ff60a01b19989092169590931694909417959095169290921790915590815260098352848120805492830181558152829020018290558251828152925191927fc3e96d1275e81254d707531f5025b9b6d01f2bec370e5ff07979d37afbd3ee41929081900390910190a150505050565b610a22610f62565b610a61576040805162461bcd60e51b81526020600482018190526024820152600080516020611f0d833981519152604482015290519081900360640190fd5b610a69610f53565b6001600160a01b03166108fc479081150290604051600060405180830381858888f19350505050158015610aa1573d6000803e3d6000fd5b50565b600454600160a01b900460ff1681565b610abc610f62565b610afb576040805162461bcd60e51b81526020600482018190526024820152600080516020611f0d833981519152604482015290519081900360640190fd5b6001600160a01b038116610b56576040805162461bcd60e51b815260206004820152601f60248201527f436f6e747261637420616464726573732063616e6e6f74206265206e756c6c00604482015290519081900360640190fd5b600180546001600160a01b0319166001600160a01b0392909216919091179055565b610b80610f62565b610bbf576040805162461bcd60e51b81526020600482018190526024820152600080516020611f0d833981519152604482015290519081900360640190fd5b600655565b610bcc610f62565b610c0b576040805162461bcd60e51b81526020600482018190526024820152600080516020611f0d833981519152604482015290519081900360640190fd5b6001600160a01b038116610c66576040805162461bcd60e51b815260206004820152601f60248201527f436f6e747261637420616464726573732063616e6e6f74206265206e756c6c00604482015290519081900360640190fd5b600480546001600160a01b0319166001600160a01b038316179055610c8d60038484611dde565b50505050565b600080600080600060088681548110610ca857fe5b90600052602060002090600402016000015460088781548110610cc757fe5b90600052602060002090600402016001015460088881548110610ce657fe5b906000526020600020906004020160020160009054906101000a90046001600160a01b031660088981548110610d1857fe5b906000526020600020906004020160030160009054906101000a90046001600160a01b031660088a81548110610d4a57fe5b6000918252602090912060049091020160030154939a9299509097509550600160a01b90910460ff169350915050565b60096020528160005260406000208181548110610d9357fe5b90600052602060002001600091509150505481565b610db0610f62565b610def576040805162461bcd60e51b81526020600482018190526024820152600080516020611f0d833981519152604482015290519081900360640190fd5b6001600160a01b038116610e4a576040805162461bcd60e51b815260206004820152601f60248201527f436f6e747261637420616464726573732063616e6e6f74206265206e756c6c00604482015290519081900360640190fd5b600280546001600160a01b0319166001600160a01b0392909216919091179055565b60055481565b610e7a610f62565b610eb9576040805162461bcd60e51b81526020600482018190526024820152600080516020611f0d833981519152604482015290519081900360640190fd5b600080546040516001600160a01b03909116907f8be0079c531659141344cd1fd0a4f28419497f9722a3daafe3b4186f6b6457e0908390a3600080546001600160a01b0319169055565b60088181548110610f1057fe5b60009182526020909120600490910201805460018201546002830154600390930154919350916001600160a01b039081169190811690600160a01b900460ff1685565b6000546001600160a01b031690565b600080546001600160a01b0316610f77611bff565b6001600160a01b031614905090565b6004546001600160a01b031681565b60065481565b6002546001600160a01b031681565b610fb2610f62565b610ff1576040805162461bcd60e51b81526020600482018190526024820152600080516020611f0d833981519152604482015290519081900360640190fd5b6001546001600160a01b031661104e576040805162461bcd60e51b815260206004820152601b60248201527f436f6e74726163742061646472657373206973206e6f74207365740000000000604482015290519081900360640190fd5b6004546001600160a01b03166110955760405162461bcd60e51b8152600401808060200182810382526024815260200180611e9d6024913960400191505060405180910390fd5b6002546001600160a01b03166110dc5760405162461bcd60e51b8152600401808060200182810382526021815260200180611f2d6021913960400191505060405180910390fd5b6004805460ff60a01b1916600160a01b179055565b6003805460408051602060026001851615610100026000190190941693909304601f810184900484028201840190925281815292918301828280156111775780601f1061114c57610100808354040283529160200191611177565b820191906000526020600020905b81548152906001019060200180831161115a57829003601f168201915b505050505081565b6001546001600160a01b031681565b60075481565b600454600160a01b900460ff1615156001146111ef576040805162461bcd60e51b815260206004820152601560248201527413585c9ad95d1c1b1858d9481a5cc818db1bdcd959605a1b604482015290519081900360640190fd5b600154600454600254600880546001600160a01b039485169493841693909216913091859163081812fc91908890811061122557fe5b9060005260206000209060040201600001546040518263ffffffff1660e01b81526004018082815260200191505060206040518083038186803b15801561126b57600080fd5b505afa15801561127f573d6000803e3d6000fd5b505050506040513d602081101561129557600080fd5b50516001600160a01b0316146112dc5760405162461bcd60e51b815260040180806020018281038252602b815260200180611ec1602b913960400191505060405180910390fd5b60408051636eb1769f60e11b815233600482015230602482015290516000916001600160a01b0385169163dd62ed3e91604480820192602092909190829003018186803b15801561132c57600080fd5b505afa158015611340573d6000803e3d6000fd5b505050506040513d602081101561135657600080fd5b505160088054919250908690811061136a57fe5b9060005260206000209060040201600101548110156113d0576040805162461bcd60e51b815260206004820152601960248201527f436865636b2074686520746f6b656e20616c6c6f77616e636500000000000000604482015290519081900360640190fd5b604080516370a0823160e01b815233600482015290516000916001600160a01b038616916370a0823191602480820192602092909190829003018186803b15801561141a57600080fd5b505afa15801561142e573d6000803e3d6000fd5b505050506040513d602081101561144457600080fd5b505160088054919250908790811061145857fe5b9060005260206000209060040201600101548110156114be576040805162461bcd60e51b815260206004820152601960248201527f436865636b2074686520746f6b656e2062616c616e63654f6600000000000000604482015290519081900360640190fd5b600060646114f8620f424060088a815481106114d657fe5b906000526020600020906004020160010154816114ef57fe5b04600654611c03565b816114ff57fe5b0490506000846001600160a01b031663836278f1336040518263ffffffff1660e01b815260040180826001600160a01b03166001600160a01b0316815260200191505060206040518083038186803b15801561155a57600080fd5b505afa15801561156e573d6000803e3d6000fd5b505050506040513d602081101561158457600080fd5b50519050818110156115dd576040805162461bcd60e51b815260206004820152601960248201527f436865636b2074686520706f696e742062616c616e63654f6600000000000000604482015290519081900360640190fd5b600888815481106115ea57fe5b906000526020600020906004020160030160149054906101000a900460ff1661164c576040805162461bcd60e51b815260206004820152600f60248201526e13d999995c881a5cc818db1bdcd959608a1b604482015290519081900360640190fd5b60006008898154811061165b57fe5b906000526020600020906004020160030160146101000a81548160ff021916908315150217905550336008898154811061169157fe5b906000526020600020906004020160030160006101000a8154816001600160a01b0302191690836001600160a01b03160217905550866001600160a01b03166342842e0e60088a815481106116e257fe5b906000526020600020906004020160020160009054906101000a90046001600160a01b031660088b8154811061171457fe5b906000526020600020906004020160030160009054906101000a90046001600160a01b031660088c8154811061174657fe5b9060005260206000209060040201600001546040518463ffffffff1660e01b815260040180846001600160a01b03166001600160a01b03168152602001836001600160a01b03166001600160a01b031681526020018281526020019350505050600060405180830381600087803b1580156117c057600080fd5b505af11580156117d4573d6000803e3d6000fd5b50505050600060648061180760088c815481106117ed57fe5b906000526020600020906004020160010154600554611c03565b8161180e57fe5b048161181657fe5b049050600061184360088b8154811061182b57fe5b90600052602060002090600402016001015483611c65565b905083156118b25760408051631125ae3960e11b81523360048201526024810186905290516001600160a01b0389169163224b5c7291604480830192600092919082900301818387803b15801561189957600080fd5b505af11580156118ad573d6000803e3d6000fd5b505050505b876001600160a01b03166323b872dd60088c815481106118ce57fe5b60009182526020808320600492830201600301546040805160e087901b6001600160e01b03191681526001600160a01b039092169382019390935230602482015260448101889052915160648084019492939192918390030190829087803b15801561193957600080fd5b505af115801561194d573d6000803e3d6000fd5b505050506040513d602081101561196357600080fd5b5050600880546001600160a01b038a16916323b872dd918d90811061198457fe5b906000526020600020906004020160030160009054906101000a90046001600160a01b031660088d815481106119b657fe5b60009182526020808320600492830201600201546040805160e088901b6001600160e01b03191681526001600160a01b0396871694810194909452941660248301526044820187905292516064808301949391928390030190829087803b158015611a2057600080fd5b505af1158015611a34573d6000803e3d6000fd5b505050506040513d6020811015611a4a57600080fd5b505050505050505050505050565b611a60610f62565b611a9f576040805162461bcd60e51b81526020600482018190526024820152600080516020611f0d833981519152604482015290519081900360640190fd5b610aa181611ca7565b611ab0610f62565b611aef576040805162461bcd60e51b81526020600482018190526024820152600080516020611f0d833981519152604482015290519081900360640190fd5b60048054604080516370a0823160e01b81523093810193909352516001600160a01b039091169160009183916370a08231916024808301926020929190829003018186803b158015611b4057600080fd5b505afa158015611b54573d6000803e3d6000fd5b505050506040513d6020811015611b6a57600080fd5b505190506001600160a01b03821663a9059cbb611b85610f53565b836040518363ffffffff1660e01b815260040180836001600160a01b03166001600160a01b0316815260200182815260200192505050602060405180830381600087803b158015611bd557600080fd5b505af1158015611be9573d6000803e3d6000fd5b505050506040513d6020811015610c8d57600080fd5b3390565b600082611c1257506000611c5f565b82820282848281611c1f57fe5b0414611c5c5760405162461bcd60e51b8152600401808060200182810382526021815260200180611eec6021913960400191505060405180910390fd5b90505b92915050565b6000611c5c83836040518060400160405280601e81526020017f536166654d6174683a207375627472616374696f6e206f766572666c6f770000815250611d47565b6001600160a01b038116611cec5760405162461bcd60e51b8152600401808060200182810382526026815260200180611e776026913960400191505060405180910390fd5b600080546040516001600160a01b03808516939216917f8be0079c531659141344cd1fd0a4f28419497f9722a3daafe3b4186f6b6457e091a3600080546001600160a01b0319166001600160a01b0392909216919091179055565b60008184841115611dd65760405162461bcd60e51b81526004018080602001828103825283818151815260200191508051906020019080838360005b83811015611d9b578181015183820152602001611d83565b50505050905090810190601f168015611dc85780820380516001836020036101000a031916815260200191505b509250505060405180910390fd5b505050900390565b828054600181600116156101000203166002900490600052602060002090601f016020900481019282601f10611e1f5782800160ff19823516178555611e4c565b82800160010185558215611e4c579182015b82811115611e4c578235825591602001919060010190611e31565b50611e58929150611e5c565b5090565b61061491905b80821115611e585760008155600101611e6256fe4f776e61626c653a206e6577206f776e657220697320746865207a65726f206164647265737350617920436f696e20436f6e74726163742061646472657373206973206e6f7420736574576520646f206e6f74206861766520617070726f76616c20746f206d616e6167652074686973206974656d536166654d6174683a206d756c7469706c69636174696f6e206f766572666c6f774f776e61626c653a2063616c6c6572206973206e6f7420746865206f776e6572506f696e7420436f6e74726163742061646472657373206973206e6f7420736574a265627a7a72315820549b6de9b93c8118ca12d274ec66934a7fb673dac485ab0e7084cab3b67e50fa64736f6c63430005100032",
  "source": "pragma solidity ^0.5.2;\n\nimport \"openzeppelin-solidity/contracts/ownership/Ownable.sol\";\nimport \"openzeppelin-solidity/contracts/math/SafeMath.sol\";\nimport \"openzeppelin-solidity/contracts/token/ERC20/IERC20.sol\";\nimport \"./BitflixNFTInterface.sol\";\nimport \"./IBitflixPoint.sol\";\n\n\n/**\n * @title A small marketplace allowing users to buy and sell a specific ERC721 token\n * @dev For this example, we are using a fictional token called BitflixNFT\n * @author Pickle Solutions https://github.com/picklesolutions\n */\ncontract Marketplace is Ownable {\n  /* Our events */\n  event NewOffer(uint offerId);\n  event CloseOffer(uint offerId);\n  event ItemBought(uint offerId);\n\n  /* The address of our ERC721 token contract */\n  address public bitfilxNFTContractAddress = address(0);\n\n  /* The address of our Point contract */\n  address public pointContractAddress = address(0);\n\n  /* The address of Pay erc20 token contract */\n  string public payCoinSymbol;\n  address public payCoinContractAddress = address(0);\n\n  /* If we need to freeze the marketplace for any reason */\n  bool public isMarketPlaceOpen = false;\n\n  /* Our fee (the value is divided by 100, so 250 is 2.50%) */\n  uint public marketplaceFee = 250;\n\n  /* Our lock point rate (the value is divided by 100, so 150 is 1.50%) */\n  uint public lockPointRate = 0;\n\n  /* The minimum sale price (in Wei) */\n  uint public minPrice = 10000;\n\n  /* The structure of our offers */\n  struct Offer {\n    uint itemId;\n    uint price;\n    address payable seller;\n    address payable buyer;\n    bool isOpen;\n  }\n\n  /* All the offers are stored here */\n  Offer[] public offers;\n\n  /* We keep track of every offers for every users */\n  mapping (address => uint[]) public usersToOffersId;\n\n  /**\n   * @dev Puts an item on the marketplace\n   * @param itemId The id of the item\n   * @param price The price expected by the seller\n   */\n  function createOffer(\n    uint itemId,\n    uint price\n  ) external whenMarketIsOpen() {\n    /* Let's talk to our token contract */\n    BitflixNFTInterface bitfilxNFT = BitflixNFTInterface(bitfilxNFTContractAddress);\n\n    /* We need to be sure that the sender is the actual owner of the token */\n    require(\n      bitfilxNFT.ownerOf(itemId) == msg.sender,\n      \"Sender does not own this item\"\n    );\n\n    /* Are we approved to manage this item? */\n    require(\n      bitfilxNFT.getApproved(itemId) == address(this),\n      \"We do not have approval to manage this item\"\n    );\n\n    /* Is the selling price abovee the minimum price? */\n    require(price >= minPrice, \"Price is too low\");\n\n    /* We push the offer into our array */\n    uint offerId = offers.push(\n      Offer({\n        itemId: itemId,\n        price: price,\n        seller: msg.sender,\n        buyer: address(0),\n        isOpen: true\n      })\n    ) - 1;\n\n    /* We keep track of offers from users */\n    usersToOffersId[msg.sender].push(offerId);\n\n    /* We tell the world there is a new offer */\n    emit NewOffer(offerId);\n  }\n\n  /**\n   * @dev close an Offer\n   * @param offerId The id of the offer\n   */\n  function closeOffer(\n    uint offerId\n  ) external onlyOwner() {\n    /* Is the offer still open? */\n    require(offers[offerId].isOpen, \"Offer is closed\");\n\n    /* We close the offer and register the buyer */\n    offers[offerId].isOpen = false;\n\n    /* We tell the world there is a cancel offer */\n    emit CloseOffer(offerId);\n  }\n\n  /**\n   * @dev Buys an item\n   * @param offerId The id of the offer\n   */\n  function buyItem(\n    uint offerId\n  ) external whenMarketIsOpen() {\n    /* Let's talk to our token contract */\n    BitflixNFTInterface bitfilxNFT = BitflixNFTInterface(bitfilxNFTContractAddress);\n\n    IERC20 payCoin = IERC20(payCoinContractAddress);\n\n    IBitflixPoint pointContract = IBitflixPoint(pointContractAddress);\n\n    /* Are we still able to manage this item? */\n    require(\n      bitfilxNFT.getApproved(offers[offerId].itemId) == address(this),\n      \"We do not have approval to manage this item\"\n    );\n\n    /* Did the buyer send enough funds? */\n    uint256 allowance = payCoin.allowance(msg.sender, address(this));\n    require(allowance >= offers[offerId].price, \"Check the token allowance\");\n\n    uint256 coin_balance = payCoin.balanceOf(msg.sender);\n    require(coin_balance >= offers[offerId].price, \"Check the token balanceOf\");\n\n    /* Did the buyer enough point? */\n    uint256 pointLimit = SafeMath.mul( offers[offerId].price / 1e6, lockPointRate) / 100;\n    uint256 point_balance = pointContract.pointOf(msg.sender);\n    require(point_balance >= pointLimit, \"Check the point balanceOf\");\n\n    /* Is the offer still open? */\n    require(offers[offerId].isOpen, \"Offer is closed\");\n\n    /* We close the offer and register the buyer */\n    offers[offerId].isOpen = false;\n    offers[offerId].buyer = msg.sender;\n\n    /* We transfer the item from the seller to the buyer */\n    bitfilxNFT.safeTransferFrom(\n      offers[offerId].seller,\n      offers[offerId].buyer,\n      offers[offerId].itemId\n    );\n\n    /* This is our fee */\n    uint txFee = SafeMath.mul(\n      offers[offerId].price,\n      marketplaceFee\n    ) / 100 / 100;\n\n    /* This is the profit made by the seller */\n    uint profit = SafeMath.sub(\n      offers[offerId].price,\n      txFee\n    );\n    \n    /* consume point */\n    if(pointLimit > 0) {\n      pointContract.consume(msg.sender, pointLimit);\n    }\n\n    /* buyer pay coin */\n    payCoin.transferFrom(offers[offerId].buyer, address(this), txFee);\n    \n    /* We give the seller his money */\n    payCoin.transferFrom(offers[offerId].buyer, offers[offerId].seller, profit);\n  }\n\n  /**\n   * @dev Sets the address of our ERC721 token contract\n   * @param newBitflixNFTContractAddress The address of the contract\n   */\n  function setBitflixNFTContractAddress(\n    address newBitflixNFTContractAddress\n  ) external onlyOwner() {\n    /* The address cannot be null */\n    require(newBitflixNFTContractAddress != address(0), \"Contract address cannot be null\");\n\n    /* We set the address */\n    bitfilxNFTContractAddress = newBitflixNFTContractAddress;\n  }\n\n  /**\n   * @dev Sets the address of Pay erc20 token contract\n   * @param newPayCoinContractAddress The address of the contract\n   */\n  function setPayCoinContractAddress(\n    string calldata newpayCoinSymbol,\n    address newPayCoinContractAddress\n  ) external onlyOwner() {\n    /* The address cannot be null */\n    require(newPayCoinContractAddress != address(0), \"Contract address cannot be null\");\n\n    /* We set the address */\n    payCoinContractAddress = newPayCoinContractAddress;\n    payCoinSymbol = newpayCoinSymbol;\n  }\n\n  /**\n   * @dev Sets the address of Point contract\n   * @param newPointContractAddress The address of the contract\n   */\n  function setPointContractAddress(\n    address newPointContractAddress\n  ) external onlyOwner() {\n    /* The address cannot be null */\n    require(newPointContractAddress != address(0), \"Contract address cannot be null\");\n\n    /* We set the address */\n    pointContractAddress = newPointContractAddress;\n  }\n\n  /**\n   * @dev Opens the market if the contract address is correct\n   */\n  function openMarketplace() external onlyOwner() {\n    require(bitfilxNFTContractAddress != address(0), \"Contract address is not set\");\n    require(payCoinContractAddress != address(0), \"Pay Coin Contract address is not set\");\n    require(pointContractAddress != address(0), \"Point Contract address is not set\");\n\n    isMarketPlaceOpen = true;\n  }\n\n  /**\n   * @dev Closes the market\n   */\n  function closeMarketplace() external onlyOwner() {\n    isMarketPlaceOpen = false;\n  }\n\n  /**\n   * @dev Set lockPointRate\n   */\n  function setLockPointRate(uint newLockPointRate) external onlyOwner() {\n    lockPointRate = newLockPointRate;\n  }\n\n  /**\n   * @dev Lets the owner withdraw his funds\n   */\n  function withdrawFunds() external onlyOwner() {\n    address(uint160(owner())).transfer(address(this).balance);\n  }\n\n  /**\n   * @dev Lets the owner withdraw his coins\n   */\n  function withdrawCoins() external onlyOwner() {\n    IERC20 payCoin = IERC20(payCoinContractAddress);\n    uint256 coin_balance = payCoin.balanceOf(address(this));\n    payCoin.transfer(address(uint160(owner())), coin_balance);\n  }\n\n  /**\n   * @dev Returns the offers\n   */\n  function getOffersTotal() external view returns (uint) {\n    return offers.length;\n  }\n\n  /**\n   * @dev Gets an offer\n   * @param offerId The id of the offer\n   * @return All the infos about the offer\n   */\n  function getOffer(uint offerId) external view returns (\n    uint itemId,\n    uint price,\n    address seller,\n    address buyer,\n    bool isOpen\n  ) {\n    return (\n      offers[offerId].itemId,\n      offers[offerId].price,\n      offers[offerId].seller,\n      offers[offerId].buyer,\n      offers[offerId].isOpen\n    );\n  }\n\n  /**\n   * @dev Some functions can only be called when the market is open\n   */\n  modifier whenMarketIsOpen() {\n    require(isMarketPlaceOpen == true, \"Marketplace is closed\");\n    _;\n  }\n}\n",
  "sourcePath": "/Users/tuminfei/Code/Nodejs/bitfilx-nft-marketplace/contracts/core/Marketplace.sol",
  "compiler": {
    "name": "solc",
    "version": "0.5.16+commit.9c3226ce.Emscripten.clang"
  },
  "schemaVersion": "3.3.0",
  "updatedAt": "2021-07-13T02:18:05.769Z",
  "networkType": "ethereum",
  "devdoc": {
    "author": "Pickle Solutions https://github.com/picklesolutions",
    "details": "For this example, we are using a fictional token called BitflixNFT",
    "methods": {
      "buyItem(uint256)": {
        "details": "Buys an item",
        "params": {
          "offerId": "The id of the offer"
        }
      },
      "closeMarketplace()": {
        "details": "Closes the market"
      },
      "closeOffer(uint256)": {
        "details": "close an Offer",
        "params": {
          "offerId": "The id of the offer"
        }
      },
      "createOffer(uint256,uint256)": {
        "details": "Puts an item on the marketplace",
        "params": {
          "itemId": "The id of the item",
          "price": "The price expected by the seller"
        }
      },
      "getOffer(uint256)": {
        "details": "Gets an offer",
        "params": {
          "offerId": "The id of the offer"
        },
        "return": "All the infos about the offer"
      },
      "getOffersTotal()": {
        "details": "Returns the offers"
      },
      "isOwner()": {
        "details": "Returns true if the caller is the current owner."
      },
      "openMarketplace()": {
        "details": "Opens the market if the contract address is correct"
      },
      "owner()": {
        "details": "Returns the address of the current owner."
      },
      "renounceOwnership()": {
        "details": "Leaves the contract without owner. It will not be possible to call `onlyOwner` functions anymore. Can only be called by the current owner.     * NOTE: Renouncing ownership will leave the contract without an owner, thereby removing any functionality that is only available to the owner."
      },
      "setBitflixNFTContractAddress(address)": {
        "details": "Sets the address of our ERC721 token contract",
        "params": {
          "newBitflixNFTContractAddress": "The address of the contract"
        }
      },
      "setLockPointRate(uint256)": {
        "details": "Set lockPointRate"
      },
      "setPayCoinContractAddress(string,address)": {
        "details": "Sets the address of Pay erc20 token contract",
        "params": {
          "newPayCoinContractAddress": "The address of the contract"
        }
      },
      "setPointContractAddress(address)": {
        "details": "Sets the address of Point contract",
        "params": {
          "newPointContractAddress": "The address of the contract"
        }
      },
      "transferOwnership(address)": {
        "details": "Transfers ownership of the contract to a new account (`newOwner`). Can only be called by the current owner."
      },
      "withdrawCoins()": {
        "details": "Lets the owner withdraw his coins"
      },
      "withdrawFunds()": {
        "details": "Lets the owner withdraw his funds"
      }
    },
    "title": "A small marketplace allowing users to buy and sell a specific ERC721 token"
  },
  "userdoc": {
    "methods": {}
  }
}