{
  "contractName": "Marketplace",
  "abi": [
    {
      "anonymous": false,
      "inputs": [
        {
          "indexed": false,
          "internalType": "uint256",
          "name": "offerId",
          "type": "uint256"
        }
      ],
      "name": "ItemBought",
      "type": "event"
    },
    {
      "anonymous": false,
      "inputs": [
        {
          "indexed": false,
          "internalType": "uint256",
          "name": "offerId",
          "type": "uint256"
        }
      ],
      "name": "NewOffer",
      "type": "event"
    },
    {
      "anonymous": false,
      "inputs": [
        {
          "indexed": true,
          "internalType": "address",
          "name": "previousOwner",
          "type": "address"
        },
        {
          "indexed": true,
          "internalType": "address",
          "name": "newOwner",
          "type": "address"
        }
      ],
      "name": "OwnershipTransferred",
      "type": "event"
    },
    {
      "constant": true,
      "inputs": [],
      "name": "bitfilxNFTContractAddress",
      "outputs": [
        {
          "internalType": "address",
          "name": "",
          "type": "address"
        }
      ],
      "payable": false,
      "stateMutability": "view",
      "type": "function"
    },
    {
      "constant": true,
      "inputs": [],
      "name": "isMarketPlaceOpen",
      "outputs": [
        {
          "internalType": "bool",
          "name": "",
          "type": "bool"
        }
      ],
      "payable": false,
      "stateMutability": "view",
      "type": "function"
    },
    {
      "constant": true,
      "inputs": [],
      "name": "isOwner",
      "outputs": [
        {
          "internalType": "bool",
          "name": "",
          "type": "bool"
        }
      ],
      "payable": false,
      "stateMutability": "view",
      "type": "function"
    },
    {
      "constant": true,
      "inputs": [],
      "name": "marketplaceFee",
      "outputs": [
        {
          "internalType": "uint256",
          "name": "",
          "type": "uint256"
        }
      ],
      "payable": false,
      "stateMutability": "view",
      "type": "function"
    },
    {
      "constant": true,
      "inputs": [],
      "name": "minPrice",
      "outputs": [
        {
          "internalType": "uint256",
          "name": "",
          "type": "uint256"
        }
      ],
      "payable": false,
      "stateMutability": "view",
      "type": "function"
    },
    {
      "constant": true,
      "inputs": [
        {
          "internalType": "uint256",
          "name": "",
          "type": "uint256"
        }
      ],
      "name": "offers",
      "outputs": [
        {
          "internalType": "uint256",
          "name": "itemId",
          "type": "uint256"
        },
        {
          "internalType": "uint256",
          "name": "price",
          "type": "uint256"
        },
        {
          "internalType": "address payable",
          "name": "seller",
          "type": "address"
        },
        {
          "internalType": "address payable",
          "name": "buyer",
          "type": "address"
        },
        {
          "internalType": "bool",
          "name": "isOpen",
          "type": "bool"
        }
      ],
      "payable": false,
      "stateMutability": "view",
      "type": "function"
    },
    {
      "constant": true,
      "inputs": [],
      "name": "owner",
      "outputs": [
        {
          "internalType": "address",
          "name": "",
          "type": "address"
        }
      ],
      "payable": false,
      "stateMutability": "view",
      "type": "function"
    },
    {
      "constant": true,
      "inputs": [],
      "name": "payCoinContractAddress",
      "outputs": [
        {
          "internalType": "address",
          "name": "",
          "type": "address"
        }
      ],
      "payable": false,
      "stateMutability": "view",
      "type": "function"
    },
    {
      "constant": true,
      "inputs": [],
      "name": "payCoinSymbol",
      "outputs": [
        {
          "internalType": "string",
          "name": "",
          "type": "string"
        }
      ],
      "payable": false,
      "stateMutability": "view",
      "type": "function"
    },
    {
      "constant": false,
      "inputs": [],
      "name": "renounceOwnership",
      "outputs": [],
      "payable": false,
      "stateMutability": "nonpayable",
      "type": "function"
    },
    {
      "constant": false,
      "inputs": [
        {
          "internalType": "address",
          "name": "newOwner",
          "type": "address"
        }
      ],
      "name": "transferOwnership",
      "outputs": [],
      "payable": false,
      "stateMutability": "nonpayable",
      "type": "function"
    },
    {
      "constant": true,
      "inputs": [
        {
          "internalType": "address",
          "name": "",
          "type": "address"
        },
        {
          "internalType": "uint256",
          "name": "",
          "type": "uint256"
        }
      ],
      "name": "usersToOffersId",
      "outputs": [
        {
          "internalType": "uint256",
          "name": "",
          "type": "uint256"
        }
      ],
      "payable": false,
      "stateMutability": "view",
      "type": "function"
    },
    {
      "constant": false,
      "inputs": [
        {
          "internalType": "uint256",
          "name": "itemId",
          "type": "uint256"
        },
        {
          "internalType": "uint256",
          "name": "price",
          "type": "uint256"
        }
      ],
      "name": "createOffer",
      "outputs": [],
      "payable": false,
      "stateMutability": "nonpayable",
      "type": "function"
    },
    {
      "constant": false,
      "inputs": [
        {
          "internalType": "uint256",
          "name": "offerId",
          "type": "uint256"
        }
      ],
      "name": "buyItem",
      "outputs": [],
      "payable": false,
      "stateMutability": "nonpayable",
      "type": "function"
    },
    {
      "constant": false,
      "inputs": [
        {
          "internalType": "address",
          "name": "newBitflixNFTContractAddress",
          "type": "address"
        }
      ],
      "name": "setBitflixNFTContractAddress",
      "outputs": [],
      "payable": false,
      "stateMutability": "nonpayable",
      "type": "function"
    },
    {
      "constant": false,
      "inputs": [
        {
          "internalType": "string",
          "name": "newpayCoinSymbol",
          "type": "string"
        },
        {
          "internalType": "address",
          "name": "newPayCoinContractAddress",
          "type": "address"
        }
      ],
      "name": "setPayCoinContractAddress",
      "outputs": [],
      "payable": false,
      "stateMutability": "nonpayable",
      "type": "function"
    },
    {
      "constant": false,
      "inputs": [],
      "name": "openMarketplace",
      "outputs": [],
      "payable": false,
      "stateMutability": "nonpayable",
      "type": "function"
    },
    {
      "constant": false,
      "inputs": [],
      "name": "closeMarketplace",
      "outputs": [],
      "payable": false,
      "stateMutability": "nonpayable",
      "type": "function"
    },
    {
      "constant": false,
      "inputs": [],
      "name": "withdrawFunds",
      "outputs": [],
      "payable": false,
      "stateMutability": "nonpayable",
      "type": "function"
    },
    {
      "constant": false,
      "inputs": [],
      "name": "withdrawCoins",
      "outputs": [],
      "payable": false,
      "stateMutability": "nonpayable",
      "type": "function"
    },
    {
      "constant": true,
      "inputs": [],
      "name": "getOffersTotal",
      "outputs": [
        {
          "internalType": "uint256",
          "name": "",
          "type": "uint256"
        }
      ],
      "payable": false,
      "stateMutability": "view",
      "type": "function"
    },
    {
      "constant": true,
      "inputs": [
        {
          "internalType": "uint256",
          "name": "offerId",
          "type": "uint256"
        }
      ],
      "name": "getOffer",
      "outputs": [
        {
          "internalType": "uint256",
          "name": "itemId",
          "type": "uint256"
        },
        {
          "internalType": "uint256",
          "name": "price",
          "type": "uint256"
        },
        {
          "internalType": "address",
          "name": "seller",
          "type": "address"
        },
        {
          "internalType": "address",
          "name": "buyer",
          "type": "address"
        },
        {
          "internalType": "bool",
          "name": "isOpen",
          "type": "bool"
        }
      ],
      "payable": false,
      "stateMutability": "view",
      "type": "function"
    }
  ],
  "bytecode": "0x6080604052600180546001600160a01b0319169055600380546001600160a81b031916905560fa60045561271060055560006100426001600160e01b0361009116565b600080546001600160a01b0319166001600160a01b0383169081178255604051929350917f8be0079c531659141344cd1fd0a4f28419497f9722a3daafe3b4186f6b6457e0908290a350610095565b3390565b611a3f806100a46000396000f3fe608060405234801561001057600080fd5b50600436106101425760003560e01c80638a72ea6a116100b8578063c8eedd9a1161007c578063c8eedd9a1461033a578063d8b049fe146103b7578063e45be8eb146103bf578063e7fb74c7146103c7578063f2fde38b146103e4578063ffbb62a31461040a57610142565b80638a72ea6a146102e15780638da5cb5b146102fe5780638f32d59b1461032257806396d121b71461032a578063c5b49a731461033257610142565b8063398692091161010a57806339869209146101b257806342bcb691146101d85780634579268a14610251578063561ff200146102a55780636a166964146102d1578063715018a6146102d957610142565b80630a3d007914610147578063163edd38146101615780631afed8751461016b57806324600fc31461018e57806331fdbd2414610196575b600080fd5b61014f610412565b60408051918252519081900360200190f35b610169610419565b005b6101696004803603604081101561018157600080fd5b508035906020013561046f565b61016961081c565b61019e6108a6565b604080519115158252519081900360200190f35b610169600480360360208110156101c857600080fd5b50356001600160a01b03166108b6565b610169600480360360408110156101ee57600080fd5b81019060208101813564010000000081111561020957600080fd5b82018360208201111561021b57600080fd5b8035906020019184600183028401116401000000008311171561023d57600080fd5b9193509150356001600160a01b031661097a565b61026e6004803603602081101561026757600080fd5b5035610a49565b6040805195865260208601949094526001600160a01b03928316858501529116606084015215156080830152519081900360a00190f35b61014f600480360360408110156102bb57600080fd5b506001600160a01b038135169060200135610b30565b61014f610b5e565b610169610b64565b61026e600480360360208110156102f757600080fd5b5035610bf5565b610306610c45565b604080516001600160a01b039092168252519081900360200190f35b61019e610c54565b610306610c78565b610169610c87565b610342610d87565b6040805160208082528351818301528351919283929083019185019080838360005b8381101561037c578181015183820152602001610364565b50505050905090810190601f1680156103a95780820380516001836020036101000a031916815260200191505b509250505060405180910390f35b610306610e12565b61014f610e21565b610169600480360360208110156103dd57600080fd5b5035610e27565b610169600480360360208110156103fa57600080fd5b50356001600160a01b0316611537565b610169611587565b6006545b90565b610421610c54565b610460576040805162461bcd60e51b815260206004820181905260248201526000805160206119eb833981519152604482015290519081900360640190fd5b6003805460ff60a01b19169055565b600354600160a01b900460ff1615156001146104ca576040805162461bcd60e51b815260206004820152601560248201527413585c9ad95d1c1b1858d9481a5cc818db1bdcd959605a1b604482015290519081900360640190fd5b600154604080516331a9108f60e11b81526004810185905290516001600160a01b039092169133918391636352211e91602480820192602092909190829003018186803b15801561051a57600080fd5b505afa15801561052e573d6000803e3d6000fd5b505050506040513d602081101561054457600080fd5b50516001600160a01b0316146105a1576040805162461bcd60e51b815260206004820152601d60248201527f53656e64657220646f6573206e6f74206f776e2074686973206974656d000000604482015290519081900360640190fd5b306001600160a01b0316816001600160a01b031663081812fc856040518263ffffffff1660e01b81526004018082815260200191505060206040518083038186803b1580156105ef57600080fd5b505afa158015610603573d6000803e3d6000fd5b505050506040513d602081101561061957600080fd5b50516001600160a01b0316146106605760405162461bcd60e51b815260040180806020018281038252602b81526020018061199f602b913960400191505060405180910390fd5b6005548210156106aa576040805162461bcd60e51b815260206004820152601060248201526f507269636520697320746f6f206c6f7760801b604482015290519081900360640190fd5b6040805160a081018252848152602080820185815233838501818152600060608601818152600160808801818152600680548084018255908552985160048a027ff652222313e28459528d920b65115c16c04f3efc82aaedc97be59f3f377c0d3f81019190915596517ff652222313e28459528d920b65115c16c04f3efc82aaedc97be59f3f377c0d4088015593517ff652222313e28459528d920b65115c16c04f3efc82aaedc97be59f3f377c0d41870180546001600160a01b039283166001600160a01b03199182161790915592517ff652222313e28459528d920b65115c16c04f3efc82aaedc97be59f3f377c0d42909701805495511515600160a01b0260ff60a01b19989092169590931694909417959095169290921790915590815260078352848120805492830181558152829020018290558251828152925191927fc3e96d1275e81254d707531f5025b9b6d01f2bec370e5ff07979d37afbd3ee41929081900390910190a150505050565b610824610c54565b610863576040805162461bcd60e51b815260206004820181905260248201526000805160206119eb833981519152604482015290519081900360640190fd5b61086b610c45565b6001600160a01b03166108fc479081150290604051600060405180830381858888f193505050501580156108a3573d6000803e3d6000fd5b50565b600354600160a01b900460ff1681565b6108be610c54565b6108fd576040805162461bcd60e51b815260206004820181905260248201526000805160206119eb833981519152604482015290519081900360640190fd5b6001600160a01b038116610958576040805162461bcd60e51b815260206004820152601f60248201527f436f6e747261637420616464726573732063616e6e6f74206265206e756c6c00604482015290519081900360640190fd5b600180546001600160a01b0319166001600160a01b0392909216919091179055565b610982610c54565b6109c1576040805162461bcd60e51b815260206004820181905260248201526000805160206119eb833981519152604482015290519081900360640190fd5b6001600160a01b038116610a1c576040805162461bcd60e51b815260206004820152601f60248201527f436f6e747261637420616464726573732063616e6e6f74206265206e756c6c00604482015290519081900360640190fd5b600380546001600160a01b0319166001600160a01b038316179055610a43600284846118bc565b50505050565b600080600080600060068681548110610a5e57fe5b90600052602060002090600402016000015460068781548110610a7d57fe5b90600052602060002090600402016001015460068881548110610a9c57fe5b906000526020600020906004020160020160009054906101000a90046001600160a01b031660068981548110610ace57fe5b906000526020600020906004020160030160009054906101000a90046001600160a01b031660068a81548110610b0057fe5b6000918252602090912060049091020160030154939a9299509097509550600160a01b90910460ff169350915050565b60076020528160005260406000208181548110610b4957fe5b90600052602060002001600091509150505481565b60045481565b610b6c610c54565b610bab576040805162461bcd60e51b815260206004820181905260248201526000805160206119eb833981519152604482015290519081900360640190fd5b600080546040516001600160a01b03909116907f8be0079c531659141344cd1fd0a4f28419497f9722a3daafe3b4186f6b6457e0908390a3600080546001600160a01b0319169055565b60068181548110610c0257fe5b60009182526020909120600490910201805460018201546002830154600390930154919350916001600160a01b039081169190811690600160a01b900460ff1685565b6000546001600160a01b031690565b600080546001600160a01b0316610c696116dd565b6001600160a01b031614905090565b6003546001600160a01b031681565b610c8f610c54565b610cce576040805162461bcd60e51b815260206004820181905260248201526000805160206119eb833981519152604482015290519081900360640190fd5b6001546001600160a01b0316610d2b576040805162461bcd60e51b815260206004820152601b60248201527f436f6e74726163742061646472657373206973206e6f74207365740000000000604482015290519081900360640190fd5b6003546001600160a01b0316610d725760405162461bcd60e51b815260040180806020018281038252602481526020018061197b6024913960400191505060405180910390fd5b6003805460ff60a01b1916600160a01b179055565b6002805460408051602060018416156101000260001901909316849004601f81018490048402820184019092528181529291830182828015610e0a5780601f10610ddf57610100808354040283529160200191610e0a565b820191906000526020600020905b815481529060010190602001808311610ded57829003601f168201915b505050505081565b6001546001600160a01b031681565b60055481565b600354600160a01b900460ff161515600114610e82576040805162461bcd60e51b815260206004820152601560248201527413585c9ad95d1c1b1858d9481a5cc818db1bdcd959605a1b604482015290519081900360640190fd5b600154600354600680546001600160a01b0393841693909216913091849163081812fc919087908110610eb157fe5b9060005260206000209060040201600001546040518263ffffffff1660e01b81526004018082815260200191505060206040518083038186803b158015610ef757600080fd5b505afa158015610f0b573d6000803e3d6000fd5b505050506040513d6020811015610f2157600080fd5b50516001600160a01b031614610f685760405162461bcd60e51b815260040180806020018281038252602b81526020018061199f602b913960400191505060405180910390fd5b60408051636eb1769f60e11b815233600482015230602482015290516000916001600160a01b0384169163dd62ed3e91604480820192602092909190829003018186803b158015610fb857600080fd5b505afa158015610fcc573d6000803e3d6000fd5b505050506040513d6020811015610fe257600080fd5b5051600680549192509085908110610ff657fe5b90600052602060002090600402016001015481101561105c576040805162461bcd60e51b815260206004820152601960248201527f436865636b2074686520746f6b656e20616c6c6f77616e636500000000000000604482015290519081900360640190fd5b604080516370a0823160e01b815233600482015290516000916001600160a01b038516916370a0823191602480820192602092909190829003018186803b1580156110a657600080fd5b505afa1580156110ba573d6000803e3d6000fd5b505050506040513d60208110156110d057600080fd5b50516006805491925090869081106110e457fe5b90600052602060002090600402016001015481101561114a576040805162461bcd60e51b815260206004820152601960248201527f436865636b2074686520746f6b656e2062616c616e63654f6600000000000000604482015290519081900360640190fd5b6006858154811061115757fe5b906000526020600020906004020160030160149054906101000a900460ff166111b9576040805162461bcd60e51b815260206004820152600f60248201526e13d999995c881a5cc818db1bdcd959608a1b604482015290519081900360640190fd5b6000600686815481106111c857fe5b906000526020600020906004020160030160146101000a81548160ff02191690831515021790555033600686815481106111fe57fe5b906000526020600020906004020160030160006101000a8154816001600160a01b0302191690836001600160a01b03160217905550836001600160a01b03166342842e0e6006878154811061124f57fe5b906000526020600020906004020160020160009054906101000a90046001600160a01b03166006888154811061128157fe5b906000526020600020906004020160030160009054906101000a90046001600160a01b0316600689815481106112b357fe5b9060005260206000209060040201600001546040518463ffffffff1660e01b815260040180846001600160a01b03166001600160a01b03168152602001836001600160a01b03166001600160a01b031681526020018281526020019350505050600060405180830381600087803b15801561132d57600080fd5b505af1158015611341573d6000803e3d6000fd5b5050505060006064806113746006898154811061135a57fe5b9060005260206000209060040201600101546004546116e1565b8161137b57fe5b048161138357fe5b04905060006113b06006888154811061139857fe5b90600052602060002090600402016001015483611743565b9050846001600160a01b03166323b872dd333060068b815481106113d057fe5b9060005260206000209060040201600101546040518463ffffffff1660e01b815260040180846001600160a01b03166001600160a01b03168152602001836001600160a01b03166001600160a01b031681526020018281526020019350505050602060405180830381600087803b15801561144a57600080fd5b505af115801561145e573d6000803e3d6000fd5b505050506040513d602081101561147457600080fd5b5050600680546001600160a01b038716916323b872dd913091908b90811061149857fe5b60009182526020808320600492830201600201546040805160e088901b6001600160e01b03191681526001600160a01b0396871694810194909452941660248301526044820187905292516064808301949391928390030190829087803b15801561150257600080fd5b505af1158015611516573d6000803e3d6000fd5b505050506040513d602081101561152c57600080fd5b505050505050505050565b61153f610c54565b61157e576040805162461bcd60e51b815260206004820181905260248201526000805160206119eb833981519152604482015290519081900360640190fd5b6108a381611785565b61158f610c54565b6115ce576040805162461bcd60e51b815260206004820181905260248201526000805160206119eb833981519152604482015290519081900360640190fd5b600354604080516370a0823160e01b815230600482015290516001600160a01b039092169160009183916370a0823191602480820192602092909190829003018186803b15801561161e57600080fd5b505afa158015611632573d6000803e3d6000fd5b505050506040513d602081101561164857600080fd5b505190506001600160a01b03821663a9059cbb611663610c45565b836040518363ffffffff1660e01b815260040180836001600160a01b03166001600160a01b0316815260200182815260200192505050602060405180830381600087803b1580156116b357600080fd5b505af11580156116c7573d6000803e3d6000fd5b505050506040513d6020811015610a4357600080fd5b3390565b6000826116f05750600061173d565b828202828482816116fd57fe5b041461173a5760405162461bcd60e51b81526004018080602001828103825260218152602001806119ca6021913960400191505060405180910390fd5b90505b92915050565b600061173a83836040518060400160405280601e81526020017f536166654d6174683a207375627472616374696f6e206f766572666c6f770000815250611825565b6001600160a01b0381166117ca5760405162461bcd60e51b81526004018080602001828103825260268152602001806119556026913960400191505060405180910390fd5b600080546040516001600160a01b03808516939216917f8be0079c531659141344cd1fd0a4f28419497f9722a3daafe3b4186f6b6457e091a3600080546001600160a01b0319166001600160a01b0392909216919091179055565b600081848411156118b45760405162461bcd60e51b81526004018080602001828103825283818151815260200191508051906020019080838360005b83811015611879578181015183820152602001611861565b50505050905090810190601f1680156118a65780820380516001836020036101000a031916815260200191505b509250505060405180910390fd5b505050900390565b828054600181600116156101000203166002900490600052602060002090601f016020900481019282601f106118fd5782800160ff1982351617855561192a565b8280016001018555821561192a579182015b8281111561192a57823582559160200191906001019061190f565b5061193692915061193a565b5090565b61041691905b80821115611936576000815560010161194056fe4f776e61626c653a206e6577206f776e657220697320746865207a65726f206164647265737350617920436f696e20436f6e74726163742061646472657373206973206e6f7420736574576520646f206e6f74206861766520617070726f76616c20746f206d616e6167652074686973206974656d536166654d6174683a206d756c7469706c69636174696f6e206f766572666c6f774f776e61626c653a2063616c6c6572206973206e6f7420746865206f776e6572a265627a7a72315820daa8ceddffb1fd8bab4b32de6280e753b53e38e4d72fcac4cd84e4b345834bbf64736f6c63430005100032",
  "source": "pragma solidity ^0.5.2;\n\nimport \"openzeppelin-solidity/contracts/ownership/Ownable.sol\";\nimport \"openzeppelin-solidity/contracts/math/SafeMath.sol\";\nimport \"openzeppelin-solidity/contracts/token/ERC20/IERC20.sol\";\nimport \"./BitflixNFTInterface.sol\";\n\n\n\n/**\n * @title A small marketplace allowing users to buy and sell a specific ERC721 token\n * @dev For this example, we are using a fictional token called BitflixNFT\n * @author Pickle Solutions https://github.com/picklesolutions\n */\ncontract Marketplace is Ownable {\n  /* Our events */\n  event NewOffer(uint offerId);\n  event ItemBought(uint offerId);\n\n  /* The address of our ERC721 token contract */\n  address public bitfilxNFTContractAddress = address(0);\n\n  /* The address of Pay erc20 token contract */\n  string public payCoinSymbol;\n  address public payCoinContractAddress = address(0);\n\n  /* If we need to freeze the marketplace for any reason */\n  bool public isMarketPlaceOpen = false;\n\n  /* Our fee (the value is divided by 100, so 250 is 2.50%) */\n  uint public marketplaceFee = 250;\n\n  /* The minimum sale price (in Wei) */\n  uint public minPrice = 10000;\n\n  /* The structure of our offers */\n  struct Offer {\n    uint itemId;\n    uint price;\n    address payable seller;\n    address payable buyer;\n    bool isOpen;\n  }\n\n  /* All the offers are stored here */\n  Offer[] public offers;\n\n  /* We keep track of every offers for every users */\n  mapping (address => uint[]) public usersToOffersId;\n\n  /**\n   * @dev Puts an item on the marketplace\n   * @param itemId The id of the item\n   * @param price The price expected by the seller\n   */\n  function createOffer(\n    uint itemId,\n    uint price\n  ) external whenMarketIsOpen() {\n    /* Let's talk to our token contract */\n    BitflixNFTInterface bitfilxNFT = BitflixNFTInterface(bitfilxNFTContractAddress);\n\n    /* We need to be sure that the sender is the actual owner of the token */\n    require(\n      bitfilxNFT.ownerOf(itemId) == msg.sender,\n      \"Sender does not own this item\"\n    );\n\n    /* Are we approved to manage this item? */\n    require(\n      bitfilxNFT.getApproved(itemId) == address(this),\n      \"We do not have approval to manage this item\"\n    );\n\n    /* Is the selling price abovee the minimum price? */\n    require(price >= minPrice, \"Price is too low\");\n\n    /* We push the offer into our array */\n    uint offerId = offers.push(\n      Offer({\n        itemId: itemId,\n        price: price,\n        seller: msg.sender,\n        buyer: address(0),\n        isOpen: true\n      })\n    ) - 1;\n\n    /* We keep track of offers from users */\n    usersToOffersId[msg.sender].push(offerId);\n\n    /* We tell the world there is a new offer */\n    emit NewOffer(offerId);\n  }\n\n  /**\n   * @dev Buys an item\n   * @param offerId The id of the offer\n   */\n  function buyItem(\n    uint offerId\n  ) external whenMarketIsOpen() {\n    /* Let's talk to our token contract */\n    BitflixNFTInterface bitfilxNFT = BitflixNFTInterface(bitfilxNFTContractAddress);\n\n    IERC20 payCoin = IERC20(payCoinContractAddress);\n\n    /* Are we still able to manage this item? */\n    require(\n      bitfilxNFT.getApproved(offers[offerId].itemId) == address(this),\n      \"We do not have approval to manage this item\"\n    );\n\n    /* Did the buyer send enough funds? */\n    uint256 allowance = payCoin.allowance(msg.sender, address(this));\n    require(allowance >= offers[offerId].price, \"Check the token allowance\");\n\n    uint256 coin_balance = payCoin.balanceOf(msg.sender);\n    require(coin_balance >= offers[offerId].price, \"Check the token balanceOf\");\n\n    /* Is the offer still open? */\n    require(offers[offerId].isOpen, \"Offer is closed\");\n\n    /* We close the offer and register the buyer */\n    offers[offerId].isOpen = false;\n    offers[offerId].buyer = msg.sender;\n\n    /* We transfer the item from the seller to the buyer */\n    bitfilxNFT.safeTransferFrom(\n      offers[offerId].seller,\n      offers[offerId].buyer,\n      offers[offerId].itemId\n    );\n\n    /* This is our fee */\n    uint txFee = SafeMath.mul(\n      offers[offerId].price,\n      marketplaceFee\n    ) / 100 / 100;\n\n    /* This is the profit made by the seller */\n    uint profit = SafeMath.sub(\n      offers[offerId].price,\n      txFee\n    );\n\n    /* buyer pay coin */\n    payCoin.transferFrom(msg.sender, address(this), offers[offerId].price);\n\n    /* We give the seller his money */\n    payCoin.transferFrom(address(this), address(offers[offerId].seller), profit);\n  }\n\n  /**\n   * @dev Sets the address of our ERC721 token contract\n   * @param newBitflixNFTContractAddress The address of the contract\n   */\n  function setBitflixNFTContractAddress(\n    address newBitflixNFTContractAddress\n  ) external onlyOwner() {\n    /* The address cannot be null */\n    require(newBitflixNFTContractAddress != address(0), \"Contract address cannot be null\");\n\n    /* We set the address */\n    bitfilxNFTContractAddress = newBitflixNFTContractAddress;\n  }\n\n  /**\n   * @dev Sets the address of Pay erc20 token contract\n   * @param newPayCoinContractAddress The address of the contract\n   */\n  function setPayCoinContractAddress(\n    string calldata newpayCoinSymbol,\n    address newPayCoinContractAddress\n  ) external onlyOwner() {\n    /* The address cannot be null */\n    require(newPayCoinContractAddress != address(0), \"Contract address cannot be null\");\n\n    /* We set the address */\n    payCoinContractAddress = newPayCoinContractAddress;\n    payCoinSymbol = newpayCoinSymbol;\n  }\n\n  /**\n   * @dev Opens the market if the contract address is correct\n   */\n  function openMarketplace() external onlyOwner() {\n    require(bitfilxNFTContractAddress != address(0), \"Contract address is not set\");\n    require(payCoinContractAddress != address(0), \"Pay Coin Contract address is not set\");\n\n    isMarketPlaceOpen = true;\n  }\n\n  /**\n   * @dev Closes the market\n   */\n  function closeMarketplace() external onlyOwner() {\n    isMarketPlaceOpen = false;\n  }\n\n  /**\n   * @dev Lets the owner withdraw his funds\n   */\n  function withdrawFunds() external onlyOwner() {\n    address(uint160(owner())).transfer(address(this).balance);\n  }\n\n  /**\n   * @dev Lets the owner withdraw his coins\n   */\n  function withdrawCoins() external onlyOwner() {\n    IERC20 payCoin = IERC20(payCoinContractAddress);\n    uint256 coin_balance = payCoin.balanceOf(address(this));\n    payCoin.transfer(address(uint160(owner())), coin_balance);\n  }\n\n  /**\n   * @dev Returns the offers\n   */\n  function getOffersTotal() external view returns (uint) {\n    return offers.length;\n  }\n\n  /**\n   * @dev Gets an offer\n   * @param offerId The id of the offer\n   * @return All the infos about the offer\n   */\n  function getOffer(uint offerId) external view returns (\n    uint itemId,\n    uint price,\n    address seller,\n    address buyer,\n    bool isOpen\n  ) {\n    return (\n      offers[offerId].itemId,\n      offers[offerId].price,\n      offers[offerId].seller,\n      offers[offerId].buyer,\n      offers[offerId].isOpen\n    );\n  }\n\n  /**\n   * @dev Some functions can only be called when the market is open\n   */\n  modifier whenMarketIsOpen() {\n    require(isMarketPlaceOpen == true, \"Marketplace is closed\");\n    _;\n  }\n}\n",
  "sourcePath": "/Users/yxf/app/bitflix-nft-marketplace/contracts/core/Marketplace.sol",
  "compiler": {
    "name": "solc",
    "version": "0.5.16+commit.9c3226ce.Emscripten.clang"
  },
  "schemaVersion": "3.2.3",
  "updatedAt": "2021-06-16T07:23:04.765Z",
  "devdoc": {
    "author": "Pickle Solutions https://github.com/picklesolutions",
    "details": "For this example, we are using a fictional token called BitflixNFT",
    "methods": {
      "buyItem(uint256)": {
        "details": "Buys an item",
        "params": {
          "offerId": "The id of the offer"
        }
      },
      "closeMarketplace()": {
        "details": "Closes the market"
      },
      "createOffer(uint256,uint256)": {
        "details": "Puts an item on the marketplace",
        "params": {
          "itemId": "The id of the item",
          "price": "The price expected by the seller"
        }
      },
      "getOffer(uint256)": {
        "details": "Gets an offer",
        "params": {
          "offerId": "The id of the offer"
        },
        "return": "All the infos about the offer"
      },
      "getOffersTotal()": {
        "details": "Returns the offers"
      },
      "isOwner()": {
        "details": "Returns true if the caller is the current owner."
      },
      "openMarketplace()": {
        "details": "Opens the market if the contract address is correct"
      },
      "owner()": {
        "details": "Returns the address of the current owner."
      },
      "renounceOwnership()": {
        "details": "Leaves the contract without owner. It will not be possible to call `onlyOwner` functions anymore. Can only be called by the current owner.     * NOTE: Renouncing ownership will leave the contract without an owner, thereby removing any functionality that is only available to the owner."
      },
      "setBitflixNFTContractAddress(address)": {
        "details": "Sets the address of our ERC721 token contract",
        "params": {
          "newBitflixNFTContractAddress": "The address of the contract"
        }
      },
      "setPayCoinContractAddress(string,address)": {
        "details": "Sets the address of Pay erc20 token contract",
        "params": {
          "newPayCoinContractAddress": "The address of the contract"
        }
      },
      "transferOwnership(address)": {
        "details": "Transfers ownership of the contract to a new account (`newOwner`). Can only be called by the current owner."
      },
      "withdrawCoins()": {
        "details": "Lets the owner withdraw his coins"
      },
      "withdrawFunds()": {
        "details": "Lets the owner withdraw his funds"
      }
    },
    "title": "A small marketplace allowing users to buy and sell a specific ERC721 token"
  },
  "userdoc": {
    "methods": {}
  }
}