{
  "contractName": "MysteryBox",
  "abi": [
    {
      "inputs": [
        {
          "internalType": "address",
          "name": "_author",
          "type": "address"
        },
        {
          "internalType": "uint256",
          "name": "_max_quantity",
          "type": "uint256"
        }
      ],
      "payable": false,
      "stateMutability": "nonpayable",
      "type": "constructor"
    },
    {
      "anonymous": false,
      "inputs": [
        {
          "indexed": false,
          "internalType": "address",
          "name": "_newOwner",
          "type": "address"
        }
      ],
      "name": "ChangeOwner",
      "type": "event"
    },
    {
      "anonymous": false,
      "inputs": [
        {
          "indexed": false,
          "internalType": "uint256",
          "name": "data",
          "type": "uint256"
        },
        {
          "indexed": false,
          "internalType": "address",
          "name": "addr",
          "type": "address"
        }
      ],
      "name": "Debug",
      "type": "event"
    },
    {
      "anonymous": false,
      "inputs": [
        {
          "indexed": false,
          "internalType": "address",
          "name": "owner",
          "type": "address"
        },
        {
          "indexed": false,
          "internalType": "uint256",
          "name": "index",
          "type": "uint256"
        }
      ],
      "name": "GenerateBox",
      "type": "event"
    },
    {
      "anonymous": false,
      "inputs": [
        {
          "indexed": false,
          "internalType": "address",
          "name": "owner",
          "type": "address"
        },
        {
          "indexed": false,
          "internalType": "uint256",
          "name": "index",
          "type": "uint256"
        },
        {
          "indexed": false,
          "internalType": "uint256",
          "name": "open_block_number",
          "type": "uint256"
        }
      ],
      "name": "UnBox",
      "type": "event"
    },
    {
      "constant": true,
      "inputs": [],
      "name": "author_address",
      "outputs": [
        {
          "internalType": "address",
          "name": "",
          "type": "address"
        }
      ],
      "payable": false,
      "stateMutability": "view",
      "type": "function"
    },
    {
      "constant": true,
      "inputs": [],
      "name": "bitfilxNFTContractAddress",
      "outputs": [
        {
          "internalType": "address",
          "name": "",
          "type": "address"
        }
      ],
      "payable": false,
      "stateMutability": "view",
      "type": "function"
    },
    {
      "constant": true,
      "inputs": [],
      "name": "box_quantity",
      "outputs": [
        {
          "internalType": "uint256",
          "name": "",
          "type": "uint256"
        }
      ],
      "payable": false,
      "stateMutability": "view",
      "type": "function"
    },
    {
      "constant": true,
      "inputs": [
        {
          "internalType": "uint256",
          "name": "",
          "type": "uint256"
        }
      ],
      "name": "boxes_attributes",
      "outputs": [
        {
          "internalType": "address",
          "name": "owner_address",
          "type": "address"
        },
        {
          "internalType": "uint256",
          "name": "block_number",
          "type": "uint256"
        },
        {
          "internalType": "uint256",
          "name": "price",
          "type": "uint256"
        },
        {
          "internalType": "string",
          "name": "name",
          "type": "string"
        }
      ],
      "payable": false,
      "stateMutability": "view",
      "type": "function"
    },
    {
      "constant": true,
      "inputs": [
        {
          "internalType": "address",
          "name": "",
          "type": "address"
        }
      ],
      "name": "map_caller",
      "outputs": [
        {
          "internalType": "bool",
          "name": "",
          "type": "bool"
        }
      ],
      "payable": false,
      "stateMutability": "view",
      "type": "function"
    },
    {
      "constant": true,
      "inputs": [
        {
          "internalType": "uint256",
          "name": "",
          "type": "uint256"
        }
      ],
      "name": "map_withdrawed",
      "outputs": [
        {
          "internalType": "bool",
          "name": "",
          "type": "bool"
        }
      ],
      "payable": false,
      "stateMutability": "view",
      "type": "function"
    },
    {
      "constant": true,
      "inputs": [],
      "name": "max_quantity",
      "outputs": [
        {
          "internalType": "uint256",
          "name": "",
          "type": "uint256"
        }
      ],
      "payable": false,
      "stateMutability": "view",
      "type": "function"
    },
    {
      "constant": true,
      "inputs": [],
      "name": "owner_address",
      "outputs": [
        {
          "internalType": "address",
          "name": "",
          "type": "address"
        }
      ],
      "payable": false,
      "stateMutability": "view",
      "type": "function"
    },
    {
      "constant": false,
      "inputs": [
        {
          "internalType": "address",
          "name": "_newOwner",
          "type": "address"
        }
      ],
      "name": "changeOwner",
      "outputs": [],
      "payable": false,
      "stateMutability": "nonpayable",
      "type": "function"
    },
    {
      "constant": false,
      "inputs": [
        {
          "internalType": "address",
          "name": "_caller",
          "type": "address"
        },
        {
          "internalType": "bool",
          "name": "_access",
          "type": "bool"
        }
      ],
      "name": "setCaller",
      "outputs": [],
      "payable": false,
      "stateMutability": "nonpayable",
      "type": "function"
    },
    {
      "constant": true,
      "inputs": [],
      "name": "getAuthor",
      "outputs": [
        {
          "internalType": "address",
          "name": "",
          "type": "address"
        }
      ],
      "payable": false,
      "stateMutability": "view",
      "type": "function"
    },
    {
      "constant": true,
      "inputs": [],
      "name": "getQuantity",
      "outputs": [
        {
          "internalType": "uint256",
          "name": "",
          "type": "uint256"
        }
      ],
      "payable": false,
      "stateMutability": "view",
      "type": "function"
    },
    {
      "constant": false,
      "inputs": [
        {
          "internalType": "address",
          "name": "_to",
          "type": "address"
        },
        {
          "internalType": "uint256",
          "name": "_counts",
          "type": "uint256"
        },
        {
          "internalType": "string",
          "name": "_title",
          "type": "string"
        },
        {
          "internalType": "uint8",
          "name": "_class_id",
          "type": "uint8"
        },
        {
          "internalType": "uint8",
          "name": "_size",
          "type": "uint8"
        }
      ],
      "name": "generate",
      "outputs": [],
      "payable": false,
      "stateMutability": "nonpayable",
      "type": "function"
    },
    {
      "constant": false,
      "inputs": [
        {
          "internalType": "uint256[]",
          "name": "_boxes",
          "type": "uint256[]"
        }
      ],
      "name": "unBox",
      "outputs": [],
      "payable": false,
      "stateMutability": "nonpayable",
      "type": "function"
    },
    {
      "constant": false,
      "inputs": [
        {
          "internalType": "uint256",
          "name": "_index",
          "type": "uint256"
        }
      ],
      "name": "withdrawCash",
      "outputs": [],
      "payable": false,
      "stateMutability": "nonpayable",
      "type": "function"
    },
    {
      "constant": true,
      "inputs": [
        {
          "internalType": "uint256",
          "name": "_index",
          "type": "uint256"
        }
      ],
      "name": "getAttributes",
      "outputs": [
        {
          "internalType": "uint256",
          "name": "block_number",
          "type": "uint256"
        },
        {
          "internalType": "uint256",
          "name": "types",
          "type": "uint256"
        },
        {
          "internalType": "uint256",
          "name": "level",
          "type": "uint256"
        },
        {
          "internalType": "uint256",
          "name": "price",
          "type": "uint256"
        },
        {
          "internalType": "string",
          "name": "name",
          "type": "string"
        }
      ],
      "payable": false,
      "stateMutability": "view",
      "type": "function"
    },
    {
      "constant": false,
      "inputs": [
        {
          "internalType": "uint256",
          "name": "_index",
          "type": "uint256"
        },
        {
          "internalType": "string",
          "name": "_name",
          "type": "string"
        }
      ],
      "name": "changeName",
      "outputs": [],
      "payable": false,
      "stateMutability": "nonpayable",
      "type": "function"
    }
  ],
  "bytecode": "0x6080604052600180546001600160a01b031916905534801561002057600080fd5b506040516114c83803806114c88339818101604052604081101561004357600080fd5b5080516020909101516001600160a01b0382166100a7576040805162461bcd60e51b815260206004820152601a60248201527f617574686f72206164647265737320697320696e76616c69642e000000000000604482015290519081900360640190fd5b600080546001600160a01b0319908116339081178355600680546001600160a01b039690961695909216949094179055600491909155908152600260205260409020805460ff191660011790556113c5806101036000396000f3fe608060405234801561001057600080fd5b506004361061010b5760003560e01c806378dec7f1116100a2578063a5faa12511610071578063a5faa1251461041a578063a6f9dae114610422578063c33093a614610448578063c39cbef114610513578063d8b049fe146105c05761010b565b806378dec7f1146103aa57806380edef8e146103c757806383e4cccf146103cf5780639cae6eae146103ec5761010b565b80635037f18b116100de5780635037f18b146102d15780635d2e44e2146102f55780636aa99564146102fd5780637863fb20146103a25761010b565b80630105b2d3146101105780630115949c146101cc5780633d0bee40146101e65780634378a6e314610220575b600080fd5b61012d6004803603602081101561012657600080fd5b50356105c8565b60405180856001600160a01b03166001600160a01b0316815260200184815260200183815260200180602001828103825283818151815260200191508051906020019080838360005b8381101561018e578181015183820152602001610176565b50505050905090810190601f1680156101bb5780820380516001836020036101000a031916815260200191505b509550505050505060405180910390f35b6101d4610696565b60408051918252519081900360200190f35b61020c600480360360208110156101fc57600080fd5b50356001600160a01b031661069d565b604080519115158252519081900360200190f35b61023d6004803603602081101561023657600080fd5b50356106b2565b6040518086815260200185815260200184815260200183815260200180602001828103825283818151815260200191508051906020019080838360005b8381101561029257818101518382015260200161027a565b50505050905090810190601f1680156102bf5780820380516001836020036101000a031916815260200191505b50965050505050505060405180910390f35b6102d96108cc565b604080516001600160a01b039092168252519081900360200190f35b6101d46108db565b6103a06004803603602081101561031357600080fd5b81019060208101813564010000000081111561032e57600080fd5b82018360208201111561034057600080fd5b8035906020019184602083028401116401000000008311171561036257600080fd5b9190808060200260200160405190810160405280939291908181526020018383602002808284376000920191909152509295506108e1945050505050565b005b6101d4610b81565b61020c600480360360208110156103c057600080fd5b5035610b87565b6102d9610b9c565b6103a0600480360360208110156103e557600080fd5b5035610bab565b6103a06004803603604081101561040257600080fd5b506001600160a01b0381351690602001351515610cc5565b6102d9610d3b565b6103a06004803603602081101561043857600080fd5b50356001600160a01b0316610d4a565b6103a0600480360360a081101561045e57600080fd5b6001600160a01b038235169160208101359181019060608101604082013564010000000081111561048e57600080fd5b8201836020820111156104a057600080fd5b803590602001918460018302840111640100000000831117156104c257600080fd5b91908080601f0160208091040260200160405190810160405280939291908181526020018383808284376000920191909152509295505060ff8335811694506020909301359092169150610e3c9050565b6103a06004803603604081101561052957600080fd5b8135919081019060408101602082013564010000000081111561054b57600080fd5b82018360208201111561055d57600080fd5b8035906020019184600183028401116401000000008311171561057f57600080fd5b91908080601f016020809104026020016040519081016040528093929190818152602001838380828437600092019190915250929550611174945050505050565b6102d9611225565b600781815481106105d557fe5b60009182526020918290206004919091020180546001808301546002808501546003860180546040805161010097831615979097026000190190911693909304601f81018990048902860189019093528285526001600160a01b03909516975091959194939183018282801561068c5780601f106106615761010080835404028352916020019161068c565b820191906000526020600020905b81548152906001019060200180831161066f57829003601f168201915b5050505050905084565b6005545b90565b60026020526000908152604090205460ff1681565b60008060008060606106c26112a6565b600787815481106106cf57fe5b60009182526020918290206040805160808101825260049390930290910180546001600160a01b03168352600180820154848601526002808301548585015260038301805485516101009482161594909402600019011691909104601f8101879004870283018701909452838252939491936060860193919290919083018282801561079c5780601f106107715761010080835404028352916020019161079c565b820191906000526020600020905b81548152906001019060200180831161077f57829003601f168201915b50505050508152505090508060200151600014806107bd5750438160200151115b156107cf5760009450600093506108ae565b602081810151604080519140828401528181018a905280518083038201815260609092019052805191012060648106606381141561081057600c965061081a565b600b810660010196505b604080516020808201949094528082018b9052815180820383018152606090910190915280519201919091209060648206603281101561085d57600196506108aa565b605081101561086f57600296506108aa565b605c81101561088157600396506108aa565b606181101561089357600496506108aa565b60638110156108a557600596506108aa565b600696505b5050505b60408101516060820151602090920151989597509395509293915050565b6006546001600160a01b031681565b60055481565b6108ea33611234565b610926576040805162461bcd60e51b81526020600482015260086024820152672737ba1022a7a09760c11b604482015290519081900360640190fd5b600c8151111561097d576040805162461bcd60e51b815260206004820152601760248201527f4d617820626f7820636f756e7473206c696d697465642e000000000000000000604482015290519081900360640190fd5b60005b8151811015610b7d57336001600160a01b031660078383815181106109a157fe5b6020026020010151815481106109b357fe5b60009182526020909120600490910201546001600160a01b031614610a16576040805162461bcd60e51b81526020600482015260146024820152732737ba103a3434b9903137bc13b99037bbb732b960611b604482015290519081900360640190fd5b6007828281518110610a2457fe5b602002602001015181548110610a3657fe5b906000526020600020906004020160010154600014610a92576040805162461bcd60e51b8152602060048201526013602482015272109bde081a185cc81899595b881bdc195b9959606a1b604482015290519081900360640190fd5b610aa343600263ffffffff61124c16565b6007838381518110610ab157fe5b602002602001015181548110610ac357fe5b9060005260206000209060040201600101819055507f4aed0787ea6d4a420fbb65dd95398ddb08582395a3d8333d1ae99408aae8bc2333838381518110610b0657fe5b60200260200101516007858581518110610b1c57fe5b602002602001015181548110610b2e57fe5b90600052602060002090600402016001015460405180846001600160a01b03166001600160a01b03168152602001838152602001828152602001935050505060405180910390a1600101610980565b5050565b60045481565b60036020526000908152604090205460ff1681565b6000546001600160a01b031681565b3360009081526002602052604090205460ff16610bfb576040805162461bcd60e51b81526020600482015260096024820152682737ba1037bbb732b960b91b604482015290519081900360640190fd5b60008181526003602052604090205460ff1615610c495760405162461bcd60e51b81526004018080602001828103825260218152602001806113706021913960400191505060405180910390fd5b6000610c54826106b2565b5090935050600683149150610ca99050576040805162461bcd60e51b815260206004820152601460248201527309cdee840c2408682a69040d8caeccad840c4def60631b604482015290519081900360640190fd5b506000908152600360205260409020805460ff19166001179055565b6000546001600160a01b03163314610d10576040805162461bcd60e51b81526020600482015260096024820152682737ba1037bbb732b960b91b604482015290519081900360640190fd5b6001600160a01b03919091166000908152600260205260409020805460ff1916911515919091179055565b6006546001600160a01b031690565b6000546001600160a01b03163314610d95576040805162461bcd60e51b81526020600482015260096024820152682737ba1037bbb732b960b91b604482015290519081900360640190fd5b6001600160a01b038116610de8576040805162461bcd60e51b8152602060048201526015602482015274496e76616c6964206f776e6572206164647265737360581b604482015290519081900360640190fd5b600080546001600160a01b0383166001600160a01b0319909116811790915560408051918252517ff285329298fd841af46eb83bbe90d1ebe2951c975a65b19a02f965f842ee69c59181900360200190a150565b3360009081526002602052604090205460ff16610e8c576040805162461bcd60e51b81526020600482015260096024820152682737ba1037bbb732b960b91b604482015290519081900360640190fd5b600454600554610ea2908663ffffffff61124c16565b1115610eed576040805162461bcd60e51b815260206004820152601560248201527426b0bc1038bab0b73a34ba3c903634b6b4ba32b21760591b604482015290519081900360640190fd5b60005b8481101561116c57600154604051632e0ebd3560e11b81526001600160a01b038881166004830190815260ff80881660448501528616606484015260806024840190815288516084850152885192909416938493635c1d7a6a938c938b938b938b9360a490910190602087019080838360005b83811015610f7b578181015183820152602001610f63565b50505050905090810190601f168015610fa85780820380516001836020036101000a031916815260200191505b5095505050505050600060405180830381600087803b158015610fca57600080fd5b505af1158015610fde573d6000803e3d6000fd5b50505050610fea6112a6565b50604080516080810182526000808252602080830182815268055de6a779bbac000084860190815285518084019096528386526060850195865260078054600181018083559190955285517fa66cc928b5edb82af9bd49922954155ab7b0942694bea4ce44661d9a8736c688600490960295860180546001600160a01b0319166001600160a01b0390921691909117815592517fa66cc928b5edb82af9bd49922954155ab7b0942694bea4ce44661d9a8736c68986015590517fa66cc928b5edb82af9bd49922954155ab7b0942694bea4ce44661d9a8736c68a8501559451805194959486949293611100937fa66cc928b5edb82af9bd49922954155ab7b0942694bea4ce44661d9a8736c68b019201906112d7565b505060055461111992509050600163ffffffff61124c16565b6005819055604080516001600160a01b038b168152602081019290925280517f71247058ffac85a8c0b78df7a9988084754e3bb36a89d766be8d7a731560f27f9281900390910190a15050600101610ef0565b505050505050565b336001600160a01b03166007838154811061118b57fe5b60009182526020909120600490910201546001600160a01b0316146111ee576040805162461bcd60e51b81526020600482015260146024820152732737ba103a3434b9903137bc13b99037bbb732b960611b604482015290519081900360640190fd5b80600783815481106111fc57fe5b906000526020600020906004020160030190805190602001906112209291906112d7565b505050565b6001546001600160a01b031681565b6000813b8015801561124557503233145b9392505050565b600082820183811015611245576040805162461bcd60e51b815260206004820152601b60248201527f536166654d6174683a206164646974696f6e206f766572666c6f770000000000604482015290519081900360640190fd5b604051806080016040528060006001600160a01b031681526020016000815260200160008152602001606081525090565b828054600181600116156101000203166002900490600052602060002090601f016020900481019282601f1061131857805160ff1916838001178555611345565b82800160010185558215611345579182015b8281111561134557825182559160200191906001019061132a565b50611351929150611355565b5090565b61069a91905b80821115611351576000815560010161135b56fe54686973206361736820626f7820686164206265656e2077697468647261776564a265627a7a72315820f5cedc2a9d5fd89a9a6eb521c109ca44a61fbca3974016e2dd333f32f5b6305e64736f6c63430005100032",
  "source": "pragma solidity ^0.5.2;\n\nimport \"openzeppelin-solidity/contracts/math/SafeMath.sol\";\nimport \"./IMysteryBox.sol\";\nimport \"./BitflixNFTInterface.sol\";\n\n/**\n * @title MysteryBox ERC721 token\n *\n * @dev Implementation of the mystery box.\n*/\ncontract MysteryBox is IMysteryBox{\n    using SafeMath for uint256;\n    /*\n        Datas\n    */\n    address public owner_address;\n    /* The address of our ERC721 token contract */\n    address public bitfilxNFTContractAddress = address(0);\n    // Mapping from caller address to access rights\n    mapping(address => bool) public map_caller;\n    // Mapping from mysterybox id to withdrawed\n    mapping(uint256 => bool) public map_withdrawed;\n    // Mysterybox informations\n    uint256 public max_quantity;\n    uint256 public box_quantity;\n    address public author_address;\n    struct attributes{\n        address owner_address;\n        uint256 block_number;\n        uint256 price;\n        string name;\n    }\n    attributes[] public boxes_attributes;\n    /*\n        Modifyer\n    */\n    modifier onlyOwner(){\n        require(msg.sender == owner_address, \"Not owner\");\n        _;\n    }\n    modifier onlyCaller(){\n        require(map_caller[msg.sender], \"Not owner\");\n        _;\n    }\n    /*\n        Events\n    */\n    // Called when box is generate.\n    event GenerateBox(address owner, uint256 index);\n    // Called when box is unboxed.\n    event UnBox(address owner, uint256 index, uint256 open_block_number);\n    // Called when owner changed.\n    event ChangeOwner(address _newOwner);\n    // Called when debug.\n    event Debug(uint256 data, address addr);\n    /**\n    * @dev constructor that sets the random, author, max quantity and owner address\n    * @param _author The address of author.\n    * @param _max_quantity The max quantity.\n    */\n    constructor(address _author, uint256 _max_quantity) public {\n        require(address(0) != _author, \"author address is invalid.\");\n        owner_address = msg.sender;\n        author_address = _author;\n        max_quantity = _max_quantity;\n        map_caller[msg.sender] = true;\n    }    \n    /**\n    * @dev Change the owner of contract\n    * @param _newOwner The address of new owner.\n    */\n    function changeOwner(address _newOwner) public onlyOwner {\n        require(address(0) != _newOwner, \"Invalid owner address\");\n        owner_address = _newOwner;\n        emit ChangeOwner(_newOwner);\n    }\n    /**\n    * @dev set caller access rights.\n    * @param _caller The address of caller.\n    * @param _access The rights of access.\n    */\n    function setCaller(address _caller, bool _access)\n    public onlyOwner{\n        map_caller[_caller] = _access;\n    }\n    /**\n    * @dev get author address.\n    * @return The address of author.\n    */\n    function getAuthor() public view returns(address){\n        return author_address;\n    }\n    /**\n    * @dev get author address.\n    * @return The max quantity of box.\n    */\n    function getQuantity() public view returns(uint256){\n        return box_quantity;\n    }\n    /**\n    * @dev generate boxes.\n    * @param _to The address of customer.\n    * @param _counts The number of boxes that will be generated.\n    */\n    function generate(address _to, uint256 _counts, string memory _title, uint8 _class_id, uint8 _size) public onlyCaller {\n        require(box_quantity.add(_counts) <= max_quantity, \"Max quantity limited.\");\n        for (uint256 index = 0; index < _counts; index++) {\n\n            /* Let's talk to our token contract */\n            BitflixNFTInterface bitfilxNFT = BitflixNFTInterface(bitfilxNFTContractAddress);\n            bitfilxNFT.createNFT(_to, _title, _class_id, _size);\n\n            attributes memory attr = attributes({owner_address: address(0), block_number:0, price:99*10**18, name:\"\"}); // price is 99 USDT\n            boxes_attributes.push(attr);\n            box_quantity = box_quantity.add(1);\n            emit GenerateBox(_to, box_quantity);\n        }\n    }\n    /**\n    * @dev Unbox.\n    * @param _boxes The arrary of boxes that will be unboxed.\n    */\n    function unBox(uint256[] memory _boxes) public {\n        require(_isEOA(msg.sender), \"Not EOA.\");\n        require(_boxes.length <= 12, \"Max box counts limited.\");\n        for (uint256 index = 0; index < _boxes.length; index++) {\n            require(boxes_attributes[_boxes[index]].owner_address == msg.sender, \"Not this box's owner\");\n            require(boxes_attributes[_boxes[index]].block_number == 0, \"Box has been opened\");\n            // set block number\n            boxes_attributes[_boxes[index]].block_number = block.number.add(2);\n            emit UnBox(msg.sender, _boxes[index], boxes_attributes[_boxes[index]].block_number);\n        }\n    }\n    /**\n    * @dev Withdraw a CASH box.\n    * @param _index The index of box that is CASH level.\n    */\n    function withdrawCash(uint256 _index) public onlyCaller {\n        require(!map_withdrawed[_index], \"This cash box had been withdrawed\");\n        uint256 level;\n        (, , level, , ) = getAttributes(_index);\n        require(level == 6, \"Not a CASH level box\");\n        map_withdrawed[_index] = true;\n    }\n    /**\n    * @dev Get attributes by index of boxes.\n    * @param _index The index of box.\n    * @return block_number The block number of open\n    * @return level The level of box\n    * @return price The price of box\n    * @return name The name of box\n    */\n    function getAttributes(uint256 _index) public view returns(uint256 block_number, uint256 types, uint256 level, uint256 price, string memory name){\n        attributes memory attr = boxes_attributes[_index];\n        if( 0 == attr.block_number || attr.block_number > block.number){\n            types = 0;\n            level = 0;\n        }else{\n            uint256 randomX = uint256(keccak256(abi.encodePacked(blockhash(attr.block_number), _index)));\n            uint256 random_type = randomX % 100;\n            if(random_type == 99){\n                // types(12)    1%\n                types = 12;\n            }else{\n                // types(1~11)\n                types = random_type % 11 + 1;\n            }\n            randomX = uint256(keccak256(abi.encodePacked(randomX, _index)));\n            uint256 random_level = randomX % 100;\n            if(random_level < 50){\n                // 50% Universal\n                level = 1;\n            }else if(random_level < 80){\n                // 30% Rare\n                level = 2;\n            }else if(random_level < 92){\n                // 12% Epical\n                level = 3;\n            }else if(random_level < 97){\n                // 5% Legendary\n                level = 4;\n            }else if(random_level < 99){\n                // 2% Mythic\n                level = 5;\n            }else{\n                // 1% CASH\n                level = 6;\n            }\n        }\n        price = attr.price;\n        name = attr.name;\n        block_number = attr.block_number;\n    }\n    /**\n    * @dev Change the name of box.\n    * @param _index The index of box.\n    * @param _name The new name of box.\n    */\n    function changeName(uint256 _index, string memory _name) public {\n        require(boxes_attributes[_index].owner_address == msg.sender, \"Not this box's owner\");\n        boxes_attributes[_index].name = _name;\n    }\n\n    /**\n    * @dev Check whether address belongs to a EOA\n    * @param addr The address of user.\n    * @return bool\n    */\n    function _isEOA(address addr) \n    internal view\n    returns (bool) {\n        uint size;\n        assembly { size := extcodesize(addr) }\n        return size == 0 && (tx.origin == msg.sender);\n    }\n}",
  "sourcePath": "/Users/tuminfei/Code/Nodejs/bitfilx-nft-marketplace/contracts/core/MysteryBox.sol",
  "compiler": {
    "name": "solc",
    "version": "0.5.16+commit.9c3226ce.Emscripten.clang"
  },
  "schemaVersion": "3.3.0",
  "updatedAt": "2021-07-13T03:27:39.963Z",
  "devdoc": {
    "details": "Implementation of the mystery box.",
    "methods": {
      "changeName(uint256,string)": {
        "details": "Change the name of box.",
        "params": {
          "_index": "The index of box.",
          "_name": "The new name of box."
        }
      },
      "changeOwner(address)": {
        "details": "Change the owner of contract",
        "params": {
          "_newOwner": "The address of new owner."
        }
      },
      "constructor": {
        "details": "constructor that sets the random, author, max quantity and owner address",
        "params": {
          "_author": "The address of author.",
          "_max_quantity": "The max quantity."
        }
      },
      "generate(address,uint256,string,uint8,uint8)": {
        "details": "generate boxes.",
        "params": {
          "_counts": "The number of boxes that will be generated.",
          "_to": "The address of customer."
        }
      },
      "getAttributes(uint256)": {
        "details": "Get attributes by index of boxes.",
        "params": {
          "_index": "The index of box."
        },
        "return": "block_number The block number of openlevel The level of boxprice The price of boxname The name of box"
      },
      "getAuthor()": {
        "details": "get author address.",
        "return": "The address of author."
      },
      "getQuantity()": {
        "details": "get author address.",
        "return": "The max quantity of box."
      },
      "setCaller(address,bool)": {
        "details": "set caller access rights.",
        "params": {
          "_access": "The rights of access.",
          "_caller": "The address of caller."
        }
      },
      "unBox(uint256[])": {
        "details": "Unbox.",
        "params": {
          "_boxes": "The arrary of boxes that will be unboxed."
        }
      },
      "withdrawCash(uint256)": {
        "details": "Withdraw a CASH box.",
        "params": {
          "_index": "The index of box that is CASH level."
        }
      }
    },
    "title": "MysteryBox ERC721 token"
  },
  "userdoc": {
    "methods": {}
  }
}